:020000040800F2
:1000000000000120B5D900083D1F00083F1F00086F
:10001000411F0008431F0008451F000800000000A2
:10002000000000000000000000000000471F000862
:10003000491F0008000000004B1F00084D1F00086A
:10004000F9D90008F9D90008F9D90008F9D9000848
:10005000F9D90008F9D90008F9D90008F9D9000838
:10006000F9D90008F9D90008F9D90008F9D9000828
:10007000F9D90008F9D90008F9D90008F9D9000818
:10008000F9D90008F9D90008F9D90008F9D9000808
:10009000F9D90008F9D90008F9D90008F9D90008F8
:1000A000F9D90008F9D90008F9D90008F9D90008E8
:1000B000551F0008651F0008A91F0008F9D900088E
:1000C000F9D90008F9D90008F9D90008F9D90008C8
:1000D000F9D90008F9D90008F9D90008F9D90008B8
:1000E000F9D90008F9D90008F9D900080000000082
:1000F0000000000000000000000000000000000000
:100100000000000000000000BD1F0008F9D9000831
:10011000F9D90008F9D90008F9D90008F9D9000877
:10012000F9D90008F9D90008F9D90008F9D9000867
:10013000F9D900080000000000000000F9D900080B
:10014000F9D90008F9D90008F9D90008F91F000801
:10015000000000000000000000000000000000009F
:10016000000000000000000000000000000000008F
:10017000000000000000000000000000000000007F
:10018000000000000000000000000000000000006F
:10019000000000000000000000000000000000005F
:1001A000000000000000000000000000000000004F
:1001B000000000000000000000000000000000003F
:1001C000000000000000000000000000000000002F
:1001D000000000000000000000000000000000001F
:0401E0005FF8E0F1F3
:1001E80010B5054C237833B9044B13B10448AFF369
:1001F80000800123237010BD0002002000000000D1
:10020800E436010808B5034B1BB103490348AFF3B3
:10021800008008BD0000000004020020E436010848
:10022800034613F8012B002AFBD1181A013870472E
:1002380081F0004102E000BF83F0004330B54FEA8F
:1002480041044FEA430594EA050F08BF90EA020FFC
:100258001FBF54EA000C55EA020C7FEA645C7FEA8F
:10026800655C00F0E2804FEA5454D4EB5555B8BFB2
:100278006D420CDD2C4480EA020281EA030382EA23
:10028800000083EA010180EA020281EA0303362DB5
:1002980088BF30BD11F0004F4FEA01314FF4801C88
:1002A8004CEA113102D0404261EB410113F0004F9A
:1002B8004FEA03334CEA133302D0524263EB430351
:1002C80094EA050F00F0A780A4F10104D5F1200EEF
:1002D8000DDB02FA0EFC22FA05F2801841F100014A
:1002E80003FA0EF2801843FA05F359410EE0A5F11E
:1002F80020050EF1200E012A03FA0EFC28BF4CF04F
:10030800020C43FA05F3C01851EBE37101F0004504
:1003180007D54FF0000EDCF1000C7EEB00006EEB11
:100328000101B1F5801F1BD3B1F5001F0CD349089B
:100338005FEA30004FEA3C0C04F101044FEA4452F2
:1003480012F5800F80F09A80BCF1004F08BF5FEA79
:10035800500C50F1000041EB045141EA050130BD59
:100368005FEA4C0C404141EB010111F4801FA4F1FC
:100378000104E9D191F0000F04BF01460020B1FA51
:1003880081F308BF2033A3F10B03B3F120020CDA89
:100398000C3208DD02F1140CC2F10C0201FA0CF067
:1003A80021FA02F10CE002F11402D8BFC2F1200CCC
:1003B80001FA02F120FA0CFCDCBF41EA0C01904082
:1003C800E41AA2BF01EB0451294330BD6FEA0404CB
:1003D8001F3C1CDA0C340EDC04F11404C4F12002B6
:1003E80020FA04F001FA02F340EA030021FA04F3C8
:1003F80045EA030130BDC4F10C04C4F1200220FA1F
:1004080002F001FA04F340EA0300294630BD21FA5C
:1004180004F0294630BD94F0000F83F4801306BF22
:1004280081F480110134013D4EE77FEA645C18BF16
:100438007FEA655C29D094EA050F08BF90EA020FAD
:1004480005D054EA000C04BF1946104630BD91EAA5
:10045800030F1EBF0021002030BD5FEA545C05D1A8
:100468004000494128BF41F0004130BD14F58004E7
:100478003CBF01F5801130BD01F0004545F0FE415B
:1004880041F470014FF0000030BD7FEA645C1ABF90
:10049800194610467FEA655C1CBF0B46024650EAC7
:1004A800013406BF52EA033591EA030F41F40021F3
:1004B80030BD00BF90F0000F04BF0021704730B579
:1004C8004FF4806404F132044FF000054FF000014E
:1004D80050E700BF90F0000F04BF0021704730B50F
:1004E8004FF4806404F1320410F0004548BF4042E4
:1004F8004FF000013EE700BF42004FEAE2014FEA39
:1005080031014FEA02701FBF12F07F4393F07F4F13
:1005180081F06051704732F07F4208BF704793F016
:100528007F4F04BF41F40021704730B54FF4607429
:1005380001F0004521F000411CE700BF50EA01022C
:1005480008BF704730B54FF000050AE050EA0102D5
:1005580008BF704730B511F0004502D5404261EB45
:1005680041014FF4806404F132045FEA915C3FF486
:10057800D8AE4FF003025FEADC0C18BF03325FEA23
:10058800DC0C18BF033202EBDC02C2F1200300FAD4
:1005980003FC20FA02F001FA03FE40EA0E0021FAF9
:1005A80002F11444BDE600BF70B54FF0FF0C4CF4E7
:1005B800E06C1CEA11541DBF1CEA135594EA0C0F99
:1005C80095EA0C0F00F0DEF82C4481EA030621EAD4
:1005D8004C5123EA4C5350EA013518BF52EA03350F
:1005E80041F4801143F4801338D0A0FB02CE4FF0C1
:1005F8000005E1FB02E506F00042E0FB03E54FF0F1
:100608000006E1FB03569CF0000F18BF4EF0010EE8
:10061800A4F1FF04B6F5007F64F5407404D25FEAE4
:100628004E0E6D4146EB060642EAC62141EA555197
:100638004FEAC52040EA5E504FEACE2EB4F1FD0CD9
:1006480088BFBCF5E06F1ED8BEF1004F08BF5FEA57
:10065800500E50F1000041EB045170BD06F0004609
:1006680046EA010140EA020081EA0301B4EB5C04B6
:10067800C2BFD4EB0C0541EA045170BD41F48011AE
:100688004FF0000E013C00F3AB8014F1360FDEBFD3
:10069800002001F0004170BDC4F10004203C35DAAF
:1006A8000C341BDC04F11404C4F1200500FA05F332
:1006B80020FA04F001FA05F240EA020001F00042D3
:1006C80021F0004110EBD37021FA04F642EB060149
:1006D8005EEA430E08BF20EAD37070BDC4F10C0473
:1006E800C4F1200500FA04F320FA05F001FA04F237
:1006F80040EA020001F0004110EBD37041F1000123
:100708005EEA430E08BF20EAD37070BDC4F120052D
:1007180000FA05F24EEA020E20FA04F301FA05F295
:1007280043EA020321FA04F001F0004121FA04F23D
:1007380020EA020000EBD3705EEA430E08BF20EA0D
:10074800D37070BD94F0000F0FD101F00046400047
:1007580041EB010111F4801F08BF013CF7D041EAC9
:10076800060195F0000F18BF704703F000465200CD
:1007780043EB030313F4801F08BF013DF7D043EA9E
:100788000603704794EA0C0F0CEA135518BF95EA54
:100798000C0F0CD050EA410618BF52EA4306D1D1DB
:1007A80081EA030101F000414FF0000070BD50EAFA
:1007B800410606BF1046194652EA430619D094EA84
:1007C8000C0F02D150EA013613D195EA0C0F05D16E
:1007D80052EA03361CBF104619460AD181EA0301C2
:1007E80001F0004141F0FE4141F470014FF000007A
:1007F80070BD41F0FE4141F4780170BD70B54FF015
:10080800FF0C4CF4E06C1CEA11541DBF1CEA135594
:1008180094EA0C0F95EA0C0F00F0A7F8A4EB050476
:1008280081EA030E52EA03354FEA013100F088806D
:100838004FEA03334FF0805545EA131343EA126336
:100848004FEA022245EA111545EA10654FEA0026EB
:100858000EF000419D4208BF964244F1FD0404F5A4
:10086800407402D25B084FEA3202B61A65EB030500
:100878005B084FEA32024FF480104FF4002CB6EBBD
:10088800020E75EB030E22BFB61A754640EA0C003D
:100898005B084FEA3202B6EB020E75EB030E22BF7D
:1008A800B61A754640EA5C005B084FEA3202B6EBBE
:1008B800020E75EB030E22BFB61A754640EA9C007D
:1008C8005B084FEA3202B6EB020E75EB030E22BF4D
:1008D800B61A754640EADC0055EA060E18D04FEA0B
:1008E800051545EA16754FEA06164FEAC30343EAAB
:1008F80052734FEAC2025FEA1C1CC0D111F4801F78
:100908000BD141EA00014FF000004FF0004CB6E770
:1009180011F4801F04BF01430020B4F1FD0C88BF0F
:10092800BCF5E06F3FF6AFAEB5EB030C04BFB6EB1A
:10093800020C5FEA500C50F1000041EB045170BD0D
:100948000EF0004E4EEA113114EB5C04C2BFD4EB3A
:100958000C0541EA045170BD41F480114FF0000EBE
:10096800013C90E645EA060E8DE60CEA135594EA3A
:100978000C0F08BF95EA0C0F3FF43BAF94EA0C0F3D
:100988000AD150EA01347FF434AF95EA0C0F7FF4B2
:1009980025AF104619462CE795EA0C0F06D152EA06
:1009A80003353FF4FDAE1046194622E750EA4106EA
:1009B80018BF52EA43067FF4C5AE50EA41047FF4FB
:1009C8000DAF52EA43057FF4EBAE12E74FF0FF3C60
:1009D80006E000BF4FF0010C02E000BF4FF0010C31
:1009E8004DF804CD4FEA410C7FEA6C5C4FEA430CAA
:1009F80018BF7FEA6C5C1BD001B050EA410C0CBFF9
:100A080052EA430C91EA030F02BF90EA020F00205A
:100A1800704710F1000F91EA030F58BF994208BFC1
:100A280090422CBFD8176FEAE37040F0010070477E
:100A38004FEA410C7FEA6C5C02D150EA013C07D1D5
:100A48004FEA430C7FEA6C5CD6D152EA033CD3D020
:100A58005DF8040B704700BF8446104662468C461A
:100A68001946634600E000BF01B5FFF7B7FF00284D
:100A780048BF10F1000F01BD4DF808EDFFF7F4FF76
:100A88000CBF012000205DF808FB00BF4DF808ED01
:100A9800FFF7EAFF34BF012000205DF808FB00BF24
:100AA8004DF808EDFFF7E0FF94BF012000205DF846
:100AB80008FB00BF4DF808EDFFF7CEFF94BF0120FB
:100AC80000205DF808FB00BF4DF808EDFFF7C4FFF4
:100AD80034BF012000205DF808FB00BF4FEA410C3D
:100AE8007FEA6C5C02D150EA013C0AD14FEA430C20
:100AF8007FEA6C5C02D152EA033C02D14FF000005D
:100B080070474FF0010070474FEA410212F500129A
:100B180015D211D56FF47873B3EB625212D94FEA3C
:100B2800C12343F0004343EA505311F0004F23FA26
:100B380002F018BF404270474FF00000704750EA7B
:100B4800013005D111F0004008BF6FF00040704738
:100B58004FF00000704700BF4A0011D212F5001292
:100B680011D20DD56FF47873B3EB62520ED44FEAFD
:100B7800C12343F0004343EA505323FA02F070477D
:100B88004FF00000704750EA013002D14FF0FF30BB
:100B980070474FF0000070474FEA4102B2F1E0435E
:100BA80024BFB3F5001CDCF1FE5C0DD901F0004C4C
:100BB8004FEAC0024CEA5070B2F1004F40EB83009C
:100BC80008BF20F00100704711F0804F21D113F1C8
:100BD8003872BCBF01F00040704741F480114FEA01
:100BE8005252C2F11802C2F1200C10FA0CF320FA8A
:100BF80002F018BF40F001004FEAC1234FEAD323A7
:100C080003FA0CFC40EA0C0023FA02F34FEA430310
:100C1800CCE77FEA625307D150EA01331EBF4FF099
:100C2800FE4040F44000704701F0004040F0FE40B4
:100C380040F40000704700BF80F0004002E000BFB1
:100C480081F0004142001FBF5FEA410392EA030FAF
:100C58007FEA226C7FEA236C6AD04FEA1262D2EBF9
:100C68001363C1BFD218414048404140B8BF5B42FE
:100C7800192B88BF704710F0004F40F4000020F097
:100C88007F4018BF404211F0004F41F4000121F0AD
:100C98007F4118BF494292EA030F3FD0A2F10102F7
:100CA80041FA03FC10EB0C00C3F1200301FA03F135
:100CB80000F0004302D5494260EB4000B0F5000F58
:100CC80013D3B0F1807F06D340084FEA310102F117
:100CD8000102FE2A51D2B1F1004F40EBC25008BFC9
:100CE80020F0010040EA03007047490040EB000093
:100CF80010F4000FA2F10102EDD1B0FA80FCACF1C2
:100D0800080CB2EB0C0200FA0CF0AABF00EBC250C0
:100D180052421843BCBFD0401843704792F0000FAE
:100D280081F4000106BF80F400000132013BB5E701
:100D38004FEA41037FEA226C18BF7FEA236C21D077
:100D480092EA030F04D092F0000F08BF08467047DC
:100D580090EA010F1CBF0020704712F07F4F04D1AA
:100D6800400028BF40F00040704712F100723CBFBD
:100D780000F50000704700F0004343F0FE4040F4E7
:100D8800000070477FEA226216BF08467FEA2363A5
:100D98000146420206BF5FEA412390EA010F40F490
:100DA800800070474FF0000304E000BF10F00043DC
:100DB80048BF40425FEA000C08BF704743F09643C3
:100DC80001464FF000001CE050EA010208BF7047DE
:100DD8004FF000030AE000BF50EA010208BF704765
:100DE80011F0004302D5404261EB41015FEA010C7A
:100DF80002BF84460146002043F0B64308BFA3F172
:100E08008053A3F50003BCFA8CF2083AA3EBC25353
:100E180010DB01FA02FC634400FA02FCC2F1200272
:100E2800BCF1004F20FA02F243EB020008BF20F0A9
:100E38000100704702F1200201FA02FCC2F120020F
:100E480050EA4C0021FA02F243EB020008BF20EA04
:100E5800DC7070474FF0FF0C1CEAD0521EBF1CEA32
:100E6800D15392EA0C0F93EA0C0F6FD01A4480EA20
:100E7800010C400218BF5FEA41211ED04FF0006309
:100E880043EA501043EA5111A0FB01310CF0004035
:100E9800B1F5000F3EBF490041EAD3715B0040EA5B
:100EA800010062F17F02FD2A1DD8B3F1004F40EB2B
:100EB800C25008BF20F00100704790F0000F0CF0FE
:100EC800004C08BF49024CEA502040EA51207F3AC2
:100ED800C2BFD2F1FF0340EAC250704740F400009D
:100EE8004FF00003013A5DDC12F1190FDCBF00F08E
:100EF80000407047C2F10002410021FA02F1C2F13C
:100F0800200200FA02FC5FEA310040F1000053EAD7
:100F18004C0308BF20EADC70704792F0000F00F025
:100F2800004C02BF400010F4000F013AF9D040EA2B
:100F38000C0093F0000F01F0004C02BF490011F4BF
:100F4800000F013BF9D041EA0C018FE70CEAD153BD
:100F580092EA0C0F18BF93EA0C0F0AD030F0004C3D
:100F680018BF31F0004CD8D180EA010000F00040F1
:100F7800704790F0000F17BF90F0004F084691F0AF
:100F8800000F91F0004F14D092EA0C0F01D14202E9
:100F98000FD193EA0C0F03D14B0218BF084608D1B2
:100FA80080EA010000F0004040F0FE4040F40000FC
:100FB800704740F0FE4040F4400070474FF0FF0C8F
:100FC8001CEAD0521EBF1CEAD15392EA0C0F93EAD6
:100FD8000C0F69D0A2EB030280EA010C49024FEA28
:100FE800402037D04FF0805343EA111143EA1013E1
:100FF8000CF000408B4238BF5B0042F17D024FF499
:10100800000C8B4224BF5B1A40EA0C00B3EB510F73
:1010180024BFA3EB510340EA5C00B3EB910F24BF5C
:10102800A3EB910340EA9C00B3EBD10F24BFA3EBE1
:10103800D10340EADC001B0118BF5FEA1C1CE0D1A9
:10104800FD2A3FF650AF8B4240EBC25008BF20F05C
:10105800010070470CF0004C4CEA50207F32C2BFB0
:10106800D2F1FF0340EAC250704740F400004FF04D
:101078000003013A37E792F0000F00F0004C02BF7E
:10108800400010F4000F013AF9D040EA0C0093F048
:10109800000F01F0004C02BF490011F4000F013BA2
:1010A800F9D041EA0C0195E70CEAD15392EA0C0F0A
:1010B80008D142027FF47DAF93EA0C0F7FF470AF42
:1010C800084676E793EA0C0F04D14B023FF44CAF85
:1010D80008466EE730F0004C18BF31F0004CCAD11A
:1010E80030F000427FF45CAF31F000437FF43CAF56
:1010F8005FE700BF4FF0FF3C06E000BF4FF0010C78
:1011080002E000BF4FF0010C4DF804CD4FEA400259
:101118004FEA41037FEA226C18BF7FEA236C11D0A3
:1011280001B052EA530C18BF90EA010F58BFB2EB56
:10113800030088BFC81738BF6FEAE17018BF40F0D6
:10114800010070477FEA226C02D15FEA402C05D18A
:101158007FEA236CE4D15FEA412CE1D05DF8040B0F
:10116800704700BF844608466146FFE70FB5FFF7A2
:10117800C9FF002848BF10F1000F0FBD4DF808ED5A
:10118800FFF7F4FF0CBF012000205DF808FB00BF4B
:101198004DF808EDFFF7EAFF34BF012000205DF8A5
:1011A80008FB00BF4DF808EDFFF7E0FF94BF0120F2
:1011B80000205DF808FB00BF4DF808EDFFF7D2FFEF
:1011C80094BF012000205DF808FB00BF4DF808ED32
:1011D800FFF7C8FF34BF012000205DF808FB00BFFF
:1011E8004FEA40024FEA41037FEA226C02D15FEAEC
:1011F800402C08D17FEA236C02D15FEA412C02D14E
:101208004FF0000070474FF0010070474FEA40026E
:10121800B2F1FE4F0FD34FF09E03B3EB12620DD91C
:101228004FEA002343F0004310F0004F23FA02F086
:1012380018BF404270474FF00000704712F1610F2D
:1012480001D1420205D110F0004008BF6FF0004004
:1012580070474FF00000704753B94AB9002908BFDA
:1012680000281CBF4FF0FF314FF0FF3000F074B979
:10127800ADF1080C6DE904CE00F006F8DDF804E0E5
:10128800DDE9022304B070472DE9F0478C46044697
:10129800089E002B4BD18A42154667D9B2FA82F2D2
:1012A8004AB1C2F1200701FA02F320FA07F7954084
:1012B80047EA030C94404FEA154EBCFBFEF71FFAB1
:1012C80085F80EFB17C307FB08F9210C41EA034315
:1012D800994509D9EB1807F1FF3180F01C81994530
:1012E80040F21981023F2B44A3EB0903B3FBFEF044
:1012F8000EFB103300FB08F1A4B244EA0344A142F8
:1013080009D92C1900F1FF3380F00781A14240F27E
:10131800048102382C4440EA07400027641A1EB1B1
:101328000023D440C6E900433946BDE8F0878B4224
:1013380009D9002E00F0EC800027C6E900013846E4
:101348003946BDE8F087B3FA83F7002F48D18B42BE
:1013580002D3824200F2FB80841A61EB030301206E
:101368009C46002EE0D0C6E9004CDDE702B9FFDE5E
:10137800B2FA82F2002A40F08F800127491B4FEA17
:1013880015481FFA85F9B1FBF8FE08FB1E1109FB89
:101398000EF04FEA144C4CEA0143984207D9EB1877
:1013A8000EF1FF3102D2984200F2CD808E461B1A10
:1013B800B3FBF8F008FB103309FB00F9A4B244EAC8
:1013C8000344A14507D92C1900F1FF3302D2A145E6
:1013D80000F2B6801846A4EB090440EA0E409EE7E6
:1013E800C7F12005BB4022FA05FC4CEA030C21FAA0
:1013F80005F44FEA1C4EB4FBFEF91FFA8CF80EFBFD
:10140800194420FA05F3B94009FB08FA19430B0CF3
:1014180043EA0444A24502FA07F200FA07F30BD99B
:101428001CEB040409F1FF3080F08880A24540F2EB
:101438008580A9F102096444A4EB0A04B4FBFEF018
:101448000EFB104400FB08FA89B241EA0444A245A5
:1014580008D91CEB040400F1FF316BD2A24569D90D
:101468000238644440EA0940A0FB0289A4EB0A045C
:101478004C454146CE4654D351D0002E69D05A1A15
:1014880064EB0E0404FA05F522FA07F3FC401D4349
:10149800C6E90054002747E79540C2F1200321FA26
:1014A80003F04FEA1548B0FBF8F71FFA85F908FB77
:1014B800170024FA03F3914007FB09FC0B43190CAE
:1014C80041EA00418C4504FA02F407D9691807F18A
:1014D800FF3031D28C452FD9023F2944A1EB0C01B2
:1014E800B1FBF8F008FB101C00FB09FE99B241EAB9
:1014F8000C418E4507D9691800F1FF3318D28E4583
:1015080016D902382944A1EB0E0140EA07473AE709
:101518003746304608E70F46E6E61846FBE64345F9
:10152800ABD2B8EB020169EB0C0201389646A4E78E
:101538001846E8E7084695E70746CFE781467BE780
:1015480002382C4447E7AEF1020E2B442FE7384609
:1015580007E73746E8E600BF704700BF10B51446F6
:101568004FF0FF3392B2024803F032F9204610BD23
:10157800806E002070B59CB0342200210FA80CF0BA
:101588004FFA002409940A940B940C940D94202289
:10159800214601A80CF044FA01250E954FF480333A
:1015A800109313950226169617934FF4E013189389
:1015B8000EA801F0BBFF0F2309930A960B944FF472
:1015C80080630C930D94314609A802F081FA102328
:1015D8000193089401A802F06FFB024B1D601CB038
:1015E80070BD00BF7000424210B501F051FFFFF717
:1015F800C1FF00F0BBF800F083F900F0C9FA00F071
:101608006FF900F045FB00F0B1F900F0E7F900F0E0
:101618001DFA4E4802F0CEFD1D2002F071FD4C4827
:1016280002F0C8FD1E2002F06BFD0CF065F9494878
:1016380002F0C0FD322002F063FD09F0FDF809F068
:1016480053F807F021F807F02FF909F09FFB4FF442
:10165800FA7001F041FF0AF01DFD0AF0B3FE0BF02D
:1016680059FE0CF059F80AF02FFE01210AF02CFD62
:1016780001200AF05FFD0AF02DFE0446364B1B6878
:10168800036002210AF020FD02200AF053FD334BCB
:101698001B6823600AF038FE0AF01CFE03210AF0DA
:1016A80013FD03200AF046FD0AF02EFE0AF012FE92
:1016B80004210AF009FD04200AF03CFD0AF04CFE62
:1016C8001CE00AF0FBFDD0F80C3198471FE00AF047
:1016D800F5FDD0F80831984720E00AF0EFFDD0F882
:1016E8000031984721E00AF0E9FDD0F80431984725
:1016F80022E0012210211A4802F0B5FC00F0E8FAB5
:101708008021174802F0A8FC10F0010FD9D1082158
:10171800144802F0A1FC10F0010FD8D11021114893
:1017280002F09AFC10F0010FD7D120210D4802F0E9
:1017380093FC10F0010FD6D10BF0F8FD0128D8D09A
:1017480000221021064802F08EFCD7E7006E002028
:10175800806D0020C06D002048370108503701080F
:1017680000140140000C0140704700002DE9F04FC3
:101778008BB000240694079408940994524B9A69F4
:1017880042F004029A619A6902F004020192019AF5
:101798009A6942F010029A619A6902F01002029264
:1017A800029A9A6942F040029A619A6902F04002EC
:1017B8000392039A9A6942F008029A619A6902F0C0
:1017C80008020492049A9A6942F020029A619B697D
:1017D80003F020030593059BDFF8F49022464FF4AD
:1017E8009061484602F03FFCDFF8E8B022464FF42B
:1017F8007C71584602F037FCDFF8DCA022464FF631
:101808008071504602F02FFC304F22464FF47C4145
:10181800384602F028FCDFF8C48022464FF61061F3
:10182800404602F020FC4FF4906306930126079689
:1018380008940225099506A9484602F023FB4FF4AF
:101848007C73069307960894099506A9584602F0F2
:1018580019FB4FF68073069307960894099506A915
:10186800504602F00FFB4FF47C430693079608940A
:10187800099506A9384602F005FB4FF61063069352
:1018880007960894099506A9404602F0FBFA4FF41A
:10189800807306930794089406A9484602F0F2FA62
:1018A800802306930794089506A9404602F0EAFAB1
:1018B800382306930794089506A9384602F0E2FAF9
:1018C8000BB0BDE8F08F00BF00100240000C0140D3
:1018D80000080140001001400018014000140140B8
:1018E80008B50349034805F04DF9034B187008BDC6
:1018F8001C4D0020E43C01087C6D0020002070474E
:1019080000B587B0002302930393049305930093D3
:10191800019315484FF080420260012242608360C3
:101928009622C2600361836102F0D8FD98B906A9C6
:101938004FF4805341F8103D0B4802F047FC68B95A
:101948000023009301936946074802F0E0FD40B97F
:1019580007B05DF804FBFFF707FFE8E7FFF704FFB0
:10196800EEE7FFF701FFF3E7406E002000B587B010
:10197800002302930393049305930093019315485E
:10198800154A02604822426083604FF47A72C2604E
:101998000361836102F0A2FD98B906A94FF4805350
:1019A80041F8103D0B4802F011FC68B90023009380
:1019B80001936946074802F0AAFD40B907B05DF8EF
:1019C80004FBFFF7D1FEE8E7FFF7CEFEEEE7FFF7EF
:1019D800CBFEF3E7006E00200004004000B587B09E
:1019E80000230293039304930593009301931548EE
:1019F800154A02602422426083606422C260036147
:101A0800836102F06BFD98B906A94FF4805341F841
:101A1800103D0C4802F0DAFB68B9002300930193EB
:101A28006946084802F073FD40B907B05DF804FB49
:101A3800FFF79AFEE8E7FFF797FEEEE7FFF794FE59
:101A4800F3E700BF806D00200008004000B587B0B4
:101A5800002302930393049305930093019316487C
:101A6800164A02604FF4FA524260836042F228320A
:101A7800C2600361836102F031FD98B906A94FF491
:101A8800805341F8103D0C4802F0A0FB68B90023D0
:101A9800009301936946084802F039FD40B907B040
:101AA8005DF804FBFFF760FEE8E7FFF75DFEEEE791
:101AB800FFF75AFEF3E700BFC06D0020000C00409E
:101AC80000B585B00368B3F1804F0BD02C4A934220
:101AD8001CD02C4A93422CD02B4A93423CD005B0C0
:101AE8005DF804FB03F50433DA6942F00102DA61B8
:101AF800DB6903F001030093009B002211461C20C0
:101B080002F0CAFA1C2002F0FBFAE8E71F4BDA6978
:101B180042F00202DA61DB6903F002030193019BE0
:101B2800002211461D2002F0B7FA1D2002F0E8FA43
:101B3800D5E7164BDA6942F00402DA61DB6903F093
:101B480004030293029B002211461E2002F0A4FA0D
:101B58001E2002F0D5FAC2E70C4BDA6942F00802FF
:101B6800DA61DB6903F008030393039B0022114643
:101B7800322002F091FA322002F0C2FAAFE700BF39
:101B88000004004000080040000C00400010024023
:101B980008B50A480A4B03604FF4E1334360002359
:101BA8008360C36003610C2242618361C36102F0F8
:101BB800E0FD00B908BDFFF7D7FDFBE7806E002008
:101BC8000044004010B586B00023029303930493A9
:101BD800059302681A4B9A4201D006B010BD03F56E
:101BE800E633DA6942F40032DA61DA6902F4003283
:101BF8000092009A9A6942F020029A619B6903F068
:101C080020030193019B20230293022303930323C0
:101C180005930C4C02A9204602F034F940230293A4
:101C280000230393049302A9204602F02BF9064AE5
:101C3800536843F0E06343F008035360CDE700BF07
:101C480000440040001401400000014008B5042988
:101C580018D0052902D002290DD008BD0B4B03224C
:101C68001A7000200BF05CFB0BF0B2FD0128F4D1D8
:101C78000BF08AFDF1E7054B02221A7001200BF0E8
:101C88004FFBEAE7014B01221A70E6E71C0200202D
:101C980008B501220B490C4805F026F948B90B494B
:101CA800094805F038F938B9074805F078F930B926
:101CB80008BDFFF759FDF2E7FFF756FDF4E7FFF718
:101CC80053FDF5E7551C0008C06E00200C000020ED
:101CD80008B5024805F06DF908BD00BFC06E0020C8
:101CE80010B586B000230293039304930593036809
:101CF800B3F1A04F01D006B010BD124CA36943F058
:101D08000403A361A36903F004030093009B06A9DD
:101D18004FF4007341F8103D0B4802F0B3F86369C3
:101D280043F480536361636903F480530193019B17
:101D380000221146432002F0AFF9432002F0E0F9F7
:101D4800D9E700BF001002400008014008B5D0F8EC
:101D5800800205F0FAF908BD08B5D0F8800205F050
:101D6800FDF908BD08B5D0F8800205F00BFA08BDEA
:101D78007047000090F8BC33012B01D00020704759
:101D880010B504460E48C0F88042C4F8C0034FF0AE
:101D9800A0430360082383600323C36000234361D7
:101DA80000F0E7F940B9064800F0C3FE01462046B6
:101DB80005F0C8F9002010BDFFF7D6FCF3E700BF17
:101DC8008872002008B5D0F8C00300F0B7FE18B13B
:101DD800022803D0012008BD0020FCE70220FAE712
:101DE80008B5D0F8C00300F09EFE08BD08B5D0F8CD
:101DF800C00300F091FE08BD08B590F8BC33012B74
:101E080004D0C82001F068FB002008BD084600F097
:101E180083F8F6E710B4D0F8C03301EB8104E00092
:101E28000446184490F8270040B901EB8101C80026
:101E3800034483F83D20002010BC7047234483F8F6
:101E48003C20F8E7D0F8C03301EB8100C20010460F
:101E58001A4492F8272032B901EB8101CA001344D1
:101E680093F83D007047034493F83C00704708B569
:101E780001F032FB08BD18B1022803D002207047D8
:101E8800002070470120704708B5D0F8C00300F063
:101E980016FEFFF7F0FF08BD08B5D0F8C00300F044
:101EA80024FEFFF7E8FF08BD08B5D0F8C00300F02E
:101EB8002EFEFFF7E0FF08BD10B584B0D0F8C003D0
:101EC800BDF8204002949DF81C4001949DF81840EC
:101ED800009400F0FBF8FFF7CEFF04B010BD08B582
:101EE800D0F8C00300F033F9FFF7C5FF08BD10B5FF
:101EF80084B0D0F8C0039DF824400394BDF8204076
:101F08000294079C01949DF81840009400F06BF926
:101F1800FFF7B1FF04B010BD08B530B100224FF48F
:101F28008061034802F09FF808BD0122F7E700BF6F
:101F3800000801407047FEE7FEE7FEE7FEE770474E
:101F48007047704708B501F0B5FA08BD08B50248F2
:101F580002F0C5F908BD00BF406E002070B59CB006
:101F68000E4802F0BCF908F09FFF08B91CB070BD1C
:101F78000DAE304608F06CFA6C4611AD0FCD0FC4AB
:101F88000FCD0FC495E8070084E8070096E80F0016
:101F980008F01EFF08F078FAE8E700BF006E00209E
:101FA80008B5034802F09BF90BF09CF808BD00BF88
:101FB800806D002070B582B00B4802F090F90BF0EC
:101FC800ADFC04460BF0B0FC05460BF0B3FC06462E
:101FD8000BF0B6FC009033462A46214603480BF026
:101FE800CDFD02B070BD00BFC06D0020583701089C
:101FF80008B5024800F0C2FC08BD00BF8872002086
:1020080082B00E4B9A6942F001029A619A6902F015
:1020180001020092009ADA6942F08052DA61DB69C3
:1020280003F080530193019B054A536823F0E06352
:1020380043F08063536002B0704700BF0010024055
:1020480000000140F8B50668346A04F00F07C4F3CD
:102058004343C4F30A14022B34D19CB37B1C03EB17
:102068008303DA000244916861B30546224630468C
:1020780000F0D8FD791C8B005818C2002A449368D8
:1020880023449360BA003A44D3002B449A6B224409
:102098009A6306EB4713D3F810150B4A0A408AB126
:1020A800D3F8002522F0804242F00042C3F8002510
:1020B800BB00D919CA002A4492F83C3083F00103C6
:1020C80082F83C30F8BD00BF0000F81F2DE9F04150
:1020D80084B09DF828709DF82CC0BDF830E090F8C9
:1020E8007C42012C31D00446012084F87C024FEA5E
:1020F800810808EB0105E800204480F824304D1CD5
:1021080005EB8505EE002644A6F804E080F82510C6
:1021180080F82BC002F07F0580F82650D50980F89A
:10212800275008EB0100C500254485F82870CDF834
:1021380008E0CDF804C00097206800F061FE002395
:1021480084F87C3204B0BDE8F0810220FAE790F808
:102158007C32012B0BD010B50446012380F87C3269
:10216800006800F0B7FF002084F87C0210BD022050
:102178007047002835D0F0B587B0044690F87D3216
:1021880053B3032384F87D32206800F0F6FC25461B
:1021980055F810CB6E460FCD0FC62B683360271D40
:1021A80097E80E00604600F0CEFC0121206800F0A0
:1021B800EAFC254655F810CB6E460FCD0FC62B68A6
:1021C800336097E80E00604600F048FD012384F86C
:1021D8007D32002007B0F0BD80F87C32FFF780FD2B
:1021E800CFE701207047F8B59DF81870BDF820605A
:1021F8009DF824C08D000D44EC00044484F8272089
:1022080084F82B306FB94C1C04EB8404E5000544BA
:102218000324AC71032B00F2B380DFE803F00AAAB1
:102228003E7B4C1C04EB8404E50005440224AC719D
:10223800F0E7012F40F0A480002A40F0A18036B9D1
:1022480001EB8102D3000344012283F83D2001EB16
:102258008102D300034493F83D30B3B94B1C03EB20
:102268008303DA0002440023937101EB8102D30057
:10227800034493F84830022B00F0828001EB81027E
:10228800D300034483F829C07AE04B1C03EB830393
:10229800DA00024402239371E7E722BB01EB8102D3
:1022A800D300034493F83D30ABB94B1C03EB8303D5
:1022B800DA0002440023937101EB8102D300034446
:1022C80093F84830022B5BD001EB8102D300034422
:1022D80083F829C054E04B1C03EB8303DA00024463
:1022E80002239371E8E701EB8102D300034493F8DA
:1022F8003C303BB94B1C03EB8303DA000244002358
:1023080093713DE04B1C03EB8303DA000244022384
:10231800937135E0B2B901EB8102D300034493F81D
:102328003D303BB94B1C03EB8303DA000244002326
:10233800937125E04B1C03EB8303DA00024402236C
:1023480093711DE001EB8102D300034493F83C3004
:102358003BB94B1C03EB8303DA000244002393715F
:102368000EE04B1C03EB8303DA0002440223937153
:1023780006E04B1C03EB8303DA000244002393714D
:102388004B1C03EB8303DA000244079B93608A002B
:102398005418E30003445E63002483F848409C63B8
:1023A80083F8251083F849401144CB0003F120013C
:1023B80001440431006800F08BFDF8BD30B583B0EE
:1023C80005460468002301930093D4F84034019330
:1023D800D4F840340093009B23F02E030093019B14
:1023E80013F0020F07D0019B13F0010F29D1009BB6
:1023F80043F002030093019B13F0080F14D0009BD5
:1024080043F008030093019B13F0040F25D0019BB0
:1024180003F4C023B3F5802F1AD00121286800F0F7
:1024280081FC2846FFF798FC019B13F0200F03D08E
:10243800009B43F020030093009BC4F8403403B092
:1024480030BDA36923F00053A361FFF785FCCEE7F5
:102458000221286800F066FCE3E7D4F8403423F052
:102468002E03C4F840342A68936943F000539361FB
:10247800DAE7F8B506460D46076807EB411707F592
:10248800A064A36813F0040F31D00423A360E368A9
:1024980043F00203E360A36813F4007F5DD1A368EF
:1024A80013F0010F7AD0AA002A44D3003344012242
:1024B80083F8492000215964A26093F82B30002B3F
:1024C80057D0022B55D0032B5DD1D7F8003543F0F8
:1024D8000053C7F8003505EB8502D30033440122C9
:1024E80083F8482029463046FFF742FC4BE0A368B2
:1024F80013F0200F02D02023A360CCE7A36813F0C9
:10250800080F17D1A36813F4806FC4D0E36843F0B1
:102518000203E360006800F0DDFD1023A36005EB13
:102528008502D3003344082283F849204FF480639E
:10253800A360B0E7E36843F00203E36001EB8102C4
:10254800D3000344052283F849201023A3600823FD
:10255800A360006800F0BEFD9DE7E36843F0020356
:10256800E3602946306800F0B5FD4FF40073A360BE
:1025780013E0E36843F00203E3602946306800F0A3
:10258800A9FD1023A360AB005919CA00324492F880
:102598003C3083F0010382F83C30F8BDA36813F0A7
:1025A800020F50D0E36823F00203E36005EB8502D5
:1025B800D300334493F84930012B20D0052B32D077
:1025C800062B01D0082B21D1AA002A44D30033447A
:1025D8005A6C511C5964032A2DD9AA002A44D300E5
:1025E800334400225A64042283F84820D7F800357F
:1025F80023F0804343F00043C7F8003506E005EBBD
:102608008502D3003344012283F848200223A360C3
:1026180005EB8502D300334493F848202946304619
:10262800FFF7A6FBB9E705EB8502D3003344052283
:1026380083F84820EAE705EB8502D30033440222F9
:1026480083F84820D2E7A36813F0800F20D1A3684D
:1026580013F0100FA1D005EB8502D300334493F893
:102668002B30032B2CD00BB1022B07D1D7F8003518
:1026780023F0804343F00043C7F8003505EB850598
:10268800EB001E44032386F849301023A36084E737
:10269800E36843F00203E360AB005919CA0032440F
:1026A800516C013151642B44DA003244062382F81C
:1026B80049302946306800F00DFD8023A3606CE79F
:1026C800E36843F00203E3602946306800F002FD46
:1026D800D4E7F8B5036803EB411303F5A064A268D7
:1026E80012F0040F24D10E460546A26812F0200FFE
:1026F80025D02023A36001EB8102D300034493F883
:102708002930012B1AD18F007A18D30003440422F0
:1027180083F84920E36843F00203E360006800F0AF
:10272800D9FCB919C8002844022380F8483005E0CC
:102738000423A360E36843F00203E360F8BDA268E2
:1027480012F0400F56D1A26812F4007F69D1A26836
:1027580012F0010F70D1A26812F0080F40F08180CA
:10276800A26812F0100F40F08D80A26812F0800F5E
:1027780040F09E80A26812F4806F40F0AA80A268A0
:1027880012F0020FDAD0E26822F00202E26001EBF6
:102798008101CA001146024492F84920012A00F03A
:1027A800AC80032A00F0C880042A00F0CD80052AF6
:1027B80000F0D580062A02D0082A40F0A780B10090
:1027C8003144CA002A44516C481C5064032940F221
:1027D800CE80282202FB065200215164042182F88F
:1027E8004810D3F8002522F0804242F00042C3F896
:1027F80000258BE08B005918CA000244042182F896
:1028080049103344DA00024400235364E36843F078
:102818000203E3603146006800F05CFC4023A360DB
:102828008CE7E36843F00203E360006800F052FCC1
:102838004FF40073A36081E78F007A18D300034434
:1028480000225A64E36843F00203E360006800F082
:1028580041FC0123A360B919C800284480F8493015
:102868006CE70823A360E36843F00203E3600068B1
:1028780000F030FC06EB8601C8002844052380F8E8
:1028880049305BE78F007A18D300034400225A646A
:10289800E36843F00203E360006800F01BFCB91929
:1028A800C8002844032380F849301023A36045E773
:1028B800E36843F00203E360006800F00BFC06EBFA
:1028C8008601CB002B44062283F849208023A3608D
:1028D80034E7E36843F00203E360006800F0FAFBC2
:1028E8001023A3604FF48063A36006EB8601CB003E
:1028F8002B44082283F8492020E70B460344012291
:1029080083F8482093F82B30022B0CD00223A360C5
:1029180006EB8602D3002B4493F84820314628461C
:10292800FFF726FA0AE70B46034493F83D2082F0A6
:10293800010283F83D20E9E706EB8602D300034451
:10294800022283F84820E1E7B2003244D30003446E
:10295800022283F84820002283F82920D6E706EBD4
:102968008602D3000344052283F84820CEE72822B4
:1029780002FB0652022182F8481032E7F8B50446F5
:102988000568284600F065F9012800D0F8BD2068E0
:1029980000F05BF90028F9D0206800F056F910F42F
:1029A800001F03D023684FF400125A61206800F01A
:1029B8004CF910F4801F03D023684FF480125A6139
:1029C800206800F042F910F0806F03D023684FF0C0
:1029D80080625A61206800F038F910F0020F02D0C6
:1029E800236802225A61206800F02FF910F0005F76
:1029F80025D1206800F029F910F0807F31D12068B6
:102A080000F023F910F0080F2FD1206800F01DF90D
:102A180010F0007F30D1206800F017F910F0100F87
:102A2800B4D02268936923F0100393612046FFF71E
:102A380009FB2268936943F010039361A6E7D5F870
:102A4800403423F02E03C5F840342046FFF78AF9B6
:102A58000121206800F066F923684FF000525A619E
:102A6800C7E72046FFF7AAFCC9E72046FFF76EF93B
:102A7800236808225A61C8E7206800F01DFB074652
:102A8800002604E0F1B22046FFF723FE0136A368D2
:102A9800B3420FD90123B3403B42F7D005EB4613AD
:102AA800D3F8003513F4004FECD0F1B22046FFF70D
:102AB800E0FCEBE723684FF000725A61ABE738B5EA
:102AC80090F87C32012B0ED00446012580F87C5208
:102AD800006800F04CF82946206800F05EF90020F4
:102AE80084F87C0238BD0220FCE790F87C32012B88
:102AF8000BD010B50446012380F87C32006800F042
:102B0800E8FB002084F87C0210BD0220704708B55D
:102B1800006800F026F908BD01EB8101CB001844DC
:102B280090F84800704701EB8101CB001844806B96
:102B3800704708B5006800F05EF908BD08B5006880
:102B480000F04EF908BD84B038B5044605AD85E8F7
:102B58000E00C36843F04003C36000F041FC4FF42B
:102B68008033A3630020BDE8384004B07047836811
:102B780043F00103836000207047836823F001035A
:102B880083600020704708B5C36823F0C043C36062
:102B9800012909D019B9C36843F08043C3603220C2
:102BA80000F09AFC002008BDC36843F00053C360DE
:102BB800F5E70000890141F020010161002301339C
:102BC800054A934205D8026912F0200FF7D1002078
:102BD80070470320704700BF400D030010230361B6
:102BE80000230133054A934205D8026912F0100FF9
:102BF800F7D1002070470320704700BF400D030045
:102C080070B403339B10002507E000EB023404F591
:102C1800805451F8046B266001359D42F5D300209D
:102C280070BC704703329210002393420BD210B449
:102C380000F58054246841F8044B01339342F7D3DC
:102C4800084610BC704708467047426980691040C2
:102C58007047406900F001007047000084B038B543
:102C6800044605A880E80E0025460023C4F8003E67
:102C7800A36B23F48023A363A36B23F40023A36330
:102C8800079B032B0ED0D4F8003423F00403C4F8B8
:102C9800003410212046FFF78DFF2046FFF79EFFE6
:102CA800002213E0B4F1A04FEDD0D4F8003443F083
:102CB8000403C4F80034ECE705EB42134FF0FF318E
:102CC800C3F808150021C3F80C150132069B93427E
:102CD800F2D80121204600F060F8C82000F0FCFB83
:102CE8000023A3614FF0FF336361B4F1A04F0CD010
:102CF800A36943F01003A361A269084B1343A361BE
:102D08000020BDE8384004B070478023636203F5B3
:102D1800C003A362024BC4F80031E9E7080020A30E
:102D2800E000400010B400F58064D0F8003423F0CF
:102D38000303C0F80034D0F8003401F00302134351
:102D4800C0F80034012904D0022906D0002010BCA4
:102D580070474BF680336360F8E741F27073636045
:102D6800F4E730B583B0044600250195D0F8403427
:102D78000193019B23F02E030193019B43F480737D
:102D8800C0F840340A2000F0A7FB019B23F48073AD
:102D9800C4F84034284603B030BD82B00023019304
:102DA800D0F840340193019B23F02E030193019B3B
:102DB80013F4805F01D101290CD0019B13F4805FCB
:102DC80005D021B9019B23F48053C0F8403400207A
:102DD80002B07047019B43F48053C0F84034ECE7DD
:102DE80082B000230193D0F8403401930198C0F3D6
:102DF800414002B0704700F58060806880B270473B
:102E0800F0B49DF8144000EB411505F5A0664FF0AD
:102E1800FF37B760032C09D8DFE804F00245023A0F
:102E280040F29D47F76012F0800F2CD1D0F818645B
:102E3800012707FA01F13143C0F81814816941F0FC
:102E4800007181619B0503F0FE53D10201F4F0414A
:102E58000B4352B202F4004213439DF81020022A99
:102E68002CD000221343A20402F440221343BDF8DD
:102E78001820C2F30A021343C5F80035032C20D0EA
:102E88000020F0BC7047F76847F48077F760CDE71B
:102E980040F29D67F76012F0800FC7D0F76847F4DB
:102EA8008077F760C2E740F22527F76012F0800FBD
:102EB800BCD0F76847F4C077F760B7E74FF4003243
:102EC800D0E7D5F8003543F00053C5F80035D7E70B
:102ED80080B586B000AF7860396000237B75002329
:102EE8007B820023FB824FF480733B820023FB60CC
:102EF8003B681B69002B19D03B681B693A6812892B
:102F08001344013B3A681289B3FBF2F3FB82FA8A55
:102F18003B8A9A420CD93B8AFB82FB8A3A6812891F
:102F280002FB03F31A463B681A6101E00123FB82A6
:102F38003B68DB78002B07D0FB8A3A68128902FBD2
:102F480003F31A463B681A613B681B69C3F3120214
:102F5800FB8ADB041946574B0B401A433B689B7AA4
:102F68005B0703F0C0433968497848017968014430
:102F780001F5A06113430B617B6803F580639B68CF
:102F880003F00103002B0CBF01230023DBB27B7588
:102F98003B685B785A017B68134403F5A0631B68A0
:102FA8003A68527851017A680A4402F5A06223F01F
:102FB800005313603B685B785A017B68134403F540
:102FC800A0631B687A7D520710463A68527851010F
:102FD8007A680A4402F5A062034313603B685B7891
:102FE8005A017B68134403F5A0631B68FB60FB6808
:102FF80023F08043FB60FB6843F00043FB603B68C1
:103008005B785A017B68134403F5A0631A46FB6892
:1030180013603B68DB78002B47D13B681B69002BAA
:1030280043D03B68DB79032B30D801A252F823F058
:10303800493000086D300008493000086D3000083C
:103048003B681B6903339B087B827A8A7B68DB6A4F
:103058009BB29A421CD97B689B6943F020027B682B
:103068009A6115E03B681B6903339B087B827A8A67
:103078007B6803F580631B699BB29A420AD97B6817
:103088009B6943F080627B689A6103E000BF02E0BD
:1030980000BF00E000BF3B68D9683B685A783B68CE
:1030A8001B699BB27868FFF7ABFD002318461837F9
:1030B800BD4680BD0000F81F80B483B000AF7860C3
:1030C8007B6803F580635B699BB218460C37BD4685
:1030D80080BC704780B485B000AF78600B46FB7049
:1030E8000023FB60FB785A017B68134403F5A06357
:1030F8001B689B0C03F00303002B0BD0FB785A01D1
:103108007B68134403F5A0631B689B0C03F003035F
:10311800022B6BD1FB785A017B68134403F5A0633B
:103128001B68FA7851017A680A4402F5A06243F0F4
:10313800804313607B68DB6A9BB2002B43D1FB782A
:103148005A017B68134403F5A0631B68FA785101A0
:103158007A680A4402F5A06223F000431360FB7802
:103168005A017B68134403F5A0631B68FA78510180
:103178007A680A4402F5A06243F000431360FB78C2
:103188005A017B68134403F5A0631B68FA78510160
:103198007A680A4402F5A06223F400431360FB68CE
:1031A8000133FB60FB68B3F57A7F1DD8FB785A01C1
:1031B8007B68134403F5A0631B6803F00043B3F175
:1031C800004FECD07FE0FB785A017B68134403F58D
:1031D800A0631B68FA7851017A680A4402F5A06274
:1031E80043F0004313606EE000BF6CE0FB785A01C7
:1031F8007B68134403F5A0631B68FA7851017A6869
:103208000A4402F5A06243F0804313607B6803F52B
:1032180080631B699BB2002B43D1FB785A017B6802
:10322800134403F5A0631B68FA7851017A680A44CD
:1032380002F5A06223F000431360FB785A017B6813
:10324800134403F5A0631B68FA7851017A680A44AD
:1032580002F5A06243F000431360FB785A017B68D3
:10326800134403F5A0631B68FA7851017A680A448D
:1032780002F5A06223F400431360FB680133FB608E
:10328800FB68B3F57A7F1DD8FB785A017B68134435
:1032980003F5A0631B6803F00043B3F1004FECD0C3
:1032A80011E0FB785A017B68134403F5A0631B689F
:1032B800FA7851017A680A4402F5A06243F00043A3
:1032C800136000E000BF002318461437BD4680BCD9
:1032D800704780B586B000AF786000233B6100235B
:1032E800FB607868FFF749FC10217868FFF762FCFB
:1032F8007868FFF773FC0023FB751FE0FB7D5A011C
:103308007B68134403F5A0631B68FB60FB6843F00C
:103318008043FB60FB6823F00043FB60FB6823F4F9
:103328000043FB60FB7D5A017B68134403F5A063EF
:103338001A46FB681360FB7D0133FB75FB7D0F2B81
:10334800DCD90023FB7534E0FB7D5A017B6813440C
:1033580003F5A0631B68FB60FB6843F08043FB60D8
:10336800FB6843F00043FB60FB6823F40043FB6009
:10337800FB7D5A017B68134403F5A0631A46FB687A
:1033880013603B6901333B613B69B3F57A7F0CD825
:10339800FB7D5A017B68134403F5A0631B6803F0A7
:1033A8000043B3F1004FECD000E000BFFB7D0133D8
:1033B800FB75FB7D0F2BC7D97B6803F580631A4625
:1033C8004FF0FF3353617B684FF0FF325A617868E2
:1033D800FFF7CDFB002318461837BD4680BD000017
:1033E80080B485B000AF78600023FB60FB680133D0
:1033F800FB60FB68124A934201D903231BE07B68F8
:103408001B69002BF2DA0023FB607B681B6943F021
:1034180001027B681A61FB680133FB60FB68084A9C
:10342800934201D9032306E07B681B6903F001037B
:10343800012BF0D0002318461437BD4680BC7047D6
:10344800400D030010B504460E4B18784FF47A73FC
:10345800B3FBF0F30C4A1068B0FBF3F000F05CFE2D
:1034680068B90F2C01D901200AE0002221464FF04B
:10347800FF3000F011FE054B1C60002000E0012029
:1034880010BD00BF0000002008000020040000203C
:1034980008B5074A136843F010031360032000F0CF
:1034A800E9FD0020FFF7CEFFFEF7AAFD002008BDCA
:1034B80000200240034A1168034B1B780B44136039
:1034C800704700BF0C75002000000020014B1868F1
:1034D800704700BF0C75002038B50446FFF7F6FFAB
:1034E8000546B4F1FF3F02D0044B1B781C44FFF79C
:1034F800EDFF401BA042FAD338BD00BF00000020FA
:1035080082B0084B1B68084AA2FB03235B0A00FB36
:1035180003F0019000BF019B5A1E0192002BF9D1C4
:1035280002B0704708000020D34D621070B582B019
:103538000446036813F0010F2CD0AB4B5B6803F013
:103548000C03042B1DD0A84B5B6803F00C03082B5D
:1035580012D0A368B3F5803F41D0002B55D103F1B9
:10356800804303F504331A6822F480321A601A681B
:1035780022F480221A6037E09B4B5B6813F4803F8B
:10358800E7D0994B1B6813F4003F03D0A368002BC6
:1035980000F01F82236813F0020F76D0924B5B680D
:1035A80013F00C0F5FD0904B5B6803F00C03082BF3
:1035B80054D06369002B00F08A808C4B01221A607A
:1035C800FFF784FF0546884B1B6813F0020F75D17F
:1035D800FFF77CFF401B0228F5D90320FCE1824A53
:1035E800136843F480331360A36843B3FFF76EFF97
:1035F80005467D4B1B6813F4003FCBD1FFF766FFF0
:10360800401B6428F5D90320E6E1B3F5A02F09D0C3
:10361800754B1A6822F480321A601A6822F48022E4
:103628001A60E1E703F18043A3F53C331A6842F4DA
:1036380080221A601A6842F480321A60D4E7FFF7D1
:1036480045FF0546684B1B6813F4003FA2D0FFF7FF
:103658003DFF401B6428F5D90320BDE1624B5B6840
:1036680013F4803FA5D1604B1B6813F0020F04D000
:103678006369012B01D00120AEE15B4A136823F096
:10368800F803A16943EAC1031360236813F0080F24
:1036980032D0E369002B5BD0554B01221A60FFF74B
:1036A80015FF0546504B5B6A13F0020F21D1FFF757
:1036B8000DFF401B0228F5D903208DE14A4A136803
:1036C80023F0F803A16943EAC1031360DDE7474B20
:1036D80000221A60FFF7FAFE0546434B1B6813F0F9
:1036E800020FD2D0FFF7F2FE401B0228F5D90320C3
:1036F80072E10120FFF704FF236813F0040F00F0C4
:103708009780394BDB6913F0805F33D1364BDA6928
:1037180042F08052DA61DB6903F080530193019B28
:103728000125344B1B6813F4807F25D02369012BB6
:1037380036D0002B4CD103F1804303F504331A6AC9
:1037480022F001021A621A6A22F004021A622CE0BC
:10375800274B00221A60FFF7B9FE0546224B5B6A29
:1037680013F0020FC8D0FFF7B1FE401B0228F5D9AD
:10377800032031E10025D4E71E4A136843F480731F
:103788001360FFF7A3FE06461A4B1B6813F4807FED
:10379800CCD1FFF79BFE801B6428F5D903201BE1E1
:1037A800114A136A43F001031362236973B3FFF7E5
:1037B8008DFE06460C4B1B6A13F0020F37D1FFF73C
:1037C80085FE801B41F288339842F3D9032003E138
:1037D800052B11D0044B1A6A22F001021A621A6AE8
:1037E80022F004021A62E0E70010024000004242A0
:1037F8008004424200700040794B1A6A42F0040289
:103808001A621A6A42F001021A62CEE7FFF75EFEF8
:103818000646734B1B6A13F0020F08D0FFF756FEDB
:10382800801B41F288339842F3D90320D4E0EDB9E4
:10383800E36A002B6FD06A4A526812F4803F05D0C1
:10384800674A526802F00C02082A15D0022B4BD1A5
:10385800634B1B6813F0805F15D0614BDB6A03F084
:10386800F003626B93420ED00120B5E05C4AD36945
:1038780023F08053D361DBE7594AD26A12F4803FC0
:10388800E4D00120A8E0574B00221A60FFF71EFE83
:103898000546534B1B6813F0006F06D0FFF716FE62
:1038A800401B6428F5D9032096E04D4AD36A23F0DB
:1038B800F003616B0B43D362D36A23F47063216B0B
:1038C8000B43D362474B01221A60FFF7FFFD054601
:1038D800434B1B6813F0006F1DD1FFF7F7FD401B2A
:1038E8006428F5D9032077E03D4AD36A23F480336E
:1038F800D3623C4B00221A60FFF7E8FD0546384BBF
:103908001B6813F0006F06D0FFF7E0FD401B64282A
:10391800F5D9032060E0236A002B5CD0304A526856
:1039280002F00C02082A59D0022B11D02E4B00228B
:103938001A60FFF7CBFD0446294B1B6813F0007F84
:1039480045D0FFF7C3FD001B0228F5D9032043E04B
:10395800254B00221A60FFF7B9FD0546204B1B686E
:1039680013F0007F06D0FFF7B1FD401B0228F5D900
:10397800032031E0636AB3F5803F1AD018494B68D9
:1039880023F47413626AA06A024313434B60164B14
:1039980001221A60FFF79AFD0446114B1B6813F0C9
:1039A800007F12D1FFF792FD001B0228F5D90320F2
:1039B80012E00B4AD36A61680B43D362D36A23F0DF
:1039C8000F03E1680B43D362D8E7002004E000202E
:1039D80002E0012000E0002002B070BD0120FBE7FA
:1039E8000010024068004242600042422DE9F04F58
:1039F80089B0334C04AD94E80F0007C52B806D46A1
:103A0800103494E80F0085E80F002E4B5B6803F034
:103A18000C02082A52D1C3F3834208A90A4412F8B7
:103A2800104C13F4803F43D02649CB6A03F00F03B0
:103A380008AA134413F8202CCB6A13F4803F31D022
:103A4800CB6AC3F303130133C86AC0F303200230FF
:103A5800A0FB046770017901801B61EB07018B46AD
:103A68004FEA811949EA90694FEA8018B8EB000AD1
:103A780069EB0B0B4FEACB0545EA5A754FEACA0CBE
:103A88001CEB060045EB07014D0245EAD0554602FE
:103A980030462946A3FB0223FDF7DEFB0D2C0AD195
:103AA800400808E0084800FB04F0B0FBF2F0F5E736
:103AB800064800FB04F009B0BDE8F08F0248FAE7B9
:103AC800003701080010024000127A0000093D008A
:103AD800624B1B6803F007038B420CD25F4A1368E2
:103AE80023F007030B431360136803F007038B42AB
:103AF80001D00120704770B5036813F0020F17D08A
:103B080013F0040F04D0564A536843F4E06353603B
:103B1800036813F0080F04D0514A536843F4605304
:103B280053604F4A536823F0F0038468234353607B
:103B38000D460446036813F0010F52D04368012B69
:103B480023D0022B28D0464A126812F0020F00F048
:103B5800828043494A6822F0030213434B60FFF70F
:103B6800B5FC06466368012B1DD0022B2AD03C4BBE
:103B78005B6813F00C0F34D0FFF7A8FC801B41F2F0
:103B880088339842F3D9032064E0354A126812F466
:103B9800003FDED101205DE0314A126812F0007F5B
:103BA800D7D1012056E02E4B5B6803F00C03042BA1
:103BB80017D0FFF78BFC801B41F288339842F2D96B
:103BC800032047E0264B5B6803F00C03082B08D062
:103BD800FFF77CFC801B41F288339842F2D903201E
:103BE80038E01E4B1B6803F00703AB420CD91B4A95
:103BF800136823F007032B431360136803F00703CC
:103C0800AB4201D0012025E0236813F0040F06D051
:103C1800134A536823F4E063E1680B435360236855
:103C280013F0080F07D00E4A536823F46053216934
:103C380043EAC1035360FFF7D9FE094B5B68C3F33E
:103C48000313084AD35CD840074B18600020FFF7DD
:103C5800F9FB002070BD0120FCE700BF00200240F6
:103C6800001002406837010808000020014B18685E
:103C7800704700BF0800002008B5FFF7F7FF044BA6
:103C88005B68C3F30223034AD35CD84008BD00BF76
:103C9800001002407837010808B5FFF7E7FF044B2A
:103CA8005B68C3F3C223034AD35CD84008BD00BF96
:103CB800001002407837010870B582B004460368E6
:103CC80013F0010F34D06B4BDB6913F0805F6DD1BB
:103CD800684BDA6942F08052DA61DB6903F080539D
:103CE8000193019B0125644B1B6813F4807F5FD00F
:103CF800604B1B6A13F4407311D0626802F440727F
:103D08009A420CD05B4A136A23F440705B4901263F
:103D18000E6000260E60106213F0010F5CD1554A48
:103D2800136A23F4407361680B431362002D64D156
:103D3800236813F0020F06D04E4A536823F4404319
:103D4800A1680B435360236813F0040F06D0494A57
:103D5800D36A23F40033E1680B43D362236813F07A
:103D6800080F06D0434AD36A23F4802321690B4302
:103D7800D362404BDB6A13F4003F04D13D4BDB6A4E
:103D880013F4802F66D03B4B1B6813F0805F58D12B
:103D9800384B1B6813F0806F34D0364BDB6A03F066
:103DA800F003A26993422DD001205FE000259AE735
:103DB800314A136843F480731360FFF787FB0646A4
:103DC8002D4B1B6813F4807F92D1FFF77FFB801B7C
:103DD8006428F5D9032049E0FFF778FB0646254B10
:103DE8001B6A13F0020F9AD1FFF770FB801B41F298
:103DF80088339842F3D9032038E0D36923F08053FD
:103E0800D36195E71B4AD36A23F0F003A1690B43FA
:103E1800D362D36A23F4704361690B43D362184BAE
:103E280001221A60FFF752FB0546124B1B6813F07C
:103E3800005F0FD1FFF74AFB401B6428F5D9032028
:103E480014E00C4BDB6A03F470436269934201D0BF
:103E580001200BE0236813F0100F09D0054A5368BE
:103E680023F48003E1690B435360002002B070BD66
:103E78000020FBE70010024000700040400442426E
:103E880070004242F0B482B000263546A1E0002C12
:103E980059D0012C00D1CE68FF2B68D88446FF2B5F
:103EA80068D8AC00DCF800200F27A74022EA0702F8
:103EB80006FA04F42243CCF800204A6812F0805F26
:103EC80000F086805E4A946944F001049461926926
:103ED80002F001020192019AAC08A71C594A52F853
:103EE800272005F00307BF004FF00F0C0CFA07FC62
:103EF80022EA0C0C544A904242D002F58062904269
:103F08007FD002F5806290427DD002F580629042B7
:103F180034D0042235E04D4FBC4214D00BD94C4F5D
:103F2800BC4210D007F58037BC420CD0A7F58017EB
:103F3800BC42B1D107E0A7F58017BC4203D007F512
:103F48008037BC42A8D18C687CB1012C08D0426172
:103F58000826A1E7CE6808369EE7CE680C369BE7B0
:103F68000261082698E7002696E7042694E700F100
:103F7800040C94E7A5F10804A40093E7032200E0E9
:103F88000022BA4042EA0C0202342E4F47F824209D
:103F98004A6812F4803F38D02E4C22681A432260B7
:103FA8004A6812F4003F36D02A4C62681A436260AD
:103FB8004A6812F4801F34D0264CA2681A43A260C3
:103FC8004A6812F4001F32D0224CE2681343E360BF
:103FD80001350F2D31D80122AA400B6813409A42AF
:103FE800F6D14C68122CB8D095D8022CB2D07FF6F6
:103FF8004EAF032CB7D0112C7FF44EAFCE680436E9
:104008004AE70122BDE70222BBE7124C226822EAF6
:1040180003022260C4E70F4C626822EA030262606E
:10402800C6E70C4CA26822EA0302A260C8E7094C62
:10403800E26822EA0303E360CAE702B0F0BC704713
:10404800001002400000014000080140000021105B
:1040580000003110000401408368194201D100209A
:1040680070470120704712B9090401617047016166
:1040780070470000074AD36823F4E0631B041B0C55
:10408800000200F4E060184340F0BF6040F40030E4
:10409800D060704700ED00E030B4174BDB68C3F325
:1040A8000223C3F10704042C28BF04241D1D062D78
:1040B80018D9033B4FF0FF3505FA04F421EA04014F
:1040C800994005FA03F322EA0303194300280BDB9E
:1040D8000901C9B200F1604000F5614080F80013A1
:1040E80030BC70470023E5E700F00F000901C9B2B2
:1040F800024B1954F4E700BF00ED00E014ED00E0B6
:1041080000F01F02400901239340024A42F8203080
:10411800704700BF00E100E00138B0F1807F0AD2AB
:10412800064B5860064AF02182F823100020986058
:1041380007221A6070470120704700BF10E000E0B6
:1041480000ED00E010B4036A046A24F0010404627C
:10415800846924F0F00444EA021223F00A030B43B2
:104168008261036210BC704710B4036A23F0100325
:1041780003628469036A24F4704444EA023223F037
:10418800A00343EA01138261036210BC704783688D
:1041980023F0700341F0070119438160704710B4A0
:1041A800846824F47F4442EA03230B432343836057
:1041B80010BC70470268D36843F00103D3600268FB
:1041C800136843F0010313600020704790F83C30F7
:1041D800012B7DD010B50446012380F83C30022322
:1041E80080F83D300268936823F47F4323F0770317
:1041F80093600B68402B57D010D9702B3ED01FD836
:10420800502B47D0602B32D1CA6849680068FFF745
:10421800ABFF60212068FFF7BAFF28E0102B4DD0D4
:1042280008D9202B4FD0302B21D130210068FFF73F
:10423800AEFF1CE0DBB900210068FFF7A8FF16E01D
:10424800B3F5805F0ED0B3F5005F10D1CB684A6834
:1042580089680068FFF7A3FF2268936843F48043E6
:10426800936004E00268936823F0070393600123D6
:1042780084F83D30002084F83C0010BDCB684A68C3
:1042880089680068FFF78BFF2268936843F077031B
:104298009360ECE7CA6849680068FFF753FF50214C
:1042A8002068FFF774FFE2E7CA6849680068FFF70B
:1042B80049FF40212068FFF76AFFD8E7102100680E
:1042C800FFF765FFD3E720210068FFF760FFCEE71F
:1042D800022070477047704770477047704710B5A5
:1042E800044603681A6912F0020F11D0DA6812F056
:1042F800020F0DD06FF002021A61012303770368E1
:104308009B6913F0030F70D0FFF7E6FF00232377B4
:1043180023681A6912F0040F12D0DA6812F0040F39
:104328000ED06FF004021A610223237723689B6979
:1043380013F4407F5FD02046FFF7CEFF002323779A
:1043480023681A6912F0080F12D0DA6812F0080F01
:104358000ED06FF008021A61042323772368DB6903
:1043680013F0030F4ED02046FFF7B6FF0023237744
:1043780023681A6912F0100F12D0DA6812F0100FC1
:104388000ED06FF010021A61082323772368DB69C7
:1043980013F4407F3DD02046FFF79EFF002323778C
:1043A80023681A6912F0010F03D0DA6812F0010FBE
:1043B80036D123681A6912F0800F03D0DA6812F038
:1043C800800F34D123681A6912F0400F03D0DA68DD
:1043D80012F0400F32D123681A6912F0200F03D06F
:1043E800DA6812F0200F30D110BDFFF774FF2046B5
:1043F800FFF773FF8AE72046FFF76DFF2046FFF7B8
:104408006CFF9BE72046FFF766FF2046FFF765FF36
:10441800ACE72046FFF75FFF2046FFF75EFFBDE7EA
:104428006FF001021A612046FFF754FFC1E76FF0F1
:1044380080021A61204600F094F8C3E76FF040024A
:104448001A612046FFF74AFFC5E76FF020021A619C
:10445800204600F085F8C7E703681F4A90420ED04F
:10446800B0F1804F0BD0A2F59432904207D002F5FC
:104478008062904203D002F58062904203D123F01B
:1044880070034A681343144A90420ED0B0F1804F2B
:104498000BD0A2F59432904207D002F58062904288
:1044A80003D002F58062904203D123F44073CA68B6
:1044B800134323F080034A69134303608B68C36284
:1044C8000B688362044B984202D001234361704712
:1044D8000B690363F9E700BF002C0140A8B110B5D0
:1044E800044690F83D305BB1022384F83D30211D2D
:1044F8002068FFF7B1FF012384F83D30002010BD8C
:1045080080F83C30FDF7DCFAEEE70120704790F8C0
:104518003C30012B22D030B4012280F83C20022309
:1045280080F83D300468636823F0700363600468B2
:1045380063680D682B4363600468A36823F08003F5
:10454800A3600468A36849680B43A36080F83D2012
:10455800002380F83C30184630BC70470220704772
:10456800704770472DE9F84305460268136923F43C
:104578004053C1680B43136183680269134342695E
:1045880013430168CA6822F4B05222F00C021343A4
:10459800CB600268536923F4407381690B4353610C
:1045A8000268594B9A4257D0FFF766FB00EB800030
:1045B80000EB80006C68A400B0FBF4F4534FA7FB39
:1045C800043464092601FFF757FB00EB800000EB79
:1045D80080006C68A400B0FBF4F9FFF74DFB00EB1A
:1045E800800000EB80006C68A400B0FBF4F4A7FB2B
:1045F800043464094FF0640808FB1494240132342D
:10460800A7FB0434640904F0F0043444FFF734FBD6
:1046180000EB800000EB80006E68B600B0FBF6F699
:10462800FFF72AFB00EB800000EB80006B689B0023
:10463800B0FBF3F0A7FB0030400908FB10684FEA15
:10464800081808F13208A7FB0837C7F343172B6887
:1046580027449F60BDE8F883FFF71EFB00EB80004E
:1046680000EB80006C68A400B0FBF4F4274FA7FBB4
:10467800043464092601FFF70FFB00EB800000EB10
:1046880080006C68A400B0FBF4F9FFF705FB00EBB1
:10469800800000EB80006C68A400B0FBF4F4A7FB7A
:1046A800043464094FF0640808FB1494240132347C
:1046B800A7FB0434640904F0F0043444FFF7ECFA6F
:1046C80000EB800000EB80006E68B600B0FBF6F6E9
:1046D800FFF7E2FA00EB800000EB80006B689B00BC
:1046E800B0FBF3F0A7FB0030400908FB10684FEA65
:1046F800081808F13208A7FB0837C7F343172B68D7
:1047080027449F60A6E700BF003801401F85EB5192
:104718002DE9F04105460F4616469846069C2B683B
:104728001B6837EA03030CBF01230023B3421DD1E2
:10473800B4F1FF3FF3D02CB1FEF7C8FEA0EB0800A0
:10474800A042ECD92A68D36823F4D073D3602A68CE
:10475800536923F001035361202385F8393085F824
:104768003A30002385F83830032000E00020BDE807
:10477800F08158B310B5044690F839300BB32423B0
:1047880084F839302268D36823F40053D360204674
:10479800FFF7E8FE2268136923F490431361226847
:1047A800536923F02A0353612268D36843F4005302
:1047B800D3600020E063202384F8393084F83A304D
:1047C80010BD80F83830FDF7FDF9D8E701207047B3
:1047D8002DE9F04182B01E4690F83930DBB2202B2B
:1047E80055D104460D469046002955D0002A55D08B
:1047F80090F83830012B53D0012380F8383000234B
:10480800C363212380F83930FEF760FE0746A4F819
:104818002480A4F8268010E000963B4600228021E0
:104828002046FFF775FF00283CD12B882268C3F388
:10483800080353602369C3B90235E38C9BB2B3B153
:10484800E38C013B9BB2E384A368B3F5805FE3D0BC
:1048580000963B46002280212046FFF759FF18BBEF
:104868002A7823685A600135E7E70135E5E70096BD
:104878003B46002240212046FFF74AFF0346A8B9DD
:10488800202284F83920002284F8382000E002230E
:10489800184602B0BDE8F0810123F9E70123F7E7E4
:1048A8000223F5E70323F3E70323F1E70323EFE705
:1048B800124B1A6842F001021A605968104A0A40FD
:1048C8005A601A6822F0847222F480321A601A68D8
:1048D80022F480221A605A6822F4FE025A601A688A
:1048E80022F0A0521A604FF47F029A600022DA6226
:1048F800044B4FF000629A60704700BF00100240FE
:104908000000FFF000ED00E008B5044B03EB800267
:10491800526852680344187A904708BD4004002042
:1049280008B5084B1B5C53B9064B01221A5403EB1C
:104938008002526812681844007A904708BD002027
:10494800FCE700BF4004002038B5044C04EB8005A8
:104958006D68AD680444207AA84738BD400400203B
:1049680038B5044C04EB80056D68ED680444207A82
:10497800A84738BD4004002010B5044B03EB800461
:10498800646824690344187AA04710BD40040020D5
:1049980004E00A780270013101301A46531E002AD9
:1049A800F7D1704702E0017001301A46531E002A01
:1049B800F9D1704770B40346002001E02946334618
:1049C800541E32B15E1C18784D1C0B782246C01A52
:1049D800F4D070BC704700E0013003780BB18B4213
:1049E800FAD118467047000030B400252B4601E084
:1049F80001250133012B21D803EB4304A2001D4CF0
:104A0800A258002AF4D000F580542468A242F0D1BC
:104A180003EB43029400174A2244546841F2080207
:104A280082589442E5D103EB43029400114A224490
:104A3800148941F20602825A9442DAD1022B0CD030
:104A4800B1B903EB43039A000A4B13445B89B3F5EE
:104A5800807F07D0002030BC70472DB9022905D1CE
:104A68000020F8E71020F6E70020F4E71220F2E72C
:104A78001020F0E724020020002000E00130012887
:104A880006D800EB40029300034AD358002BF5D117
:104A9800023818BF012070472402002070B4002398
:104AA80000E00133012B1FD803EB4304A200324C72
:104AB800A45800F5805212689442F2D103EB4302E5
:104AC80094002D4A2244546841F2080282589442C4
:104AD800E7D103EB43029400274A2244148941F2A8
:104AE8000602825A9442DCD1022B3BD039B103EB47
:104AF80043029000204A02445289002A39D10029F1
:104B080032D103EB430291001B4A0A445189013117
:104B180089B203EB43029000174A02445181581CA2
:104B280070BC70470133012B06D803EB4304A20085
:104B3800114CA258002AF5D1022B18D000F580524A
:104B480016680D4D5A001A4494002A192E5141F244
:104B580008040459546041F20604005B10810020E7
:104B68005081C3E70023DEE74FF48071D1E70020CE
:104B7800D6E70020D4E700BF24020020013801282E
:104B880018D800EB40039A000C4B13445B89B3F52B
:104B9800807F03D01BB1013B9BB200E0002300EBF8
:104BA80040029100054A0A4453812BB90020034A68
:104BB80050507047022070470020704724020020A0
:104BC8000023012B13D810B403EB43018A000849D2
:104BD8008A58824204D00133012BF5D910BC7047A2
:104BE80003EB43018A00024900248C50F3E7704725
:104BF8002402002041F22403C258043200F58050F8
:104C0800006841F20A03C35AB1FBF3F141F202030F
:104C1800C35CB1FBF3F1106830B1814202D3091AC9
:104C28000832F8E7506808447047CA7E8B7E43EA2A
:104C3800022300F580500278032A01D018467047F5
:104C4800487D0A7D42EA002243EA0243F6E781767C
:104C5800C1F30723C376090C0175090A417570472A
:104C6800F0B40C7804F03F04013C04EB440304EB7B
:104C780083040127002206E04FF6FF75AB421FD1DF
:104C880001320C2A0FD8124B9D5C6B1CCE5C4B5D1D
:104C980043EA0623002FEFD0FE2C0FD820F814305B
:104CA8001F460134ECE70B7813F0400F0AD0FE2CB6
:104CB8000BD8002320F81430012004E0002002E083
:104CC800002000E00120F0BC70470020FBE700BF97
:104CD80000380108F0B44B730F23CB7200250D7315
:104CE8008D76CD76561E06EB460306EB83062B46DD
:104CF80002E001350C2D11D84FF6FF74A34202D003
:104D080030F8163001360B4C645D0B5501341F0A20
:104D18000F55002BEDD14FF6FF73EAE74FF6FF74FE
:104D2800A34202D030F816300BB942F040020A70A4
:104D3800F0BC70470038010870B582B005461646C9
:104D48001C460B22FFF724FE052C11D807221DE074
:104D580001320F2A0CD803F0010101EB44045B086F
:104D680014F4803FF4D084F4883484F02104EFE70D
:104D78003388002BEAD002360022EAE7531E02A845
:104D8800024402F8081C240909D01A4604F00F034B
:104D980003F130013929F1D903F13701EEE77E211A
:104DA80002461A4402F8081C00E001349C4209D269
:104DB8002A5D202AF9D105E02021621C2955072AFD
:104DC80008D81446072BF7D802AA1A4412F8081C68
:104DD8000133F2E702B070BD01460B220020C30187
:104DE80043EA5003DBB208780344D8B20131013AF0
:104DF800F5D17047016809B10A4603E04FF0FF3367
:104E080008E0013213781F2B01D93A2BF9D13A2B3C
:104E180002D000231846704710B44C1C0B78303B66
:104E2800092B07D8A24208D153B9013202601846AB
:104E380010BC70474FF0FF33F9E74FF0FF33F6E748
:104E48004FF0FF33F3E7F8B541F20403C35C0BB945
:104E58000020F8BD044641F22C03C558074601233B
:104E68002A46014641F20100205CFFF779FD08BBA4
:104E780041F204030022E25404F581531B68EB1A43
:104E880041F21802A258934216D241F20303E65C9B
:104E9800012E0DD941F21803E3581D4401232A4677
:104EA800394641F20100205CFFF75AFD013EEFE769
:104EB8000020CEE70120CCE70020CAE770B541F218
:104EC8002C03C3588B4215D004460D46FFF7BBFF91
:104ED800064680B901232A46214641F20100205C9A
:104EE800FFF732FD10B101264FF0FF3541F22C03D8
:104EF800E55000E00026304670BD000010B50446BD
:104F080041F204030022C25441F22C034FF0FF3255
:104F1800C250FFF7D3FF88BB94F8FF2194F8FE3105
:104F280043EA02231BB2184A934229D194F8392044
:104F380094F838301B0443EA026394F8372043EAB4
:104F4800022394F83620134323F07F430F4A9342F9
:104F580018D094F8552094F854301B0443EA02639F
:104F680094F8532043EA022394F85220134323F081
:104F78007F43064A934204D0012002E0032000E068
:104F8800022010BD0020FCE755AAFFFF464154004F
:104F9800E8B108B5024600F580531B68CBB103F5AC
:104FA80080510978B9B141F20601595A41F2040019
:104FB800125A914201D0092008BD41F20102985CC1
:104FC800FFF7A2FC10F0010F07D10020F4E7092039
:104FD80070470920F0E70920EEE70920ECE7000018
:104FE8002DE9F04184B006461746002303600846C1
:104FF800FFF700FF051EC0F2CC81B94B53F82540DE
:10500800002C00F0CA81346004F580531B7883B10A
:1050180041F20103E05CFFF777FC10F0010F08D1C3
:10502800002F00F0BC8110F0040F40F0BA8100207E
:10503800B0E104F5805300221A70E8B241F201038E
:10504800E054FFF76DFC10F0010F40F0AC811FB188
:1050580010F0040F40F0A98104F580520A320221B1
:1050680041F20103E05CFFF787FC002840F09F81D4
:1050780041F20A03E35AB3F5007FC0F09A81B3F511
:10508800805F01D9012085E100212046FFF736FF26
:105098000346012800F0BF800026032B00F08B8117
:1050A800002B40F08A81227BE37A43EA022341F213
:1050B8000A02A05A834240F08281E27DA37D53EA2E
:1050C80002230DD194F8272094F826301B0443EAD4
:1050D800026394F8252043EA022394F8242013431A
:1050E80041F21802A350217C41F20302A1544A1E46
:1050F800D2B2012A00F2658103FB01F1657B41F21E
:105108000202A554002D00F05E816A1E154240F08F
:105118005C81A27C677C47EA022741F20802A75219
:105128004FEA501EB7FBFEF20EFB127292B2002A33
:1051380040F04D8194F814C0E27C52EA0C220ED162
:1051480094F823C094F82220120442EA0C6294F8DE
:1051580021C042EA0C2294F820C042EA0C0294F8DA
:105168000F8094F80EC05CEA082C00F032810CEB3A
:105178000108B7FBFEFEC6447245C0F02C81A2EBC5
:105188000E02B2FBF5F2002A00F0278140F6F57511
:10519800AA4259D801254FF6F578424500D903258A
:1051A800023241F2140844F8082041F21C0844F87D
:1051B8000860B44404F58158C8F800C0B64441F208
:1051C800280844F808E0032D40D0002F00F009819A
:1051D800614441F22407E151022D7AD152004AE09C
:1051E800002304AA02EB810242F8103C0131032992
:1051F80013D80B0103F5DF7323441A79002AEFD083
:10520800D87A9A7A120442EA0062587A42EA00226C
:105218001B7A1343E5E70021E9E700250BE0314657
:105228002046FFF76BFE034600283FF436AF0135F2
:10523800032D3FF632AF04AB03EB850353F8106C34
:10524800002EECD10223F2E70225A4E7002F40F05C
:10525800C68094F82F7094F82E10090441EA07616B
:1052680094F82D7041EA072194F82C70394341F2E3
:105278002407E15192000244013AB2FBF0F098424F
:1052880000F2B1804FF0FF3341F21002A35041F217
:105298000C02A35041F205038022E254032D08D1E9
:1052A80094F8312094F8303043EA02231BB2012BE2
:1052B8001AD004F580531D700A4A138801339BB233
:1052C800138041F20602A3522046FFF779FC002022
:1052D80060E002EB420102F0010202EB5102CAE770
:1052E800200200203C020020711C2046FFF7E6FD4A
:1052F8000028DED141F205030022E25494F8FF2190
:1053080094F8FE3143EA02231BB2384A9342D0D1C3
:10531800E278A3781B0443EA0263627843EA022333
:1053280022781343324A9342C3D194F8E72194F880
:10533800E6311B0443EA026394F8E52143EA0223B9
:1053480094F8E42113432B4A9342B2D194F8EB2109
:1053580094F8EA311B0443EA026394F8E92143EA2A
:10536800022394F8E821134341F21002A35094F861
:10537800EF2194F8EE311B0443EA026394F8ED211F
:1053880043EA022394F8EC21134341F20C02A350A0
:105398008FE70B2004B0BDE8F0810C20FAE700206D
:1053A800F8E70A20F6E70320F4E70A20F2E70120ED
:1053B800F0E70120EEE70120ECE70D20EAE70D20F9
:1053C800E8E70D20E6E70D20E4E70D20E2E70D20F1
:1053D800E0E70D20DEE70D20DCE70D20DAE70D2001
:1053E800D8E70D20D6E70D20D4E700BF55AAFFFF68
:1053F800525261417272416138B50446FFF723FD8C
:10540800054668B904F580531B78032B0AD000229F
:10541800114641F20103E05CFFF7AEFA00B1012545
:10542800284638BD41F20503E35C012BEFD141F278
:105438000A03E25A00212046FFF7B4FA552384F8FC
:10544800FE31AA2384F8FF3152232370637061234D
:10545800A3704122E270722184F8E41184F8E51106
:1054680084F8E62184F8E73141F21003E35884F820
:10547800E831C3F3072284F8E921C3F3074284F82B
:10548800EA211B0E84F8EB3141F20C03E35884F84F
:10549800EC31C3F3072284F8ED21C3F3074284F803
:1054A800EE211B0E84F8EF3141F21C03E258013261
:1054B80041F22C03E2500123214641F20100205C15
:1054C800FFF74EFA41F205030022E2549FE700007D
:1054D8002DE9F04F83B080460F460E6800E0013694
:1054E80033782F2BFBD05C2BF9D008F581531D683E
:1054F800002402E025F81490544604F1010A305DB6
:105508001F2817D92F2815D05C2813D0FE2C00F29D
:10551800EC80012101F03CFB8146002800F0E78087
:105528007F28E7D801467448FFF755FA0028E1D0EC
:10553800062093E056443E601F2801D8042702E065
:10554800002700E0013C44B104F10043013B35F879
:105558001330202BF6D02E2BF4D0002C00F0C9806D
:10556800002625F814600B22202141F2180358F870
:105578000300FFF717FA00E0013635F81620202A55
:10558800FAD02E2AF8D01EB147F0030700E0013CFC
:105598006CB104F10042013A35F812202E2AF6D1F6
:1055A8004FF0080B4FF0000ACDF804A00AE0A2461D
:1055B8004FF0080B0023019304E04C450BD047F053
:1055C80003074E4606F1010935F816600EB3202E82
:1055D800F5D02E2EF1D0DA4512D24C4510D07F2EC0
:1055E8004CD8002E57D147F003075F2641F2180325
:1055F80058F8033003F80A604E460AF1010AE1E759
:10560800BBF10B0F2DD04C4501D047F003074C459B
:105618002AD241F2180358F803301A78E52A56D0EE
:10562800BBF1080F56D0019B03F00C020C2A03D0E3
:1056380003F00303032B01D147F0020717F0020F11
:1056480006D1019B03F00303012B48D0042A49D05B
:1056580041F2180358F80330DF72002003B0BDE8A8
:10566800F08F47F00307D4E7019B9B00DBB201935F
:1056780026464FF00B0B4FF0080AA3E700213046EF
:1056880001F086FA064618B1A0F180061B4B9E5D14
:1056980047F00207A5E731461948FFF79CF90028AB
:1056A800A1D1A6F141039BB2192B04D8019B43F069
:1056B800020301939AE7A6F161039BB2192B95D8CF
:1056C800019B43F001030193203EB6B28EE7052209
:1056D8001A70A5E7019B9B00DBB20193A3E747F093
:1056E8001007B3E747F00807B2E70620B6E7062039
:1056F800B4E70620B2E700BF103801088037010878
:105708001C380108F8B501F1090541F21003C35826
:10571800002B3ED041F21403C65800230AE0E523CB
:1057280010E02E242C7001350EE0102415E02B70AB
:10573800013513460A2B15D85A1CF35C202BF8D0D8
:10574800052BECD0092AECD0A3F14104E4B2192CC2
:10575800EDD8377B082AE8D808242742E7D0203339
:10576800DBB2E4E7F37A0B72F27FB37F1B0443EA00
:105778000263727F43EA0223327F13430B60727E17
:10578800337E43EA02238B80F27DB37D43EA022312
:10579800CB8000232B7011F1160527D041F210039E
:1057A800C35803B3D1F81841F4B141F22403C25AE3
:1057B8004FF6FF739A421AD00E4600F581500368DF
:1057C800002402E028553B4601349F1C188858B134
:1057D800002101F0DDF960B1D6F81831013B9C4297
:1057E800F0D3002400E0002400232B55F8BD00244A
:1057F800FAE70024F8E700002DE9F84380460E4652
:105808000D7825F04005013D05EB450305EB8305C3
:105818000127002410E001F0D7F90746FE2D24D80F
:1058280005F1010938F8150001F0CEF9B8421ED18A
:105838004D4601340C2C0ED8114B1B5D5A1CB25C22
:10584800F05C40EA0220002FE5D14FF6FF73984242
:10585800EFD000200EE0337813F0400F09D05FB18D
:1058680038F8153053B9012004E0002002E0002088
:1058780000E00120BDE8F8830120FBE70020F9E7FC
:1058880000380108023941F21403C358023B8B4225
:1058980008D941F20203C35C41F22802805801FB97
:1058A8000300704700207047012940F28880F8B54E
:1058B80041F21403C3588B4240F283800C460546DC
:1058C80000F580531B78022B3AD0032B54D0012BC0
:1058D80001D0012076E001EB510600F581531968EB
:1058E80041F20A03C35AB6FBF3F31944FFF7E6FA89
:1058F800002868D1771C41F20A03EB5AB6FBF3F291
:1059080003FB1266AE5D05F581521168B7FBF3F330
:1059180019442846FFF7D2FA002857D141F20A0362
:10592800EA5AB7FBF2F302FB1377E85D46EA002078
:1059380014F0010F01D0000944E0C0F30B0041E06E
:1059480000F58153196841F20A03C35A5B08B4FB96
:10595800F3F31944FFF7B2FA00283AD1610041F293
:105968000A03EA5AB1FBF2F302FB13116B185B78D6
:10597800685C40EA032025E000F58153196841F28C
:105988000A03C35A9B08B4FBF3F31944FFF796FACA
:1059980010BBA10041F20A03EB5AB1FBF3F403FB7D
:1059A80014116B18DA789878000440EA02605B7882
:1059B80040EA03206B5C184320F0704002E00120AD
:1059C80070470120F8BD4FF0FF30FBE74FF0FF3084
:1059D800F8E74FF0FF30F5E74FF0FF30F2E7F8B5A2
:1059E800054641F20603C15241F20803C458012C8E
:1059F80062D00E4600F580531B6841F214029A5893
:105A0800A2425BD924B903F580521278032A27D021
:105A180054BB41F208029A5AB24251D941F22402C7
:105A2800985841F20C03EC50002851D005F58053EA
:105A38001A6841F20A01535A5B09B6FBF3F318449A
:105A480041F21003E850535A5B09B6FBF3F103FB2C
:105A5800116602EB461241F21403EA5000202EE0D0
:105A680041F224029C58D3E741F20A029F5A7A096C
:105A780041F202015F5C07FB02F7BE4215D305F550
:105A8800805321461868FFF70FFF0446B0F1FF3F27
:105A980018D0012818D905F580531A6841F2140363
:105AA800D358834212D9F61BE7E705F58053214600
:105AB8001868FFF7E7FEB4E7022000E00220F8BD0F
:105AC8000220FCE70120FAE70220F8E70220F6E7C7
