:020000040800F2
:1000000000000120915101089D9A00089F9A000864
:10001000A19A0008A39A0008A59A00080000000011
:10002000000000000000000000000000A79A000887
:10003000A99A000800000000AB9A0008AD9A0008D9
:10004000D5510108D5510108D5510108D5510108F4
:10005000D5510108D5510108D5510108D5510108E4
:10006000D5510108D5510108D5510108D5510108D4
:10007000D5510108D5510108D5510108D5510108C4
:10008000D5510108D5510108D5510108D5510108B4
:10009000D5510108D5510108D5510108D5510108A4
:1000A000D5510108D5510108D5510108D551010894
:1000B000B59A0008C59A0008099B0008D5510108A7
:1000C000D5510108D5510108D5510108D551010874
:1000D000D5510108D5510108D5510108D551010864
:1000E000D5510108D5510108D55101080000000083
:1000F0000000000000000000000000000000000000
:1001000000000000000000001D9B0008D551010800
:10011000D5510108D5510108D5510108D551010823
:10012000D5510108D5510108D5510108D551010813
:10013000D55101080000000000000000D551010861
:10014000D5510108D5510108D5510108599B000826
:10015000000000000000000000000000000000009F
:10016000000000000000000000000000000000008F
:10017000000000000000000000000000000000007F
:10018000000000000000000000000000000000006F
:10019000000000000000000000000000000000005F
:1001A000000000000000000000000000000000004F
:1001B000000000000000000000000000000000003F
:1001C000000000000000000000000000000000002F
:1001D000000000000000000000000000000000001F
:0401E0005FF8E0F1F3
:1001E8000348044B834202D0034B03B118477047BE
:1001F8000002002000020020000000000548064917
:100208000B1AD90F01EBA301491002D0034B03B11C
:10021800184770470002002000020020000000007C
:1002280010B5064C237843B9FFF7DAFF044B13B136
:100238000448AFF300800123237010BD00020020A2
:1002480000000000D851010808B5044B1BB104494F
:100258000448AFF30080BDE80840CFE70000000085
:1002680004020020D8510108002101F011BA00BF92
:100278000A22002101F060BB0A23002201F050BBD2
:10028800024B0146186800F0AFB800BF000000201C
:10029800024B0146186800F053B800BF0000002068
:1002A800F0B4860746D0541E002A3CD0CAB2034692
:1002B80002E014F1FF3436D303F8012B9D07F8D17F
:1002C800032C29D9CDB245EA05250F2C45EA054569
:1002D80033D9A4F11006360903F1200707EB0617F6
:1002E80003F1100242E9045542E902551032BA42BC
:1002F800F8D1721C14F00C0F03EB021204F00F0675
:1003080013D0331F23F003030433134442F8045B70
:100318009342FBD106F003042CB1C9B21C4403F884
:10032800011B9C42FBD1F0BC704734461346002C9D
:10033800F3D1F8E714460346C2E71A462646E0E733
:1003480000293AD038B551F8043C0C1F002BB8BF2F
:10035800E418054602F096F9224B1A682AB1A2421F
:100368000DD921686018824221D0626028461C603D
:10037800BDE8384002F088B9A34203D81A4653684A
:10038800002BF9D111685018A04217D022D8216843
:100398006018834203BFD3E900030918C4E90013B6
:1003A800636054602846BDE8384002F06DB9D2E970
:1003B80000020144C4E90012D8E7704720680144EC
:1003C800501883421160EDD1D3E900030144C2E91A
:1003D8000013E7E70C2328462B60BDE8384002F0FD
:1003E80053B900BF1C020020F8B5CD1C25F0030549
:1003F80008350C2D38BF0C25002D064633DBA942E5
:1004080031D82A4F02F03EF93A6852B113685B1BA3
:1004180004D43FE023685B1B29D522465468002C8E
:10042800F8D1796800293BD02946304600F074F8A5
:10043800431C28D0C41C24F00304A04205D0211A70
:10044800304600F069F801301DD02560304602F0D2
:100458001BF904F10B0020F00700231DC21A01D07C
:100468001B1AA350F8BD0C2200203260F8BD0B2BDC
:1004780005D8A242636811D05360E7E714462360A9
:100488001C442560E2E70C233046336002F0FCF898
:100498000020F8BD0B2BF1D8144653683B60D5E714
:1004A800304600F039F87860BEE700BF1C02002033
:1004B8000EB430B5044682B008B1836963B106ADA5
:1004C8002B46059AA1682046019503F04DF802B025
:1004D800BDE8304003B0704701F0EAFBEFE700BF2A
:1004E8000FB430B50B4B83B01C680CB1A36963B172
:1004F80007AD2B46069AA1682046019503F034F80B
:1005080003B0BDE8304004B07047204601F0D0FB8E
:10051800EEE700BF0000002038B50023064C054672
:100528000846236007F0DEFB431C00D038BD236873
:10053800002BFBD02B6038BDB07500200CB470B513
:100548006FF000459CB020AC54F8042B094E029182
:100558000691234602A901940795CDE9045602F0B5
:1005680085FE0022029B1A701CB0BDE8704002B0E4
:10057800704700BF0802FFFF0EB4034630B56FF0A6
:1005880000449CB01FA951F8042B0A480A4D029355
:10059800069301910B46006802A90794CDE904452A
:1005A80002F064FE0022029B1A701CB0BDE83040C5
:1005B80003B07047000000200802FFFFC9B200F036
:1005C8000303002935D07BB10378002B57D099421B
:1005D80052D0431C05E013F8012B002A4DD08A4263
:1005E8004AD09A071846F6D170B441EA0126046841
:1005F80046EA064601E050F8044F86EA0405A5F1EC
:100608000132A4F1013322EA050223EA0403134369
:1006180013F0803FEFD0037843B1994202D106E04E
:100628008B4204D010F8013F002BF9D1184670BC5A
:1006380070474BB10378FBB1431C02E002780133E9
:10064800D2B199071846F9D10268A2F1013323EA19
:10065800020313F0803F08D150F8042FA2F10133B0
:1006680023EA020313F0803FF6D0037823B110F891
:10067800013F002BFBD17047704710467047184662
:10068800704700BF80EA0102844612F0030F4FD181
:1006980011F0030F32D14DF8044D11F0040F51F849
:1006A800043B0BD0A3F101329A4312F0803F04BF00
:1006B8004CF8043B51F8043B16D100BF51F8044BE9
:1006C800A3F101329A4312F0803FA4F101320BD119
:1006D8004CF8043BA24312F0803F04BF51F8043B9E
:1006E8004CF8044BEAD023460CF8013B13F0FF0FFB
:1006F8004FEA3323F8D15DF8044B704711F0010F2E
:1007080006D011F8012B0CF8012B002A08BF7047FE
:1007180011F0020FBFD031F8022B12F0FF0F16BFF5
:100728002CF8022B8CF8002012F47F4FB3D17047BD
:1007380011F8012B0CF8012B002AF9D1704700BFE2
:100748002DE9F0410D46904602F02EFB06460F4675
:10075800B8F1000F11D0C5F30A53C3F16B03002B96
:100768000BDD00241B0503F17F5505F540152246D6
:100778002B4607F083FC06460F4630463946BDE84F
:10078800F08100BF2DE9F04F734C88468146002167
:1007980020681D4600240023A3B0CDE90434CDE928
:1007A80007201E9103F080FA43468346CDF87480F3
:1007B8009A4613F8014B2D2C00F2B380DFE804F0C1
:1007C8001EB1B1B1B1B1B1B1B1AFAFAFAFAFB1B1AE
:1007D800B1B1B1B1B1B1B1B1B1B1B1B1B1B1B1B101
:1007E800AFB1B1B1B1B1B1B1B1B1B1ACB12C002DB2
:1007F80040F0B780099B034340F0B280079B13B1D8
:10080800079BC3F800804FF0000A4FF0000B5046DA
:10081800594623B0BDE8F08F01230C930AF1010378
:100828001D939AF80140002CE8D0302C9A467CD0D1
:1008380000230993A4F13003DAB2092A00F288846C
:10084800002650463746354601301D90082D04785D
:1008580007EB8702CABF06EB860603EB420703EBEA
:100868004606A4F13003DAB2092A05F10105EBD9ED
:1008780008995A4603F046FA002800F02D81002016
:10088800652C0895834684466BD0452CAFD0002351
:100898000A93002D00F0B080089B38461A46002BBA
:1008A80008BF2A46089207F06FFB0A9B102DA3EB9E
:1008B8000B032C46A8BF1024092DCDE904010D9384
:1008C80013DD264B03EBC40353E9122307F0D6FBD1
:1008D800CDE90401304607F057FB02460B46DDE937
:1008E800040107F015FACDE904010F2D00F3078183
:1008F8000D9B002B00F0B0830D9B40F36A83162BF1
:1009080040F356850D9AC5F12503934280F2678519
:100918000D9B2C1B1C44F8E000230C937EE71D93D1
:1009280046E70023302C0C9382D19AF80130582BDB
:1009380000F04784782B18BF534600F042840133F7
:100948001D931C78302CFAD09A46002C00F0AE800B
:10095800012309936EE700BFDC540108F85401082D
:100968000025DDF8748008F101031D9398F8014013
:100978002B2C00F0C3822D2C00F05F824FF0000E6C
:10098800A4F13003092B00F26082302C05D11D9BA5
:1009980001331D931C78302CFAD0A4F13103082BB5
:1009A8003FF675AF1D99A4F130034A1C1D924C788F
:1009B8000A91A4F13001092900F2558401321D92EF
:1009C80003EB830304EB43031478303BA4F13001B9
:1009D8000929F3D90A99521A082A40F3448444F69B
:1009E8001F630A93BEF1000F3FF453AF0A9B5B42AB
:1009F8000A93002D7FF450AF099B034356D1BCF1F5
:100A0800000F7FF4FBAE493C252C3FF6F7AE01A35F
:100A180053F824F02310000805080008050800080A
:100A28000508000805080008FF0F00080508000869
:100A3800050800080508000805080008050800085A
:100A4800050800080508000805080008050800084A
:100A5800050800080508000805080008050800083A
:100A6800050800080508000805080008050800082A
:100A7800050800080508000805080008050800081A
:100A8800050800080508000805080008050800080A
:100A980005080008231000080508000805080008D4
:100AA8000508000805080008FF0F00084FF0000AB5
:100AB8004FF0000B079A0AB11D9B13600C9B002B8B
:100AC8003FF4A5AE51460BF100438A469B4650467B
:100AD800594623B0BDE8F08F1D9B089503EB0B0228
:100AE8001D9213F80B408346A4F13002092A40F204
:100AF8009083652C4FF0010C7FF4C7AE31E70D9B56
:100B08002C1B1C44002C40F3CF8214F00F000AD099
:100B1800DDE90423BA4901EBC001D1E9000107F07E
:100B2800ADFACDE9040134F00F0440F03B82002314
:100B3800099300972B46089A5146484601F05CFEF7
:100B48001390002800F0E18300220D990A9B91423E
:100B5800ABEB0303A8BF134690460F9321EAE1735A
:100B680008921293139C4846616801F08FFD8346F2
:100B7800002800F03381DDE90456226904F10C01F4
:100B8800023292000C30CDE90A5601F005FD20A88A
:100B98001FA9CDE900102A463346484602F082F9DB
:100BA8001E90002800F00A810121484601F0CAFE83
:100BB8008046002800F012811F9B002BC0F20181A3
:100BC8000F9A129C9D180999209A5B1A13448D4913
:100BD800013B8B42C2F1360280F2BA80C91A1F2942
:100BE800A2EB010200F32281012300278B4011931D
:100BF800AE18B5422B46A8BF33461444099A14448C
:100C0800A342A8BF2346002B02DDF61AE41AED1A08
:100C18000F9B002B00F3B280002E00F3C6800D9BC3
:100C2800002B00F3D280002C00F3F680002D08DDA5
:100C380041462A46484601F0A3FF8046002800F0B6
:100C4800CD805A461E99484602F01AF808900028A6
:100C580000F0C4800026089B4146DA68DE601092E6
:100C680001F0F2FFB042C0F25684059B0E9300F0EB
:100C7800CD834146089802F077F900224FF080436F
:100C880004460D4607F076FC002865D0109B002B23
:100C980000F0E580B24600245B4B5B4D11935B4F3F
:100CA8000E9A5B4B02EA07069E4200F0FA80099B07
:100CB8002BB3B6F1D46F22D84FA3D3E90023119FE9
:100CC8005046394607F056FCB0B15046394607F051
:100CD800ADFC002800F0D48207F056F98246119145
:100CE800109B002B40F0C782119BCDF858A003F150
:100CF80000431793DDE9164505F1D6639D1BDDE931
:100D08000A0102F051F802460B462046294607F030
:100D1800B5F9DDE90A2306F0FBFF0C46CDE904012D
:100D2800099B23B9394B23409E4200F0EA801E9963
:100D3800484601F0EBFC5946484601F0E7FC4146BD
:100D4800484601F0E3FC0899484601F0DFFC09E752
:100D58000123002711934BE72E4B204629460022FA
:100D680007F08CF9109B82461191002B72D101F18A
:100D7800004314901593DDE9144590E741461A465F
:100D8800484601F09BFE804640B301461E9A4846FD
:100D980001F0EEFD10B30E901E99484601F0B6FC26
:100DA8000E9B002E1E937FF73AAF32461E99484697
:100DB80001F0E6FE1E9000287FF431AF5C4606463F
:100DC8000EE0129A0F9DD41AFDE65946129A48462B
:100DD80001F074FE834600287FF425AF5C461E9E12
:100DE8000A4B0022059322230492C9F80030DDE95A
:100DF80004ABB0E0AFF300800000C0FFFFFFDF41AD
:100E0800F854010802FCFFFF0000F03F0000F07FEB
:100E18000000E07F0000E03F59462246484601F0C6
:100E2800AFFE834600287FF401AFD7E70121924F38
:100E38001191FF1A01FA07F7DAE64FF0010E08F1EF
:100E480002031D9398F802409AE50023CDF87480B8
:100E58000A931EE50246119BCDE914238BE7049BF8
:100E6800002B40F08D800E9BC3F31303002B40F042
:100E78008E800022814B2046294607F071FB00280E
:100E880040F0A4827E4B20462946002207F0F6F85F
:100E9800824601F1004311911A901B93DDE91A452E
:100EA800FDE6A2F154730593DDE9042310461946C3
:100EB80001F07AFF02460B462046294607F0DEF885
:100EC800DDE9042306F024FF0F400A46CDE90401BA
:100ED800DDE90A0104460D466A4BCDE918459F42F3
:100EE8005CD9694A914203D1B0F1FF3F3FF476AF34
:100EF8004FF0FF33644ACDE9043218E74FF0000E93
:100F08009DE7119D5046294607F028FF07F088F80D
:100F180002460B465046294606F0F8FE109B049AF6
:100F2800C4F313041343234306460F4648D04CA387
:100F3800D3E9002307F014FB48B94BA3D3E90023F6
:100F48003046394607F02AFB00283FF4F0AE1E9ED3
:100F58005C46DDE904AB3146484601F0D7FB214643
:100F6800484601F0D3FB4146484601F0CFFB1399B0
:100F7800484601F0CBFB0899484601F0C7FB99E5C4
:100F8800049B012B03D10E9B002B00F0438300230D
:100F98009A463A4B00243D4D119380E602F1547471
:100FA8000594BDE6B4F59A7F40F36E81384B002274
:100FB800059322230492C9F80030DDE904AB79E5F2
:100FC8002BA3D3E9002307F0CBFA00283FF4AFAEF8
:100FD800BDE71633FFF693ADDDE904010A9A2D4B00
:100FE800ABEB020B03EBCB03D3E9002307F070F95B
:100FF80082468B465EE51DA8274901F0CBF90028FB
:101008003FF4FCAB1D9B1B78282B00F0B1822348D2
:1010180002F0F8FD82468B464CE51DA8204901F0F8
:10102800B9F900283FF4EAAB1D9B1DA8013B1D49F7
:101038001D9301F0AFF910B91D9B01331D93144B9B
:101048000593DDE904AB35E5114B0593240742BF51
:10105800059B43F000430593DDE904AB2AE500BF97
:101068009535A094FFFFDF3F35E5AF350000E03F41
:101078009535A094FFFFCF3FE2FBFFFF0000F03F54
:101088000000E03FFFFF9F7CFFFFEF7F0000F0BF05
:101098000000F07FF8540108205F0108C0560108DD
:1010A800145F0108185F01083FF441AD644214F071
:1010B8000F020AD0DDE90401B44B03EBC203D3E904
:1010C800002307F005F9CDE9040124113FF42FAD01
:1010D8001F2C35DCDDE9040114F0100318BF6A2366
:1010E80009930023AA4EE20704D5D6E9002306F0A7
:1010F800C5FF0123641006F10806F4D10BB1CDE950
:101108000401099B9BB1DDE90412C2F30A53C3F140
:101118006B03002B11460ADD1F2B40F35F82002270
:10112800342B049240F36E824FF05C7305930022D7
:10113800DDE90401002307F009FA00283FF4F9ACBF
:1011480022234FF0000AC9F800304FF0000BB1E439
:1011580008995A46504602F0D5FD0890002840F0FC
:101168005E821D9A02EB0B031D9312F80B40302C84
:1011780008BFC3F1010240F0D380981801331D93D2
:101188001C78302CF9D0A4F13103082B12D8002791
:10119800DDF874A0A4F1300E3E465446012500F156
:1011A800010B002007EB87070EEB4707631C1D9315
:1011B800647899E4652C24D0452C22D04FF0010C9A
:1011C8001AE40C9A1EABCDE9003202951FAB714AA6
:1011D8001DA9484600F02CFE10F0070504463FF410
:1011E80065AC062D40F09E80079A0AF10103002A9B
:1011F8003FF409AB13604FF0000A4FF0000BFFF704
:1012080006BB4FF0000B4FF0010C5E465F46FFF740
:10121800F1BA013096461D9C002AC7D001288344A4
:1012280005F1010100F0F881284400F1FF3C03E0DA
:101238004F0063451D460BD0082D05F1010307EB50
:101248008701F5DD102BDCBF06EB86067600F0E79C
:101258000546082BA5DD102DDCBF06EB860602EB44
:1012680046060020A2E744F61F629342A8BF134631
:101278000A93FFF7B7BB5246119BCDE9162339E510
:10128800454B824611932BE52411012C40F38481B0
:10129800DDE904010023414A98461646099214F0F4
:1012A800010F08F101084FEA640404D0D6E90023CD
:1012B80006F0E4FE0123012C06F10806EFD10BB17C
:1012C800CDE90401059B364CA3F154730593099BA2
:1012D800344E03EBC808D8E90001DDE9042306F021
:1012E800CDFE01EA0403B3420A46CDE9040100F247
:1012F800F4802D498B4240F2E9802C4B0593002362
:1013080009934FF0FF33049313E4254B139A059385
:1013180022230492C9F80030DDE904ABFFF7CABB09
:10132800089830E71E9A3AB1352120A801F064FEEA
:1013380048461E9901F0EAF9013D042D3FF686AEB4
:1013480001A353F825F000BF6F13000865130008C8
:1013580051100008871300086F130008209B04939E
:10136800219B059372E61F9ADDE9201302F23342AE
:1013780023F4801343EA02530491059366E64FF081
:10138800FF336FF00045CDE904355FE6F8540108F6
:1013980050520108285201080000F03FE8550108A2
:1013A8000000F07F0000A07C0000907CFFFFEF7F32
:1013B8000D98A549DDE9042301EBC001D1E900013D
:1013C80006F05CFE82468B46FFF774BB00239F4CF9
:1013D800CDE91A34109B9A469D4B11935EE59A4CC1
:1013E800C5F10F0504EBC501DDE90423D1E90001CE
:1013F80006F044FE0D9B5D1B04EBC504D4E90023F5
:1014080006F03CFE82468B46FFF754BB10995C46BB
:10141800DDE90AAB8F4AC3F31303002964D0934272
:101428002FD0002F00F09E800E9B1F4210D0DDE9C8
:101438000401109B099A002B00F0B380FFF780F994
:1014480002460B465046594606F062FC82468B46D9
:10145800099B1E9E002B3FF47EAD7F4B504619938F
:10146800002318935946DDE9182306F007FE0346C2
:101478000B4308BF222382468B4608BFC9F80030B9
:1014880069E5099B0499002B00F0A580734B0E9A1F
:101498001340B3F1D46F00F29E804FF0FF321B0D62
:1014A800C3F16B0302FA03F39942BAD16C4B0E9A5B
:1014B8009A4200F0C080694B0E9A1A4002F58013D8
:1014C800059300230493DDE904ABC1E702F15473EB
:1014D800059300230993FFF72CBB222300220594D0
:1014E8000492C9F80030B7E5049A134399D1099BCF
:1014F800002B7BD1594B0E9A1A401346A3F5801343
:101508006FEA13536FEA035305934FF0FF330493C5
:10151800DDE904AB9CE7109BDDE9040103435C466D
:10152800DDE90AAB94D1C1F313030E91002B8FD1DF
:1015380021F000431B0D1B05B3F1D66F88D9089A1B
:10154800536913B91369012B82DD089901224846B2
:1015580001F016FB4146089001F076FB00287FF762
:1015680077AFC4E7119B049A13423FF471AF5EE76B
:101578001DA820AA3B4900F025FF05287FF447ADA8
:10158800219B43F0FF4343F4E0030593209B04931E
:10159800DDE904ABFFF78EBA334B4FF0000809932F
:1015A80090E6FFF7CDF802460B465046594606F03E
:1015B800ADFB0022002382468B4606F0C7FF0028B9
:1015C8003FF446AF22231E9EC9F800304FF0000AB0
:1015D8004FF0000BBFE44FF0FF3365E74FF0FF32E9
:1015E80002FA03F3049A1A400492A0E51B4B0E9AE0
:1015F8001A40B2F1D66F134680DCB2F15C7FE1DDB0
:101608001E9E2AE74FF0FF32203B02FA03F30B40FD
:1016180005938CE55C46D5E72B460D4619E6002375
:10162800652C08931E461F4618469B4608D01D4643
:101638009C46FFF72AB901317FF43DAFFFF7CFBBD6
:101648009C46FFF7D7B800BFF85401080000E0BF78
:101658000000E03FFFFF0F00000050390000F07F5E
:10166800FFFFEF7F3C520108E8550108014BFFF7E7
:1016780089B800BF6800002010B4044C13460A461D
:101688000146206810BCFFF77DB800BF00000020AD
:1016980010B4044C0A46044B0146206810BCFFF7FE
:1016A80071B800BF00000020680000202DE9F0415B
:1016B800214E13460A4601463068FFF763F8024692
:1016C8000B4605460C4606F073FF40BB21462846EC
:1016D80006F0CCFF20F0004807461849404607F0BE
:1016E800E9FAC8B94046154907F0C6FAA0B924F086
:1016F8000044284621464FF0FF32114B06F058FFB0
:1017080038B9284621464FF0FF320D4B06F032FF1C
:1017180010B1222233681A603846BDE8F081002CE7
:10172800084804DA02F074FA00F10047F4E7BDE86B
:10173800F04102F06DBA00BF00000020FFFF7F7F7C
:10174800FFFFEF7FC05601082DE9F041214E0A4600
:10175800214B01463068FFF715F802460B4605464F
:101768000C4606F025FF40BB2146284606F07EFFC2
:1017780020F0004807461949404607F09BFAC8B9C7
:101788004046164907F078FAA0B924F000442846E4
:1017980021464FF0FF32124B06F00AFF38B92846AF
:1017A80021464FF0FF320E4B06F0E4FE10B1222224
:1017B80033681A603846BDE8F081002C094804DA1D
:1017C80002F026FA00F10047F4E7BDE8F04102F024
:1017D8001FBA00BF0000002068000020FFFF7F7FC5
:1017E800FFFFEF7FC0560108012B2DE9F84F41D0CC
:1017F800242B98463ED80F46DFF820C100E02F463C
:101808003D4615F8014B1CF8046016F00806F6D1A1
:101818002D2C6FD02B2C12BFA34695F800B0BD1C01
:10182800002B49D0102B5AD0002E14BF4FF000497E
:101838006FF000490027B9FBF8FEBC4608FB1E9A6A
:1018480007E0E64513D332D001270CFB084C15F806
:1018580001BBABF13004092C05D9ABF14104192CBB
:1018680011D8ABF13704A34215DD002FE9DA4FF0A8
:10187800FF37ECE700F02EF916234FF0000C036059
:101888006046BDE8F88FABF16104192C03D8ABF1C1
:101898005704A342E9DC002F26DB0EB1CCF1000C83
:1018A800002AEDD06FBB11606046BDE8F88FA245F5
:1018B800CADA4FF0FF37CAE7BBF1300F03D04FF059
:1018C8000A084346B0E72B7803F0DF03582B1AD1F8
:1018D8004FF0100895F801B043460235A4E7BBF174
:1018E800300F14D098469FE7222303603AB1CC46C4
:1018F800691ED8E795F800B00126BD1C90E7CC46D4
:10190800BEE7E146F3E74FF0080843468CE72C783A
:1019180004F0DF04582CDBD0984685E7795201089B
:1019280062E700BF10B4034C13460A46014620681C
:1019380010BC59E70000002010B4034C13460A46B7
:101948000146206810BC4FE70000002008B470B5BD
:10195800B2F1005F9DB006462DD24FF4027302919A
:1019680006911446ADF814304FF6FF71C2B102F17A
:101978008043013B9A0022AD2B4604920792ADF8B2
:101988001610219A02A9019502F0A2FA0022029BE0
:10199800A0421A600FD21DB0BDE8704001B0704778
:1019A80022AD04920792ADF816102B46219A02A98F
:1019B800019502F08DFA8B234FF0FF303360EAE790
:1019C8000CB470B51D4BB1F1005F9CB01D682FD2EF
:1019D8004FF40273029006900C46ADF814304FF69F
:1019E800FF70C9B101F18043013B990021AE334634
:1019F800209A04910791ADF8160002A9284601968D
:101A080002F066FA0022029BA0421A6010D21CB0B3
:101A1800BDE8704002B0704721AE04910791ADF85F
:101A280016003346209A02A92846019602F050FA79
:101A38008B234FF0FF302B60E9E700BF0000002048
:101A480000220B68026002462BB142F8043B51F8B1
:101A5800043F002BF9D1002313607047036833B1AA
:101A6800034653F8042F002AFBD11B1A9B10184673
:101A7800704700BFF8B50B6805460BB92846F8BD96
:101A88000F46FFF7EBFF04463846FFF7E7FF8442AF
:101A980018D32B68B3B13E68002EEFD02B689E4256
:101AA80009D128463A4652F8043F002BE6D050F8B0
:101AB800044F9C42F7D055F8043F002BECD11D464B
:101AC8002846F8BD00252846F8BD00BF920000F062
:101AD80063BD00BF014B1868704700BF00000020BD
:101AE80000207047014900F027B900BF6D62000867
:101AF8000020704770B568254A1E05FB02F50E46A2
:101B080005F17401FEF770FC044640B100210C3069
:101B1800666005F168022160A060FEF7C1FB2046FF
:101B280070BD00BF1E4B70B51D680646AB6943B358
:101B38004835D5E90134013B05D51EE0013B5A1C67
:101B480004F1680419D0B4F90C20002AF6D1002554
:101B5800144B6566C4E90055A560C4E90455A56140
:101B68002946E360082204F15C00FEF799FBC4E90A
:101B78000D55C4E91255204670BD2C682CB1254678
:101B8800D7E7284600F010F8D2E704213046FFF7DF
:101B9800B1FF044628600028F1D10C233360EAE73E
:101BA800205201080100FFFF2DE9F84F0023334AB6
:101BB800C0E9123312680365904208BF0123304917
:101BC80008BF836181620546FFF7ACFF686028465D
:101BD800FFF7A8FFA86028460024FFF7A3FF042307
:101BE8006E68E8602146F3607466C6E90044B46034
:101BF800C6E90444B46106F15C000822FEF750FB14
:101C0800DFF888B0AF68DFF888A0DFF88890DFF8E1
:101C180088801C4BC6E9086BC6E90AA9C6F830805B
:101C28002146FB6008227C66C7E90044BC60C7E91E
:101C38000444BC6107F15C00FEF732FBEE68124B0E
:101C4800C7E9087BC7E90AA9C7F830802146F360CD
:101C58007466C6E90044B460C6E90444B46106F198
:101C68005C000822FEF71CFB0123C6E9086BC6E9E5
:101C78000AA9C6F83080AB61BDE8F88F2052010888
:101C8800ED1A00080900010012000200213C0008BA
:101C9800493C0008893C0008A93C0008024B03495C
:101CA800186800F049B800BF205201086D620008AA
:101CB800836903B978E77047704700BF704700BF72
:101CC800704700BF704700BF024B0349186800F017
:101CD8000FB800BF00000020E91A0008024B0349B2
:101CE800186800F005B800BF00000020F91A0008C5
:101CF8002DE9F04110F148071AD088460026D7E9A7
:101D08000154013D0ED4A389013D012B06D9B4F934
:101D18000E30013302D02046C04706436B1C04F145
:101D28006804F0D13F68002FE9D13046BDE8F08162
:101D38003E463046BDE8F0812DE9F84310F14806EB
:101D48001ED0884607464FF00009D6E90154013DE8
:101D580010D4A389013D012B08D9B4F90E30013301
:101D680004D021463846C04749EA00096B1C04F1F3
:101D78006804EED13668002EE7D14846BDE8F883FE
:101D8800B1464846BDE8F8832DE9F04105694FEAB8
:101D9800611C65452FDD00F1140611F01F0106EBEB
:101DA800850706EB8C032CD056F82C2004339F4271
:101DB80022FA01F4C1F1200819D9B6461A6802FAC4
:101DC80008F222434EF8042B53F8044B9F4224FA9E
:101DD80001F4F3D8A5EB0C05AD00053DAD080135C0
:101DE80046F8254006EB8505D4B1043518E0446172
:101DF8003546002CF9D10023036100234361BDE877
:101E0800F0819F4288BF00F11002F4D953F8041BF7
:101E18009F4242F8041FF9D8A5EB0C0506EB85058F
:101E2800AB1B9B10B5420361E7D0BDE8F08100BF52
:101E38002DE9F04FBB4C894621688DB00C460890BF
:101E48000846069105920A9301F02EFF2146D9F81B
:101E5800003001449A7811F8011C302A049001914D
:101E680040F0E1816FF00101C91A033301EB030A65
:101E78001C4613F8012B302AF8D0AB4FBB5C002B63
:101E880000F0F6804FF0000845462378FB5C2646B4
:101E980023B116F8013FFB5C002BFAD1049A06998E
:101EA800304601F02FFF0290002800F09980337827
:101EB800002D40F094810295502B00F09B80702BF0
:101EC80000F098803546C9F80060B8F1000F40F07E
:101ED800BD802B1B013B072B414604DD5B10072B04
:101EE80001F10101FADC089800F0D0FB039000280A
:101EF80000F03F82039BAC4203F11403099380F086
:101F0800C48100269B46049BB146C3F10103079395
:101F180010E0202E00F0A3803246043615F8013C6C
:101F28005546FB5CA54203F00F0303FA02F349EAA6
:101F3800030918D915F8013C019A05F1FF3A9342B3
:101F48000BF10408E5D1079B5344A342E1D318469B
:101F5800049A06990B9301F0D5FE0B9B0028D8D163
:101F68001D46A542E6D8099B039AA8EB03084FEA49
:101F7800A803CBF80090484613614FEA431800F0D5
:101F880091FC059BA8EB00001C68A04200F3AA8006
:101F9800C0F229810026059B029A9B689342C0F2F1
:101FA80069810598029A436893427EDD9D1AAC4286
:101FB80000F3BC80C268022A00F09C81032A00F06A
:101FC8009481012A00F0788150250898039900F03F
:101FD8009DFB00232846169A13600DB0BDE8F08FCC
:101FE800002D00F00F81AD1BAB0002933378502B0E
:101FF8007FF465AF73782B2B00F0EF802D2B6DD01D
:102008000025711CFB5C5A1E182A3FF65BAF4A7804
:10201800103BBA5C0131501E18280AD811F8010F7C
:1020280003EB830302EB43033A5C103B501E182872
:10203800F4D905B15B4235460E46029AC9F80060EC
:102048001A440292B8F1000F3FF443AFBAF1000FFF
:1020580014BF0025062528460DB0BDE8F08F5B4665
:10206800002243F8089BC34691469846042655E744
:10207800049D06992A46204601F044FE002873D1A3
:10208800625D6619BB5C002B70D0302A344604D1DF
:1020980014F8013F302BFBD0FB5CB3FA83F83546CC
:1020A8004FEA58184FF0010AF1E6012556B1059B91
:1020B800DB68022B61D0032B63D0012B00F08480F6
:1020C80045F01005169B28461A46039B13600A9B89
:1020D8001A46029B13600DB0BDE8F08F0125B37856
:1020E800B11C8FE7039F051B2946384600F0A8FF5F
:1020F800064678B101266A1E0999531151F8231032
:1021080002F01F0306FA03F30B4203D0B24200F3B6
:10211800CA800226DDE9023029462B440293FFF7E4
:1021280033FE38E7DC540108DC5301086F1E002E2B
:1021380040F0A980002F40F0B080012309997A115E
:1021480051F8222007F01F0703FA07F7174229461C
:10215800039818BF46F00206FFF716FE059B641B9E
:102168005B6802250293A1E726462278502A5ED0B2
:10217800702A5CD0C9F8006068E7179BC3F10103B7
:102188001793179B002B9BD0039ADDF824C0166980
:102198000020B70063460CEB070103E0994243F8BF
:1021A800040C49D99E4653F8042BB2F1FF3FF5D0F1
:1021B8000132022DCEF8002000F0A18014F01F0497
:1021C80040F0C08021257DE7B2077FF579AF099BF4
:1021D8001B681E43F307D7D472E700257FE7AD1BC2
:1021E800AA00029268E6251A03992A46089800F080
:1021F800C7FC029B03905B1B0293034614330993AD
:102208000026C8E6049AB35CB118FA5C0E46002AA8
:102218003FF452AE16F8013FFA5C002AFAD1891B46
:102228008A00029248E64FF0000A9C1C25E600232B
:102238004FF001080293DDE6039B9B689E4265DA36
:1022480033464FF0010E039803EB0E02022D00EB0C
:1022580083030261C3F814E051D09642AEDA01213B
:102268000398FFF791FD059B029A9B680132934200
:102278000292A7DA0399089800F048FA0023169A00
:10228800A3251360E7E6012657E7039BDDF824B092
:102298004FF0000903F1180865E63946039800F085
:1022A800CFFE064649E7A91E384600F0C9FE0028B9
:1022B8003FF42FAF03262DE7AC427FF485AE012C07
:1022C80008D0611E039800F0BBFE00283FF47CAEE6
:1022D800059B5B6801220A9962250B60039B09999B
:1022E8001A610A60169A1360B5E6179A002A3FF435
:1022F8006BAEEFE7179A002A7FF466AEEAE7059B14
:102308001B68013BA34228D02225DBE6039B0898E3
:102318005968013100F0BAF9804680B3039A0C304D
:10232800136902F10C0102339A0000F035F90399A0
:10233800089800F0EBF9CDF80C8008F1140CD8F8E7
:1023480010307EE7674457F8040C00F0ABFAC4F18C
:102358002004A042BFF636AF81E7012362115CF882
:10236800222004F01F04A34013420CBF222521257C
:10237800A8E60246054BDE21054802F033FE024678
:10238800024B8421024802F02DFE00BF245F0108A1
:10239800385F010830B40468013408E014F8013BE0
:1023A800A3F14105192D98BF2033934207D111F8A5
:1023B800012B002AF2D10460012030BC70470020B4
:1023C80030BC70472DE9F04F096885B04B1102EB1E
:1023D800830311F01F011ABF1D4604331D1F00930C
:1023E800002301900098039140F8043C19469A464E
:1023F8001E469846019BAC46D3F800E0DFF854919E
:102408009EF801402B46029593460EF10100B4B1A7
:1024180019F80450002D4BD1202C00F28A80564523
:1024280006DD634501D2072970DD5B4555D80821D3
:1024380086469EF801400EF10100002CE8D15A466C
:10244800029D002E79D0634513D2072911DC184666
:10245800C1F1080189001E68C1F1200E476807FA1A
:102468000EF4344327FA01F6046040F8046F8445FB
:10247800F4D893423AD9114653F8040B9D4241F8D7
:10248800040BF9D2002341F8043BA942FBD9009B75
:1024980053F8041C21B154E055F8043D002B50D1E9
:1024A800AA42F9D1012305202B6005B0BDE8F08FC1
:1024B8000131082906F1010607DC1A68120105F046
:1024C8000F0515431D608646B3E75B45B0D943F851
:1024D800048C00220121043BF1E7A3F1040C43F82A
:1024E800048CB246634600218646A2E7009C039B03
:1024F80054F8041C002BCDD04FF0FF30C3F120035B
:1025080020FA03F3194044F8041CC3E71C46C1F140
:10251800080189001F68C1F1200E656805FA0EF2EE
:102528003A4325FA01F7226044F8047FA445F4D819
:102538007BE7292C029D5A4607D0042005B0BDE848
:10254800F08F052005B0BDE8F08F019C0EF1020068
:10255800206076E7DC53010810B4034CD4F8E4405B
:10256800A44610BC604700BF6800002082B049B193
:102578005AB16BB113780B601278101C18BF012088
:1025880002B0704701A9002AF3D1104602B0704783
:102598006FF00100F4E700BF844641EA000313F03E
:1025A800030349D1403A23D30B6803604B68436067
:1025B8008B688360CB68C3600B6903614B694361B7
:1025C8008B698361CB69C3610B6A03624B6A43629F
:1025D8008B6A8362CB6AC3620B6B03634B6B436387
:1025E8008B6B8363CB6BC36340304031403ADBD2A3
:1025F80030320BD30B6803604B6843608B68836091
:10260800CB68C36010301031103AF3D20C3205D3C6
:1026180051F8043B40F8043B043AF9D2043208D09C
:10262800D2071CBF11F8013B00F8013B01D30B880E
:1026380003806046704700BF082A13D38B07B1D0C8
:1026480010F00303AED0C3F10403D21ADB071CBF9A
:1026580011F8013B00F8013BA4D331F8023B20F804
:10266800023B9FE7043AD9D3013A11F8013B00F83D
:10267800013BF9D20B7803704B7843708B788370E9
:1026880060467047704700BF704700BF70B5446A26
:1026980006460D465CB1E368A3B153F82500E8B1DE
:1026A800026843F825200023C0E9033370BD1020D9
:1026B800FDF7E6FD04467062E8B10023C0E9013386
:1026C8000360C36021220421304600F0E3FC736AF2
:1026D800E060DB68002BE0D1002070BD012101FA29
:1026E80005F4621D3046920000F0D4FC0028F3D0B7
:1026F800C0E90154D7E70246024B6621024802F0BE
:1027080071FC00BF845F01089C5F010830B5456A11
:1027180083B0044655B139B1636A4A68DB6853F837
:102728002200086043F8221003B030BD1020019148
:10273800FDF7A6FD0199606220B1C0E90155056069
:10274800C560E8E70246024B8A21024802F04AFCCB
:10275800845F01089C5F0108F0B54FF0000C0C463F
:1027680005460E6983B001F1140738680CF1010CB5
:1027780081B202FB0133000C190C02FB00109BB262
:1027880003EB0043664547F8043B4FEA1043ECDC93
:102798003BB1A268B24207DD04EB86020136536101
:1027A8002661204603B0F0BD6168284601310193D7
:1027B800FFF76CFF019B0746A0B1226904F10C01E9
:1027C800023292000C300193FFF7E6FE21463C46A8
:1027D8002846FFF79BFF019B04EB860201365361F5
:1027E8002661DEE70246024BB521024802F0FAFBF9
:1027F800245F01089C5F01082DE9F8431D46264E19
:10280800083386FB0346092D4FEAE37390460746D3
:10281800C3EB66020C46089E36DD012300215B00EF
:102828009A4201F10101FADC3846FFF72FFF68B33D
:102838000123B8F1090FC0E9043613DC4FF0090889
:102848000A3445450CDDA5EB0805254414F8013B81
:102858000146303B0A223846FFF77EFFA542F5D1F4
:10286800BDE8F88304F109094E46444416F8013BD3
:102878000146303B0A223846FFF76EFFB442F5D1D5
:10288800A8F108044C44DCE70021CDE70246034BDD
:10289800CE21034802F0A6FB398EE338245F0108F5
:1028A8009C5F0108020C12040346CAB903041020F5
:1028B80013F07F4F04BF1B02083013F0704F04BFA2
:1028C8001B01043013F0404F04BF9B000230002B63
:1028D80005DB13F0804F00F1010008BF202070478E
:1028E8000020E5E70368014613F0070207D0DA077E
:1028F80020D4980722D55B080B600120704798B256
:10290800B0B910201B0C13F0FF0F04BF1B0A0830CE
:102918001A0704BF1B0904309A0704BF9B0802303A
:10292800DA0703D45B0800F1010005D00B6070479B
:102938001046E8E700207047202070479B080B608E
:102948000220704710B50C460121FFF79FFE024692
:1029580018B10123C0E9043410BD034B4FF4A07132
:10296800024802F03FFB00BF245F01089C5F01089A
:102978002DE9F04F0E69176983B0BE420C46154623
:1029880005DB3A462B4637460D4616461C46AB68CD
:10299800696807EB06084345B8BF0131FFF776FEC3
:1029A800009000287FD0009B03F1140A0AEB8809E5
:1029B800CA4505D25346002143F8041B9945FBD864
:1029C80004F1140E0EEB860B05F11403DE4503EB40
:1029D800870753D2CDF80480984605E0090C28D122
:1029E800F3450AF1040A47D95EF8041B8EB2002E9B
:1029F800F4D045465446002355F8041B20688AB293
:102A08001FFA80FC06FB02C2090C000C06FB010140
:102A1800134401EB13429BB243EA0243AF4244F82A
:102A2800043B4FEA1243E7D823605EF8041C090C04
:102A3800D6D0DAF8003040461A4654464FF0000C1B
:102A48000588120C01FB05229BB2944443EA0C430F
:102A580044F8043B50F8043B22681B0C95B201FB78
:102A68000353874203EB1C434FEA134CE8D8F34562
:102A780023600AF1040AB7D8DDF80480B8F1000F22
:102A88000BDD59F8043CA9F104091BB105E059F81C
:102A9800043D13B9B8F10108F9D10098C0F81080C5
:102AA80003B0BDE8F08F0246024B40F25D110248C8
:102AB80002F098FA245F01089C5F01082DE9F041B3
:102AC80012F0030382B0144607462DD10E46A41017
:102AD8001CD07A6A8AB39568002D39D0E3074FF085
:102AE800000806D4641011D0286898B10546E30799
:102AF800F8D531462A463846FFF73AFF03463146AD
:102B080038461E46FFF702FE6410EDD1304602B08B
:102B1800BDE8F0812A4629463846FFF729FF286094
:102B2800C0F800800546E2E7124A013B52F823202C
:102B38000023FFF711FE0646C9E71020FDF7A0FBAA
:102B48000246786280B10023C0E901330360C360A4
:102B580040F2712138460192FFF7F4FE0023019AF2
:102B6800054690600360B9E7034B4FF4D7710348FB
:102B780002F038FAE8540108845F01089C5F0108F4
:102B88002DE9F0470E694FEA621A8B685644741CA7
:102B98009C420D4691460746496804DD5B009C420D
:102BA80001F10101FADC3846FFF770FD8046002884
:102BB8003FD0BAF1000F00F114000EDD03460021EA
:102BC8000AF1050A4FEA8A0A08EB0A0243F8041BCD
:102BD8009342FBD1AAF1140A5044296905F1140360
:102BE80019F01F0903EB810C1BD00022C9F1200E3C
:102BF800196801FA09F1114340F8041B53F8042B32
:102C08009C4522FA0EF2F3D8002A18BF2646026025
:102C18003846C8F810602946FFF778FD4046BDE8F9
:102C2800F087043853F8042B9C4540F8042FF9D852
:102C3800EEE70246024B40F2D911024802F0D2F9FF
:102C4800245F01089C5F010830B40B6905460069E0
:102C5800C01A10D19B001435143119442B4401E0DB
:102C68009D4208D253F8044D51F8042D9442F7D0F0
:102C780003D24FF0FF3030BC7047012030BC7047A2
:102C88002DE9F04716460F6912690D46BF1A002F45
:102C98006AD1920001F1140C06F114010CEB020345
:102CA800114401E09C4562D253F8042D51F8044DBB
:102CB800A242F7D053D36968FFF7E8FC002860D038
:102CC800D5F810C03369143506F11402C76005EB56
:102CD8008C0E02EB830800F11407002100E0374650
:102CE8003E4655F8049B52F8044B1FFA89F30B44EF
:102CF8001FFA84FA210CA3EB0A03C1EB194101EB7B
:102D080023419BB243EA014390454FEA214146F8EB
:102D1800043B2C46E3D8AE4516D9324654F8047B1A
:102D2800BBB20B44191401EB17419BB243EA0143B0
:102D3800A64542F8043B4FEA2141EFD80EF1FF3790
:102D48007F1B27F0030737442BB957F8043D0CF1D4
:102D5800FF3C002BF9D0C0F810C0BDE8F0872B4627
:102D6800012735461E46A6E7F9DB0027A3E7002121
:102D7800FFF78CFC60B101220023C0E90423BDE801
:102D8800F0870246064B4FF41071064802F02AF904
:102D98000246034B40F23221024802F023F900BFF9
:102DA800245F01089C5F01080E4B0B40A3F1507390
:102DB800002B02DD0020194670475B421B15132BC0
:102DC80005DC4FF40022002042FA03F17047143B5F
:102DD8001E2BD6BF4FF00042012322FA03F3002135
:102DE800184670470000F07F2DE9F041076900F1AF
:102DF800140606EB870757F8048C4046FFF752FD88
:102E0800C0F120030A280B60A7F1040230DD9642C6
:102E1800A0F10B031DD257F8080C23B3C3F120010E
:102E280020FA01F208FA03F848EA0208A7F10802B2
:102E380048F07F55964200FA03F045F4401503D256
:102E480057F80C3CCB401843044629462046BDE8B9
:102E5800F0813BB108FA03F343F07F5545F4401580
:102E68000020F1E7184648F07F5545F44015EBE798
:102E780096422CBF002257F8082CC0F10B0328FA01
:102E880003F138BFDA4000F1150341F07F5508FA25
:102E980003F345F4401543EA020420462946BDE8F9
:102EA800F08100BF70B5012182B016461C46FFF7BD
:102EB800EDFB054600284CD02346C4F30A54C3F35F
:102EC80013030CB143F48013002E019322D06846FB
:102ED8000096FFF707FD002837D0019BC0F12002BC
:102EE800009903FA02F20A43C34001936A61002B76
:102EF80014BF02210121AB612961B4B1069BA4F280
:102F0800334404441C60079BC0F135001860284610
:102F180002B070BD01A8FFF7E5FC0123019A19462C
:102F28002030C5E90432002CE8D1069A05EB81036C
:102F3800A0F2324010601869FFF7B4FC079BC0EBA1
:102F480041101860284602B070BDDDE900236A61AF
:102F5800CDE70246024B40F20A31024802F042F83D
:102F6800245F01089C5F01082DE9F04383B00F46F8
:102F780069460646FFF738FF04460D46384601A95C
:102F8800FFF732FF36693A698946DDE90013B61A58
:102F9800CB1A03EB4613002B80460BDD05EB0357DA
:102FA8003D4642464B462046294605F091F903B076
:102FB800BDE8F083C3EB033309EB03518946F0E71F
:102FC8001728D0B504460ADD002000260749084F17
:102FD80032463B4605F052F8013CF9D1D0BD054BCD
:102FE80003EBC004D4E90401D0BD00BF0000F03FEA
:102FF80000002440E854010870B414694E1E02F120
:103008001403761103EB840101368B4200EB86062C
:103018000CD2041F53F8045B994244F8045FF9D8B2
:103028008B1A153B23F0030304331844864204D952
:10303800002340F8043B8642FBD870BC704700BFB1
:1030480003694A11934210B400F114040FDA04EB37
:1030580083039C421CD253F8040C043B18B114E0BF
:1030680053F8042D8AB99C42FAD310BC704704EB7C
:103078008203EEDD11F01F01EBD054F8220020FA94
:1030880001F202FA01F18842E3D0012010BC704736
:103098000020EAE738B502FB01F42146FDF7A4F960
:1030A800054618B122460021FDF7FAF8284638BD32
:1030B8002DE9F0478E6880469E420C461D4617460D
:1030C800086836D8B1F80CC01CF4906F0DD135469D
:1030D8002A46394603F08AFB0020A2682368961B1B
:1030E8002B44A6602360BDE8F087D1E9041606EBFF
:1030F800460606EBD676A0EB0109013376104B4461
:10310800B342324684BF1E4632461CF4806F12D04A
:1031180011464046FDF768F9824600B34A462169E0
:10312800FFF73AFAA38923F4906343F08003A3815D
:1031380006E01E46CCE7404603F0BEFB824650B18F
:10314800A6EB09030AEB09006661C4F810A0206029
:10315800A3602E46BCE721694046FDF7F1F80C2331
:10316800C8F80030A3894FF0FF3043F04003A38133
:10317800B9E700BF2DE9F04F936883B09046002B64
:103188006DD0176882460C46086808378D6843E09A
:10319800A38913F4906F2ED0D4E9041505EB4505E7
:1031A800A0EB010B05EBD5750BEB06006D1001309C
:1031B800A8422A4684BF05462A465B0536D51146ED
:1031C8005046FDF711F900283AD05A462169019076
:1031D800FFF7E2F9A289019B22F4906242F0800293
:1031E800A281A5EB0B0203EB0B006561B3463546E4
:1031F80023612060A2605A46494603F0F7FAD8F8DE
:103208000830A2682068551B58449E1BA5602060A2
:10321800C8F808601EB3083757E90296AB46002E77
:10322800F9D0AE42B4D23546B346E4E7504603F08F
:1032380043FB03460028D4D121695046FDF780F8A6
:103248000C2300224FF0FF30CAF80030A38943F066
:103258004003A381C8E9012203B0BDE8F08F002034
:10326800C8F8040003B0BDE8F08F00BF2DE9F04FA7
:103278008B4689899FB00C069046029004D5DBF8EE
:103288001020002A00F00D81002020213022059313
:1032980098F8003001270B908DF831108C4E8DF87E
:1032A8003220002B00F08680252B00F0F880454660
:1032B80003E0252B00F0888025466B786C1C002BDA
:1032C800F7D1B4EB080A75D04246534659460298DE
:1032D800FFF7EEFE01306DD00B9B6A7853440B93D9
:1032E800002A67D000234FF0FF3201340693CDE95E
:1032F80008338DF85B301C93079206E02C46069B3A
:10330800801B07FA00F0184306902546052215F899
:10331800011B304603F024FAAA460028EED1069B8A
:10332800D90644BF20228DF85B201A0748BF2B22FC
:10333800217848BF8DF85B202A2949D1059A116860
:103348000432002905927FDB09916178A51C2E299A
:1033580057D0604C0322204603F002FA002869D0B7
:103368004022069B001B02FA00F00343069305F176
:1033780001082B780622194657488DF8303003F09B
:10338800EFF9002866D0554B002B56D005AB0093BB
:103398005A46534B06A90298AFF300808146B9F10B
:1033A800FF3F07D00B9B4B440B9398F80030002B42
:1033B8007FF47AAFBBF80C305B064CBF4FF0FF30A0
:1033C8000B981FB0BDE8F08FB4EB080A8AD07BE7F2
:1033D800A1F13002092A88BFA246B8D8099B01E0AA
:1033E8002C460135297803EB830302EB4303A1F153
:1033F8003002092AAA46F3D92E2904F102050993B5
:10340800A7D19AF801102A292ED1059B0AF10200AA
:103418001A680433002A079205939AF802100AF1F1
:10342800030537DB2B4C82460322204603F098F92C
:10343800002895D1A84655469BE7059B073323F0FE
:10344800070308330593ADE7494243F002030991A6
:1034580006937AE705AB00935A46214B06A90298D2
:1034680000F086FA81469AE70023A1F13002092A82
:10347800079301D923E05546697803EB830302EBF0
:103488004303A1F13002092A05F1010AF3D90235F3
:1034980007935EE74FF0FF338246079359E74446A8
:1034A80020E740210393FCF79FFF039BCBF8000024
:1034B800CBF8100030B14022CBF81420E4E6AA463D
:1034C800013546E70C23029A4FF0FF30136078E786
:1034D800D05F0108D85F0108DC5F01080000000028
:1034E800B93000089368013B002B93600FDA10B4E1
:1034F8009469A34208DB0A2906D01368581C106097
:103508001970084610BC704710BC01F045BC136820
:10351800581C106019700846704700BF9BB1F8B579
:1035280013440F4606465D1E541E01E0AC4208D007
:103538003A4614F8011F3046FFF7D4FF431CF5D173
:10354800F8BD0020F8BD0020704700BF936810B593
:10355800144613B95360184610BD02F0E9FE002363
:10356800C4E9013310BD00BF2DE9F04F9FB08B4671
:1035780090461C46039018B18369002B00F0B9806F
:10358800A34B9B4500F0BB80A24B9B4500F0C98034
:10359800A14B9B4504BF039BD3F80CB0BBF80C3080
:1035A800180740F1B480DBF81030002B00F0AF8032
:1035B8003023002120228DF8323098F8003005940D
:1035C8000B918DF83120954E0127002B00F0898052
:1035D800252B00F01781454603E0252B00F0A58038
:1035E80025466B786C1C002BF7D1B4EB080A78D011
:1035F8004246534659460398FFF790FF013070D072
:103608000B9B6A7853440B93002A6AD000234FF02F
:10361800FF3201340693CDE908338DF85B301C93F3
:10362800079206E02C46069B801B07FA00F0184319
:1036380006902546052215F8011B304603F090F840
:10364800AA460028EED1069BD90644BF20228DF851
:103658005B201A0748BF2B22217848BF8DF85B20D2
:103668002A2967D1059A1168043200290592C0F207
:103678009E8009916178A51C2E2974D0684C03227C
:10368800204603F06DF8002800F087804022069B52
:10369800001B02FA00F00343069305F101082B789A
:1036A800062219465F488DF8303003F059F8002893
:1036B80000F083805C4B002B72D005AB00935A4618
:1036C8005A4B06A90398AFF300808146B9F1FF3F32
:1036D80007D00B9B4B440B9398F80030002B7FF4DA
:1036E80077AFBBF80C305B0618D40B981FB0BDE859
:1036F800F08FFEF7DDFA464B9B457FF445AF039B01
:10370800D3F804B0BBF80C3018073FF54CAF594656
:10371800039801F0E7FB00283FF44AAF4FF0FF3071
:10372800E4E7039BD3F808B038E7B4EB080A3FF4A2
:103738006DAF5DE7A1F13002092A88BFA2469BD888
:10374800099B01E02C460135297803EB830302EB42
:103758004303A1F13002092AAA46F3D92E2904F11C
:10376800020509938AD19AF801102A292FD1059BBD
:103778000AF102001A680433002A079205939AF89E
:1037880002100AF1030538DB254C82460322204645
:1037980002F0E6FF00287FF479AFA84655467EE799
:1037A800059B073323F007030833059391E7494244
:1037B80043F00203099106935CE705AB00935A4670
:1037C8001A4B06A9039800F0D3F881467EE7002338
:1037D800A1F13002092A079301D915E05546697805
:1037E80003EB830302EB4303A1F13002092A05F13D
:1037F800010AF3D90235079340E74FF0FF338246B9
:1038080007933BE7444601E7AA46013536E700BF80
:10381800BC5301089C5301087C530108D05F010880
:10382800D85F0108DC5F01080000000025350008AA
:1038380010B4044C13460A460146206810BCFFF732
:1038480093BE00BF000000202DE9F0470C4609692F
:10385800A56891468D42B8BF0D46156094F843108F
:1038680006461F46DDF8208011B16A1CC9F8002001
:10387800236899065CD5D9F800200232C9F80020DF
:10388800236813F0060F19461DD1E1688A1A002A29
:10389800D8BF194617DD002504F1190A05E0E368C9
:1038A800D9F800209B1AAB420CDD01235246394659
:1038B8003046C047013005F10105F0D14FF0FF3027
:1038C800BDE8F087216894F84330003318BF01231E
:1038D8008A060AD53021E21882F8431094F8451078
:1038E8005A1C224482F84310023304F14302394639
:1038F8003046C0470130E1D02368A26803F00603D0
:10390800042B21691DD08A4226DD4FF00009521A86
:10391800914400251A3401E04D451DDA0123224661
:1039280039463046C047013005F10105F4D1C5E7F5
:1039380013F0060F13D094F84330003318BF012357
:10394800D3E7D9F80000E3688A42A3EB000323EA2F
:10395800E379DCDC002BDCDC0020BDE8F087E168E3
:10396800D9F800208A1A002AD8BF194693DCAAE79A
:103978002DE9F0430C46097E85B06E2906461746A8
:10398800984604F1430C0C986DD039D9732900F08E
:10399800F48044D9752900F00281782940F00F811C
:1039A80078232268DFF854E284F845300168150668
:1039B80051F8043B016040F1A180D10744BF42F0B7
:1039C80020022260002B00F093801022002184F84E
:1039D800431060680028A060C0F2C680216821F00A
:1039E80004012160002B40F0A280002840F0BE8036
:1039F8006546082A00F0AB80ACEB0503236141E083
:103A0800632900F0E3801AD8002938D0582940F0FB
:103A1800D68084F845102268DFF8E4E1C6E76F290C
:103A280000F0BD80702940F0CA8078232268DFF852
:103A3800CCE142F02002226084F84530B6E76429E0
:103A480002D0692940F0BB8022680368110603F19F
:103A5800040557D5196805600B46002959DB0A2269
:103A6800DFF89CE1B5E7036822681D1D6169056000
:103A780015061B6802D4500600F1BB8019600023AC
:103A880065462361CDF800803B4603AA21463046AF
:103A9800FFF7DAFE013020D02A462369394630463E
:103AA800C047013019D0226803989207E36819D5F6
:103AB8001A1A002A16DD002504F1190904E0E36842
:103AC80003981A1AAA420DDD01234A4639463046A0
:103AD800C047013005F10105F1D14FF0FF3005B0C5
:103AE800BDE8F0839842B8BF184605B0BDE8F0833A
:103AF8002168102221F02001216067E7500648BFA5
:103B08009BB25AE75106A5D5B3F9003005601946AE
:103B1800A3E72D2061685B42002984F84300A16077
:103B280002DB22F0040222600A22DFF8D4E06546B4
:103B380000E00B46B3FBF2F102FB11301EF8000067
:103B4800934205F8010DF4D2082A7FF455AF236893
:103B5800DB077FF551AF626823699A423FF74CAFA4
:103B68003023013D2B7047E7002BE0D19EF8003051
:103B780004F1420584F842303BE703686268191D86
:103B880001601D680021284602F0EAFD002832D0B5
:103B9800401B60602061002384F8433072E722688C
:103BA800036812F0800F03F104051AD01B68056042
:103BB8006F290CBF08220A22DFF844E006E7012338
:103BC80084F84210236104F14205E4E70122036806
:103BD80004F14205191D1B68016084F84230226116
:103BE800D9E712F0400F0DBF1B6805601B88056000
:103BF800DEE7198043E76068CCE700BFF85F01089B
:103C0800E45F010800200149704700BF0000F87F09
:103C1800004870470000C07F10B50C46B1F90E107F
:103C280002F070FE002803DB636D0344636510BD7A
:103C3800A38923F48053A38110BD00BF00207047DF
:103C48002DE9F041B1F90C409846E3050D461746B9
:103C5800B1F90E10064609D424F48054AC814346C9
:103C68003A463046BDE8F04101F026B90223002269
:103C780002F0E8FCB5F90C40B5F90E10ECE700BF0E
:103C880010B50C46B1F90E1002F0DCFCA389421CF9
:103C98000EBF23F4805343F480536065A38110BDA5
:103CA800B1F90E1001F012BA20F0030110F0030070
:103CB800C0F1000051F8043B00F1040C4FEACC0CB1
:103CC8006FF000021CBF22FA0CF213434FF0010CF4
:103CD8004CEA0C2C4CEA0C4CA3EB0C0222EA030233
:103CE80012EACC1204BF51F8043B0430F4D0C2F1FC
:103CF800000102EA0102B2FA82F2C2F11F0200EBED
:103D0800D2007047002A44D040EA010313F00303AD
:103D1800F0B425D1032A23D904680D68AC423AD1FE
:103D2800043A33D0A4F1013525EA040414F0803FA5
:103D38002CD1071D0D1D0DE057F8043B0E68A3F1AB
:103D48000134B34224EA030425D1043A1ED014F006
:103D5800803F1BD1032A2946384605F10405EBD8D4
:103D680003780D78561E9D420DD17EB173B104467D
:103D780002E082180AD04BB114F8013F11F8015F34
:103D8800321BAB42F5D0581BF0BC70470020F0BC8A
:103D980070471046704703780D78561E9D42E5D04F
:103DA800F1E700BF002B2DE9F04F9846BBBF03F1A8
:103DB8000043984600232D2389B0DDE916A5BAF102
:103DC800660FDDE9141B9146129F199E0B601CD0EB
:103DD800BAF1460F19D02AF02003452B4FF0020103
:103DE80043464CD007ACCDE9001706A9CDE903142A
:103DF800CDF808B001F012FABAF1670F044649D1BC
:103E0800139BDB0749D4079B1DE0032107AC0091F6
:103E180006A94346CDE903144A46CDE9017B01F0E2
:103E2800FDF90446237800EB070A302B42D0DBF873
:103E380000705744484641460022002304F086FBA0
:103E480068B33B4607971B1B002B2B6013DD002E26
:103E580011DD189A013E2644631E111F01E0B3428A
:103E680009D058789A1C41F8040F2868121B904210
:103E780003F10103F3DC189809B0BDE8F08F07AC33
:103E88000091013706A9CDE90314CDE9017B01F0C2
:103E9800C5F90446BAF1470FB2D02744CAE7079BD1
:103EA8009F42D0D930215A1C07921970079BBB42F8
:103EB800F9D3C8E7484641460022002304F046FBF0
:103EC8000028B4D1C7F10107CBF80070B1E700BFF3
:103ED8002DE9F04F0024D7B08B4690460E931D94E1
:103EE800824602F0A7FB0268BBF80C3012781B066A
:103EF8001A9204D5DBF81030002B00F0B6840023AA
:103F0800CDE91433CDE916330C93D8F80030002BE3
:103F180000F0D480252B00F02885444603E0252BAB
:103F280000F0D9802C466368251D002BF7D1A5EB3E
:103F38000803A8454FEAA30600F0C0804246594648
:103F48005046FFF7B5F8013000F0B8800C9A636866
:103F580032440C92002B00F0B180002305F10408D4
:103F68001A4619461E461D464FF0FF37199358F852
:103F7800044BA4F12003582B00F2A982DFE813F0C8
:103F8800B500A702A702D300A702A702A702A702AB
:103F9800A702A702BB00B800A702C300D600A70269
:103FA800F000C600C600C600C600C600C600C600AF
:103FB800C600C600A702A702A702A702A702A70277
:103FC800A702A702A702A702A702F600A702F60007
:103FD800A702A702A702A702F300A702A702A70247
:103FE800A702A702A702A702A702A702A702A70281
:103FF8007E02A702A702A702A702A702A702A7029A
:10400800A702A702A70208028502F600F600F6003A
:1040180005028502A702A702B200A702D601BD01C8
:104028009101B200A7025301A7024501A702A70206
:10403800E801A300B84A59465046FFF739F801305D
:1040480036D0DDE91C2313999A424FEA810502DB39
:104058000899C80709D504231AAA59465046FFF7F4
:1040680027F8013024D0DDE91C23C5EB8304A41014
:104078009B1A9C42A8BF1C46002C00F3AF84002C5E
:10408800B4BF1C461C1B002C40F3F782102C40F3D5
:10409800B784A14D02E0102C40F3B28440232A4695
:1040A80059465046FFF704F80130A4F11004F2D144
:1040B8000F9B1BB10F995046FCF742F9BBF80C3027
:1040C80013F0400F0C9B18BF4FF0FF330C930C9864
:1040D80057B0BDE8F08FA8453FF43FAFA5EB080304
:1040E8009E102BE745F0100541E700297FF43FAF0C
:1040F800214601223BE70E9B53F8046B002E0E93DA
:10410800BFF635AF764245F0040530E7002606EBEA
:10411800860604EB460658F8044B303EA4F13003FB
:10412800092BF4D925E745F0010520E758F8044B99
:104138002A2C00F00E86A4F13003092B4FF000075B
:104148003FF617AF07EB870704EB470758F8044B10
:10415800303FA4F13003092BF4D947EAE77708E7A1
:1041680045F0800503E745F0080500E70D94002AAF
:1041780040F058840E9B4FF0FF3203F1070929F0F5
:104188000709D9F8003009F1080408931493D9F8FD
:1041980004300E94194621F00040099015910B90B7
:1041A8005E4BDDE9080104F003FA002840F0D882EC
:1041B800149C0B9920464FF0FF32584B04F0DAF963
:1041C800002840F0CD82204615990022002304F0F3
:1041D800C7F9002840F0ED84199803210024504ABB
:1041E800504B0B910F9410910D992746472994BF76
:1041F8009146994625F0800508951394002800F00B
:10420800E0800B9B01330B93DBE00E9AE80652F833
:10421800043B0D940E9200F19F82690640F19C8246
:104228009BB201224DE00E9B0D941A46002352F8D2
:10423800049B19930892B9F1000F00F02B8315F035
:104248001001139140F030837B1C00F02A853A4618
:10425800484602F085FA08B1A0EB0907272F00F2BB
:104268002685002F00F07D8500232EA80F930021BE
:1042780084460D9C09F1FF32031F12F8010F01312A
:104288008F4243F8040FF8D8E1460D9410910CEBD7
:1042980081020B910027089B17600E9308951998C7
:1042A800ACE730227824CDE91E241F4ADDF8389087
:1042B8001692022259F8043B45F00205CDF83890D1
:1042C8000D94002108461991791C00F0118125F000
:1042D80080010891002B40F00A81002F40F01C82D9
:1042E800002A40F02E8215F00103109300F0858318
:1042F80030230DF5AA79559339E10E9A15F010017E
:1043080052F8043B0D940E9240F0288215F04002BA
:10431800D7D09BB20A46D4E750560108FFFFEF7F7B
:104328000C6001081C6001084C600108002A40F07C
:1043380077830E9AE80602F1040300F10782690602
:104348000E9A40F1038212680E930C9B1380DCE5F1
:104358000D94002A40F06983AB4B16930E9A52F8DD
:10436800043B0E92EA0602D46C0648BF9BB2E807EB
:1043780040F1BB80002B00F0B88030220D991E92CE
:104388001F9145F0020502229BE745F04005EEE546
:104398000D94002A40F04B830E9BEF0653F8040B54
:1043A8000E9340F13083002301222E900B922F931D
:1043B800199310920DF1B80900231F460F93089521
:1043C8001393089B13F00203119302D00B9B023343
:1043D8000B93089B13F08403129304D10B9BF51ADB
:1043E800002D00F37B81199B002B40F0E180119B8D
:1043F800002B40F0EA80129B802B00F0C180109BBC
:10440800FD1A002D00F3EB80089BDF0540F1628167
:104418000D9B652B40F20081DDE914010022002389
:1044280004F094F8002840F06B821C9B002B40F3AA
:10443800B3821D9B43F31D04139B9C42A8BF1C46DB
:10444800002C00F3EB81139B002CA8BF1B1B002B37
:104458001C467FF7F6AD102B7FF7EBAD6B4D02E0F6
:10446800102C7FF7E6AD40232A4659465046FEF702
:104478001FFE0130A4F11004F2D119E60D94002AB0
:1044880040F0D782624B169368E70D94002A40F0FB
:10449800D2820E9AE90652F8043B0E9240F1B78197
:1044A800002BC0F2F2817A1C199844D025F08002C2
:1044B8000892002B3ED1002F00F04381089D303335
:1044C80055930123089510930DF5AA794FE00D94A3
:1044D800002C3FF4F3AD012200230D990B922E918D
:1044E800199310920DF1B80966E70222E9E6089DD2
:1044F800012A20D0022A00F0168156A90D9C00E05E
:10450800494603F007023032DB0841F8042CA1F1D8
:104518000409F5D1EB070D9423D5302A21D0302397
:10452800083956AA521A921049F8043C0895109274
:1045380089461CE0089D092BC1D90DF5AC79DFF837
:10454800D4C00D9C00E00B46ACFB0321C90801EB6D
:104558008102A3EB42023032092B49F8042DF2D82C
:104568000D9456ABA3EB09039B1008951093109A72
:104578000023BA42B8BF3A460F930B9213933DE615
:104588000B9BF51A002D7FF73AAF102D40F3F18100
:104598000D9C02E0102D40F3EB8140231B4A594645
:1045A8005046FEF785FD0130A5F11005F2D17FE5F3
:1045B800042319AA59465046FEF77AFD01303FF404
:1045C80077AD119B002B3FF416AF08231EAA59465E
:1045D8005046FEF76DFD01307FF40DAF68E5102DF4
:1045E80040F39080094F0D9C02E0102D40F3898024
:1045F80040233A4659465046FEF75AFD0130A5F188
:104608001005F2D154E500BF4C600108505601086E
:1046180090600108CDCCCCCC1D9B012B03DC089B02
:10462800D90740F1058104234A4659465046FEF70A
:104638003FFD01303FF43CAD04231AAA59465046C9
:10464800FEF736FD01303FF433ADDDE914011D9C62
:1046580000220023013C03F079FF002800F081814B
:10466800002C00F3EF80179B20AA9B005946504668
:10467800FEF71EFD01303FF41BAD089B5D0703D517
:104688000B9BF41A002C1ADCDDE90B239642ACBF15
:104698009B199B180C930F9B002B3FF436AC0F997A
:1046A8005046FBF74DFE30E44023B74A5946504682
:1046B800FEF7FEFC0130A4F110043FF4F9AC102C15
:1046C800F2DCA300B04A59465046FEF7F1FC01302F
:1046D800DAD1EDE4109B4A469B00C7E7102D40F362
:1046E80004810D9C02E0102D40F3FE804023A64A71
:1046F80059465046FEF7DCFC0130A5F11005F2D111
:10470800D6E40D94AB00A14A59465046FEF7D0FCBA
:1047180001307FF479AECBE4012A3FF4CFAE022A10
:10472800089D7FF4EAAE0D9C16990DF5AC7903F05F
:104738000F0251F822201B0949F8042DF7D10D94D6
:104748000FE700270DF5AC79109710E712680E9364
:104758000C9B1360FFF7D9BB0122B2E50022B0E53C
:10476800149C22462046159C2346214603F020FF30
:10477800002840F0CA8245F4807308937B1C00F03F
:104788002D820D9B0F9023F02003472B149A00F0E5
:10479800738128201DAC11941CAC10940D9C2EA97B
:1047A8000494089C1291CDE9007406910C46119965
:1047B8000DF16C0C0591109907900391159BCDF89C
:1047C80008C05046CDF82CC0FFF7ECFAA04281464D
:1047D8000F9900F0B0821C9B13930D9B662B40F041
:1047E800D282139A05F00103002A43EA070340F333
:1047F800A782002B40F08482139B0B9310931B9F7E
:10480800002F00F0C6812D2300271993F9E46A06CA
:1048180048BF1BB2002BBFF646AE36E0A3004A469F
:1048280059465046FEF744FC01307FF40CAE3FE495
:104838004A46042359465046FEF73AFC01307FF4B5
:1048480012AF35E4102C40F3A181504D02E0102C3A
:1048580040F39C8140232A4659465046FEF728FCDF
:104868000130A4F11004F2D122E440215046FBF7B4
:10487800BBFDCBF80000CBF81000002800F07B82CD
:104888004023CBF81430FFF73ABB2D205B42199038
:10489800012219E5062F3B4628BF06230E921093E6
:1048A8000B93DFF8F09087E57C1C00F087811946B0
:1048B8003A46484600F0E8FA00230F90002800F036
:1048C800D1800F9A1998A2EB09029210BA42A8BF98
:1048D8003A461F46089B10920E9322EAE273089507
:1048E8000B930F97139789E40D94AB00264A59460A
:1048F8005046FEF7DDFB01307FF475ADFFF7D8BBFE
:104908000423234A59465046FEF7D2FB01303FF4B0
:10491800CFABDDE91C239A4203DB089BDC077FF55C
:10492800ACAE04231AAA59465046FEF7C1FB013023
:104938003FF4BEAB1D9C013C002C7FF79EAE102CB3
:104948005EDD124D01E0102C5ADD40232A465946FF
:104958005046FEF7ADFB0130A4F11004F3D1FFF788
:10496800A7BBA30009F1040264E74546FFF7F5BABF
:104978000D94AB00054A59465046FEF799FB0130A5
:104988007FF43DADFFF794BB10560108505601085F
:10499800F0600108D46001080423AE4A5946504625
:1049A800FEF786FB01303FF483ABDDE91C21089B51
:1049B8000A4303F0010313433FF45FAE04231AAA2A
:1049C80059465046FEF774FB01303FF471AB1C9B0F
:1049D800002B32DB1D9B4A469B0047E609EB05028C
:1049E800A30059465046FEF763FB01303FF460AB25
:1049F800DDE91C239B1AFFF742BB0DF5AC79B6E540
:104A0800A300954A32E600F011FB441C7FF4CBACBE
:104A1800BBF80C3043F04003ABF80C30FFF750BB49
:104A2800199186E41991FFF7A5BB199194E419919E
:104A3800B2E4199126E519912BE55C42103380F216
:104A48004B81854D02E0102C40F3468140232A46D5
:104A580059465046FEF72CFB0130A4F11004F2D160
:104A6800FFF726BB089B0B971097139007460E93EA
:104A780008951998FFF7C2BB002F08BF0127282007
:104A88001DAC11941CAC10940D9C2EA90494089C88
:104A98001291019406910C4611990DF16C0C059137
:104AA800109907900391159B0097CDF808C05046C0
:104AB800CDF82CC0FFF776F9A04281460F9900F097
:104AC800CF801C9B0F911393139BDDF874C0DA1CE5
:104AD80001DB9F4260DA0D9B023B0D93139B0D99FE
:104AE8005A1E002AA8BF2B231C92BCBFC3F1010287
:104AF8002D23092A2091219340F3E4801298574FDF
:104B08000D9C01E008461A4687FB0231D317C3EB18
:104B1800A10303EB8301A2EB41013031632A40F882
:104B2800041CA0F10401EDDC129FA0F1080230334F
:104B38009742A6460D9441F8043C40F219810A4672
:104B4800744622A901E052F8043BBA4241F8043BFA
:104B5800F9D30DF1BF031B1A23F0030322AA043370
:104B6800134420AA9B1A9B100D941793179BBCF112
:104B7800010F6344109340F3BA80109B01331093E4
:104B880023EAE3730B930023139338E6A300324A16
:104B980050E61998FFF732BB139B63454CDBEC07D3
:104BA80000F1978023EAE372109367230B920D9329
:104BB80025E62D2318461993FFF70FBB48461F46D5
:104BC800FCF74CFF089B10900E9320EAE0730895C1
:104BD8000B930F9713971998FFF710BB0F900627A1
:104BE80028201DAC11941CAC10940D9C2EA9049483
:104BF800089C1291019406910C4611990DF16C0CC8
:104C08000591109907900391149A159B0097CDF878
:104C180008C05046CDF82CC0FFF7C4F8A042814622
:104C28000F991DD00F910D9B1C9A23F02003472B41
:104C380013927FF4D2AD47E7139B002BCCBF01231F
:104C4800C3F102036344109323EAE3730B936723CE
:104C58000D93D4E5F0600108505601086766666652
:104C68001D9B282B62DD99005046FBF7BDFB0F907A
:104C780000283FF4CDAEDDE914230F981D99069066
:104C88001198079105900D980490109803900B982F
:104C980002900898CDE900705046FFF783F88146E6
:104CA800C1E74846FFF700F80746FFF7D7BA791C6F
:104CB80089005046FBF798FB00283FF4A9AE0F90F7
:104CC800FFF7D5BA30231A44CDE9223204231793CB
:104CD8004CE7139B0133B6E7A3002C4A59465046CC
:104CE800FEF7E6F901307FF475AEFFF7E1B915F08C
:104CF800010213927FF441AF23EAE3730B937EE53D
:104D08007D1CAB1810930B9379E5159B0321002BA1
:104D1800B8BF2D234FF00004BABF1846199319984D
:104D28000B910F941A4A1B4BFFF75DBA0023DDF86D
:104D380048900F9377E71D9B282B94DC0F914AE549
:104D48001BB901230B93109359E5BB1C10930B93CC
:104D580055E50E9B53F8047B47EAE7770E93FFF778
:104D680006B92EAA0B97CDE90F779146FFF792BAAD
:104D780002231793FAE60C234FF0FF32CAF80030EB
:104D88000C92FFF7A4B9DDF874C0A7E650560108E5
:104D98002C6001083C600108F8B50D46144606462B
:104DA80008B1836943B3254B9C422AD0244B9C42CB
:104DB80029D0244B9C4208BFF468A269A389A26049
:104DC8001A0722D5236903B322686169D31AEDB2A1
:104DD80099422F4629DD0133A168501C0139A16091
:104DE8002060157062699A4216D0A389DB0701D545
:104DF8000A2D11D03846F8BDFCF75AFF0F4B9C42DC
:104E0800D4D17468D9E7B468D7E72146304600F0B2
:104E180069F838B92369D7E72146304601F022FA04
:104E28000028E7D04FF0FF37E4E72146304601F08D
:104E380019FA0028F6D101232268CDE7BC530108EE
:104E48009C5301087C530108024B0A460146186826
:104E5800FFF7A2BF0000002010B4034CD4F8E040D4
:104E6800A44610BC604700BF6800002019B1FF2AA3
:104E780003D80A700121084670478A234FF0FF3192
:104E880003600846704700BF9AB1036899420FD083
:104E980030B4031D002402E005688D4206D00134B9
:104EA800A242184603F10403F6D1002030BC704733
:104EB80070471046704700BFF8B50E460025084CED
:104EC800114607461A463046256004F0E3F8431CAD
:104ED80000D0F8BD2368002BFBD03B60F8BD00BFB5
:104EE800B07500203B4B70B51D6806460C460DB1E9
:104EF800AB69DBB1384B9C421ED0384B9C424AD040
:104F0800374B9C4208BFEC68B4F90C2093B21907E0
:104F180018D5206908B313F001022CD00022636968
:104F2800A2605B42A36160B3002070BD2846FCF715
:104F3800BFFE294B9C42E0D16C68B4F90C2093B2B7
:104F48001907E6D4DD063CD5580726D4206942F077
:104F58000803A3819BB20028DDD103F42072B2F5C7
:104F6800007FD8D03046214601F0B0FBA3892069E4
:104F780013F00102D2D1990758BF6269A2600028D4
:104F8800D2D1B4F90C301A06CFD543F04003A3812F
:104F98004FF0FF3070BDAC68B6E7616B51B104F1FA
:104FA8004403994204D03046FBF7CAF9B4F90C20FF
:104FB800002363630023206922F02402C4E900036C
:104FC800C5E7092342F0400233604FF0FF30A28169
:104FD80070BD00BF00000020BC5301089C530108AD
:104FE8007C53010800B50A4C0546206885B01C466C
:104FF800C06852B1074BCDE9013200912B462246D9
:10500800054901F081F901F093FC044B1A46F2E7D7
:1050180000000020F860010808610108C056010876
:1050280008B513460022FFF7DDFF00BF431C3CD044
:105038000346F0B587B004AE204F30460822002161
:105048008DF80B30FBF72CF93D68AC6D94B11C4B17
:105058000096D3F8E440284601230DF10B0203A97A
:10506800A047012802D8039807B0F0BD4FF0FF30E1
:1050780007B0F0BD5020FBF703F9A865C0B13D6843
:10508800AB6DC3E90044C3E90244C3E904449C612D
:10509800C3E90A44C3E90C44C3E90E44C3E9104414
:1050A800C3E912441C775C62D1E74FF0FF307047C8
:1050B8000246044B18210448FFF794FF0000002023
:1050C80068000020845F01083861010838B50023B2
:1050D800064C05460846236002F0CCFD431C00D070
:1050E80038BD2368002BFBD02B6038BDB07500207D
:1050F8002DE9F04F03690E6983B0B342C0F289808D
:10510800013E01F1140500F1140955F8263059F84B
:10511800262001338246B000009005EB00089A4231
:105128004844B2FBF3F701903CD30022AE46144644
:10513800CC465EF8043BDCF800001FFA83FB07FB53
:105148000B221B0C4FEA124B07FB03BB93B2E31A6B
:1051580082B21FFA8BF41344C4EB104404EB2344CB
:105168009BB243EA0443F0454CF8043B4FEA24441D
:105178004FEA1B42DDD2009B59F8033093B9019ADC
:10518800131F99450CD252F8043C4BB9A2F10803FD
:1051980002E01A68043B1AB9994506F1FF36F8D3BC
:1051A800CAF810605046FDF74FFD00282DDB484631
:1051B8000023013755F8041B04688AB29A1A0B0CAD
:1051C800A1B20A44C3EB144303EB224392B242EA6E
:1051D8000342A84540F8042B4FEA2343EAD259F882
:1051E800262009EB860382B91A1F91450BD253F882
:1051F800042C42B9083B02E01A68043B1AB99945E5
:1052080006F1FF36F8D3CAF81060384603B0BDE897
:10521800F08F002003B0BDE8F08F00BF2DE9F04FFC
:1052280016461F46456A97B00446CDE90267002D29
:1052380000F064832A6862B14FF0010C6B68114674
:105248000CFA03F5C2E90135FDF760FA0022636A3A
:105258001A603E1EB4BF01230023239AB8BF26F06C
:1052680000461360764BB8BF0396B34300F0B08096
:10527800DDE902231046194600220023CDE9080182
:1052880003F064F9074678B10123229A1360249B3E
:10529800002B00F04C836B4B249A1360013B049362
:1052A800049817B0BDE8F08F14AA15ABCDE9003209
:1052B800DDE90889204642464B46FDF7F3FD350DEA
:1052C800834640F09B80DDE91485454405F232436E
:1052D800202B40F3FC83C3F140039E40029B05F260
:1052E800124023FA00F0304302F04EFE024601203D
:1052F800013D0D90A1F1F873104619460022524B5A
:1053080002F004FD48A3D3E9002302F0B7FE48A346
:10531800D3E9002302F0FCFC064628460F4602F0BB
:1053280043FE45A3D3E9002302F0A8FE02460B463C
:105338003046394602F0ECFC06460F4603F04EF9BB
:105348000022824600233046394603F009F9002836
:1053580040F0E082A8EB05056B1EBAF1160F059325
:1053680000F2C182DDE90801384B03EBCA03D3E937
:10537800002303F0F5F800286ED000230C93059B5A
:105388000AF1FF3A002BC0F2B4824FF00009BAF1DB
:10539800000F67DACAF100030B93209BA9EB0A09F7
:1053A800092BCDF818A0626A4FF0000A64D8052BC3
:1053B80040F38B830025043B2093209B023B032B67
:1053C80000F27C86DFE813F0A404A1047A049404B4
:1053D80042F20F73229AC6F313061360029B3343FB
:1053E80019D1249B002B00F07886194B04930833BD
:1053F800249A0498136017B0BDE8F08FC9F313011D
:1054080041F07F534246A5F2FF350D9743F4401310
:10541800DDF8508070E7249B002B40F03D840D4B55
:1054280004933DE7AFF3008061436F63A787D23FE2
:10543800B3C8608B288AC63FFB799F501344D33F7B
:105448000000F07F7D6101080000F83FF854010872
:105458006C61010878610108059B0C90002BC0F273
:1054680048828146059B626A5344CDE9053A002388
:105478000B93209B092B9AD9002301252093219374
:105488004FF0FF330A9507930021079B5160109353
:105498002046FDF7FBF80490002800F01786636AA1
:1054A800049A1A60079B0E2B00F23481002D00F03D
:1054B80031810699002940F38284AA4B01F00F023A
:1054C80003EBC2030D11D3E90023CDE90E23EA064D
:1054D80040F14B84DDE90801A34B0327D3E90823F6
:1054E80002F0F6FECDE9020105F00F057DB1DDE918
:1054F8000E019D4EEB0704D5D6E9002302F0BEFD50
:1055080001376D1006F10806F4D1CDE90E01DDE989
:105518000201DDE90E2302F0DBFECDE902010C9B5E
:1055280043B1DDE902010022904B03F019F800288D
:1055380040F04885384602F037FDDDE9022302F0E5
:105548009DFD8B4B002202F0E3FBA1F15073CDE9E6
:105558000E010F93079B002B00F0BC80069B129353
:10556800079B1193DDE902673946304603F036F8A8
:10557800054602F019FD02460B463046394602F050
:10558800C5FB119A774B064603EBC2030F46DDE9CC
:105598000E120A98CDE9021253E902230499303514
:1055A8005FFA85F84D1C002800F09F84002071499F
:1055B80002F08EFEDDE9022302F0A8FB049B3246CE
:1055C80083F800803B46CDE9020102F0E7FF00289E
:1055D80040F0E68432463B460020644902F096FBE0
:1055E80002460B46DDE9020102F0D8FF002840F030
:1055F8005D85119B012B00F08980049ACDF84490B9
:105608001344CDF84CA0CDF838B09946DDE902AB8B
:10561800A0460FE032463B460020544902F076FB94
:1056280052465B4602F09CFF002840F010854D452D
:1056380000F016855046594600224F4B02F01EFDD9
:1056480000224D4B82468B463046394602F016FD05
:105658000F46064602F0C2FF044602F0A5FC0246C9
:105668000B463046394602F051FB3034E4B205F8B7
:10567800014B52465B4606460F4602F071FF002872
:10568800C8D04446129BDDF838B00133069359461A
:105698002046FDF73BF800232B70229B1A46069BF9
:1056A8001360249B002B3FF4FBAD04981D6017B0DA
:1056B800BDE8F08F384602F077FCDDE9022302F0FE
:1056C800DDFC2B4B002202F023FBA1F15073CDE946
:1056D8000E010F930022DDE90201284B02F016FBB0
:1056E800DDE90E783A46434605460E4602F056FF77
:1056F8000746002840F0E383DDE90E01024601F188
:1057080000432846314602F02BFF30BBDDE9082371
:10571800CDE90223159B002BC0F2C780069A0E2AFA
:1057280000F3C3800F4B03EBC203D3E9009A219B1C
:10573800002B25DA079F002F22DC40F07884002216
:105748000E4B4846514602F099FCDDE9022302F06F
:105758001BFF002800F0B483079F3E46219B049D51
:10576800DB43F2E2F8540108E85501080000F03F75
:1057780000001C400000E03F0000244000001440EE
:10578800DDE902674A4653463046394602F0A0FD35
:1057980002F024FF804602F007FC4A46534602F016
:1057A8006DFC0246304646460B46394602F0AEFAD4
:1057B800049D3036069F05F8016B079E0137012EC0
:1057C80002460B46069744D00022C44B02F056FC12
:1057D8000022002306460F4602F0B8FE00287FF498
:1057E80056AFCDF808B04FF00108DDF81CB00594AD
:1057F8000CE00022B94B02F041FC002200230646CF
:105808000F4602F0A3FE002840F050834A46534654
:105818003046394602F05CFD02F0E0FE044602F034
:10582800C3FB4A46534602F029FC02460B46304663
:10583800394602F06BFA08F1010804F13006C34555
:1058480002460B4605F8016BD3D1A046DDF808B037
:10585800059C1046194602F05BFA4A46534606462E
:105868000F4602F09BFE60B94A4653463046394619
:1058780002F06CFE00283FF40AAF5FEAC8717FF5BA
:1058880006AF15F8018C6B1E049A04E09A4200F0EA
:10589800BF8313F8018DB8F1390F03F10105F5D075
:1058A80008F10102D2B21A70F1E60A9A002A44D02D
:1058B800209A012A40F37682079B5F1E0B9BBB420E
:1058C800C0F24D82DF1B079B002BC0F2F482059AC1
:1058D8004D46114619440591994401212046FDF78A
:1058E80031F806462CE001230C93059B002BBFF6EC
:1058F8004CAD0023C5F10109059348E51020FAF7DE
:10590800BFFC6062002800F0EC83C0E90155056027
:10591800C5609EE4504602F047FB32463B4602F023
:1059280015FE00287FF416AD0AF1FF3A12E56C4B1C
:105938000493049817B0BDE8F08F4D460B9F0A9E5C
:10594800002D0BDD059A002A08DDAA421346A8BFE0
:105958002B46A9EB0309ED1AD31A05930B9BD3B178
:105968000A9B002B00F09181002F10DD31463A464A
:105978002046FDF7A3F85A46014606462046FCF79E
:10598800F7FF0346594620469B46FCF7BFFE0B9B94
:10599800DA1B40F07B8101212046FCF7D3FFBAF1E6
:1059A800000F074600F39E80209B012B40F379816E
:1059B800002308930120BAF1000F40F09F80059A58
:1059C800104410F01F0079D0C0F12003042B40F3DD
:1059D8008E83C0F11C000244814405440592B9F14C
:1059E800000F05DD59464A462046FDF7C9F88346AB
:1059F800059B002B05DD39461A462046FDF7C0F801
:105A080007460C9B002B40F02581079B002B40F399
:105A18000B810A9B002B40F08780069B013306937D
:105A2800049D4FF00108DDF81C9008E0594600235A
:105A38000A222046FCF790FE834608F10108394601
:105A48005846FFF755FBC14500F1300005F8010B3A
:105A5800ECDC03464FF0000A594601222046029327
:105A6800FDF78EF839468346FDF7EEF8002815F85D
:105A7800012C40F382816B1E049904E0994200F0E6
:105A88008A8113F8012D392A03F10105F6D0013274
:105A98001A7039462046FCF739FE002E3FF4F7AD60
:105AA800BAF1000F05D0B24503D051462046FCF7A5
:105AB8002DFE31462046FCF729FEE8E51C20059B13
:105AC800814403440544059389E7012575E4C3F13E
