:020000040800F2
:1000000000000120F55501087D9B00087F9B00083A
:10001000819B0008839B0008859B0008000000006E
:10002000000000000000000000000000879B0008A6
:10003000899B0008000000008B9B00088D9B000836
:100040003956010839560108395601083956010850
:100050003956010839560108395601083956010840
:100060003956010839560108395601083956010830
:100070003956010839560108395601083956010820
:100080003956010839560108395601083956010810
:100090003956010839560108395601083956010800
:1000A00039560108395601083956010839560108F0
:1000B000959B0008A59B0008E99B0008395601089C
:1000C00039560108395601083956010839560108D0
:1000D00039560108395601083956010839560108C0
:1000E0003956010839560108395601080000000048
:1000F0000000000000000000000000000000000000
:100100000000000000000000FD9B000839560108B7
:10011000395601083956010839560108395601087F
:10012000395601083956010839560108395601086F
:10013000395601080000000000000000395601088F
:10014000395601083956010839560108399C00080A
:10015000000000000000000000000000000000009F
:10016000000000000000000000000000000000008F
:10017000000000000000000000000000000000007F
:10018000000000000000000000000000000000006F
:10019000000000000000000000000000000000005F
:1001A000000000000000000000000000000000004F
:1001B000000000000000000000000000000000003F
:1001C000000000000000000000000000000000002F
:1001D000000000000000000000000000000000001F
:0401E0005FF8E0F1F3
:1001E800044B05481B1A062B02D9044B03B11847C8
:1001F800704700BFFF010020FC0100200000000044
:1002080005490648091A891001EBD171491002D035
:10021800034B03B118477047FC010020FC01002084
:100228000000000010B5064C237843B9FFF7D8FF4B
:10023800044B13B10448AFF300800123237010BDB1
:10024800FC010020000000007C56010808B5084B9E
:100258001BB108490848AFF300800848036813B980
:10026800BDE80840CCE7064B002BF9D09847F7E7E4
:1002780000000000000200207C560108FC0100205C
:1002880000000000002101F021BA00BF0A2200216D
:1002980001F076BB0A23002201F050BB024B014655
:1002A800186800F0A9B800BF00000020024B014602
:1002B800186800F04DB800BF00000020F0B48607B1
:1002C80043D0541E002A3ED0CAB2034602E014F1BD
:1002D800FF3438D303F8012B9D07F8D1032C2BD911
:1002E800CDB245EA05250F2C45EA054516D9A4F1F6
:1002F80010073F0903F1200606EB071603F1100269
:1003080042E9045542E902551032B242F8D104F0EC
:100318000F040137032C03EB07130DD91E462246A1
:10032800043A032A46F8045BFAD8221F22F0030293
:100338000432134404F003042CB1C9B21C4403F87A
:10034800011B9C42FBD1F0BC704714460346C5E72D
:10035800002934D038B551F8043C0C1F002BB8BF25
:10036800E418054602F00CFA224B1A682AB1A24298
:100378000DD921686018824235D0626028461C6019
:10038800BDE8384002F0FEB9A34203D81A465368C4
:10039800002BF9D111685018A04218D010D8216844
:1003A8006018834203BFD3E900030918C4E90013A6
:1003B800636054602846BDE8384002F0E3B97047EE
:1003C8000C2328462B60BDE8384002F0DBB92068D2
:1003D8000144501883421160ECD1D3E90003014471
:1003E800C2E90013E6E7D2E900020144C4E90012B9
:1003F800C4E700BF18020020F8B5CD1C25F003059E
:1004080008350C2D38BF0C25002D06463ADBA942CD
:1004180038D82A4F02F0B4F93A6852B113685B1B16
:1004280004D433E023685B1B25D522465468002C8E
:10043800F8D1796800293BD02946304600F074F895
:10044800431C2AD0C41C24F00304A04205D0211A5E
:10045800304600F069F801301FD02560304602F0C0
:1004680091F904F10B0020F00700231DC31A01D0F5
:100478005A42E250F8BD0B2B0BD8A24215D0636844
:100488005360EBE70C2300203360F8BD0B2B0BD92E
:10049800144623601C442560E0E70C233046336093
:1004A80002F070F90020F8BD54683C601446D5E7A6
:1004B800304600F039F87860BEE700BF1802002027
:1004C8000EB430B5044682B008B1836963B106AD95
:1004D8002B46059AA1682046019503F063F802B0FF
:1004E800BDE8304003B0704701F00AFCEFE700BFF9
:1004F8000FB430B50B4B83B01C680CB1A36963B162
:1005080007AD2B46069AA1682046019503F04AF8E4
:1005180003B0BDE8304004B07047204601F0F0FB5E
:10052800EEE700BF0000002038B50023064C054662
:100538000846236007F04AFC431C00D038BD2368F6
:10054800002BFBD02B6038BD0C7500200CB470B5A7
:100558006FF000459CB020AC54F8042B094E029172
:100568000691234602A901940795CDE9045602F0A5
:1005780093FE0022029B1A701CB0BDE8704002B0C6
:10058800704700BF0802FFFF0EB4034630B56FF096
:1005980000449CB01FA951F8042B0A480A4D029345
:1005A800069301910B46006802A90794CDE904451A
:1005B80002F072FE0022029B1A701CB0BDE83040A7
:1005C80003B07047000000200802FFFFC9B200F026
:1005D8000303002943D07BB10378002B67D09942ED
:1005E8003CD0431C05E013F8012B002A5DD08A4259
:1005F80034D09A071846F6D170B4046841EA012647
:1006080046EA064686EA0405A5F10133A4F101325B
:1006180023EA050322EA0402134313F0803F0FD1B3
:1006280050F8044F84EA0605A5F10132A4F101331C
:1006380022EA050223EA0403134313F0803FEFD0B4
:10064800037843B1994202D106E08B4204D010F8F6
:10065800013F002BF9D1184670BC704770475BB159
:100668000378002BFAD0431C03E002780133002AF8
:10067800F4D099071846F8D10268A2F1013323EAA9
:10068800020313F0803F08D150F8042FA2F1013380
:1006980023EA020313F0803FF6D00378002BDDD065
:1006A80010F8013F002BFBD17047104670471846E1
:1006B800704700BF80EA0102844612F0030F4FD151
:1006C80011F0030F32D14DF8044D11F0040F51F819
:1006D800043B0BD0A3F101329A4312F0803F04BFD0
:1006E8004CF8043B51F8043B16D100BF51F8044BB9
:1006F800A3F101329A4312F0803FA4F101320BD1E9
:100708004CF8043BA24312F0803F04BF51F8043B6D
:100718004CF8044BEAD023460CF8013B13F0FF0FCA
:100728004FEA3323F8D15DF8044B704711F0010FFD
:1007380006D011F8012B0CF8012B002A08BF7047CE
:1007480011F0020FBFD031F8022B12F0FF0F16BFC5
:100758002CF8022B8CF8002012F47F4FB3D170478D
:1007680011F8012B0CF8012B002AF9D1704700BFB2
:100778002DE9F04F1C460023A3B0074620460E463D
:1007880007921E9301F040FF0546006803F074FBD2
:100798000021002283463346CDE904121D961A46ED
:1007A80013F801ABBAF12D0F00F2F680DFE81AF06A
:1007B8005A00F400F400F400F400F400F400F4002B
:1007C800F400C600C600C600C600C600F400F40067
:1007D800F400F400F400F400F400F400F400F40071
:1007E800F400F400F400F400F400F400F400F40061
:1007F800C600F400F400F400F400F400F400F4007F
:10080800F400F400F4006700F400C3005A464846B8
:1008180003F060FB8646002840F05E831D9B72460D
:1008280003EB0B011D9113F80B30302B05D101316F
:100838001D910B780132302BF9D0A3F13101082931
:1008480040F2BD85652B40F03F8300234FF0010A3D
:100858001D4698460A93002A40F04F81099B002BB9
:1008680040F04B81079B0BB1079B1E604FF0000ABD
:100878004FF0000B5046594623B0BDE8F08F0023D7
:10088800089302F10109CDF8749092F801A0BAF129
:10089800000FE7D0BAF1300F00F0858000230993EC
:1008A800AAF13003DAB2092A2968AFD800254846E8
:1008B800A8462C4601301D90082C90F800A008EBA3
:1008C8008802CABF05EB850503EB420803EB450523
:1008D800AAF13003DAB2092A04F10104EAD95A4626
:1008E80003F0F8FA864658B30022534696469246D5
:1008F8000A94652B6ED0452B6CD00021002C40F05B
:10090800B9801AB9099A002A00F086824FF0000AC5
:100918004FF0000B079A0AB11D9B1360089B002B30
:10092800A8D051460BF100438A469B46504659468B
:1009380023B0BDE8F08F01230893A2E71D932EE7AB
:100948001D9B0A9403EB0B021D92024613F80B3011
:10095800A3F13001092900F23482531C8A46DDF8DC
:1009680074C0002900F08786012B9E4400F0808621
:10097800224405E04FEA400893421C4600F0828476
:10098800082C04F1010308EB8800F3DD102BDCBF11
:1009980005EB85056D00EFE70023BAF1300F9146AE
:1009A80008937FF47BAF99F80130582B00F00C8244
:1009B800782B00F009824B4601331D9393F800A071
:1009C800BAF1300FF8D09946BAF1000F9ED0012342
:1009D800099365E7002C3FF43EAF1D9E731C1D93E1
:1009E80073782B2B00F00F822D2B00F012824FF022
:1009F800000BA3F13001092900F28180302B05D1C9
:100A08001D9901311D910B78302BFAD0A3F13101DA
:100A180008293FF672AF1D98A3F1300103460C90E8
:100A280001301D905B780D91A3F1300CBCF1090FDA
:100A38000DD801301D9001EB810103EB41010378D2
:100A48003039A3F1300CBCF1090FF2D90D910C9992
:100A5800401A082800F3298444F61F600D99814242
:100A6800A8BF0146BBF1000F3FF448AF4942002C34
:100A78003FF447AFA1EB0E030C930A9B40461A467E
:100A8800002B08BF22460A9207F0F0FA102CA24663
:100A9800A8BF4FF0100A092CCDE9040132DC0C9BE9
:100AA800002B27D040F379840C98162800F39984FA
:100AB800DDE904233E4901EBC001D1E9000107F05B
:100AC8004BFB82468B4625E71DA83A4901F06CFC92
:100AD80000283FF4C7AE1D9B1DA8013B36491D9356
:100AE80001F062FC10B91D9B01331D930023334DA7
:100AF800CDE90435DDE904AB0CE700246DE71D966C
:100B08000021FBE62A4B03EBCA0353E9122307F043
:100B180023FBCDE90401284607F0A8FA02460B4654
:100B2800DDE9040107F066F90F2CCDE90401B6DD13
:100B38000C9BA4EB0A0A9A44BAF1000F40F3008315
:100B48001AF00F000AD0DDE90423194901EBC001AE
:100B5800D1E9000107F000FBCDE904013AF00F0AE2
:100B68000AD0BAF59A7F40F3D783144B0593222312
:100B780000223B600492BDE700230993CDF8008072
:100B880023460A9A4946384601F08CFE11900028FF
:100B980000F0AB8100210C9A88468A42C2F100031A
:100BA800A8BF0B460D9322EAE27312938B46C7E067
:100BB800A858010810680108146801080000F07FAF
:100BC800C91A1F29A2EB010200F3298201238B40D5
:100BD8000E9300231393AE18B5422B46A8BF334695
:100BE8001444099A1444A342A8BF2346002B02DDEB
:100BF800F61AE41AED1A0D9B002B40F0A381002E83
:100C080000F3B9810C9B002B00F3DC81002C00F36E
:100C1800E581002D08DD41462A46384601F0EAFF05
:100C28008046002800F0D7814A461E99384602F0CF
:100C380059F88346002800F0CE810026C368414653
:100C4800C660109302F032F8B042C0F23C84059DB1
:100C580000F001844146584602F09EF900224FF008
:100C68008043CDE90E0107F0F3FC002800F0C081B5
:100C7800109B002B00F0E0810023B246AA4CCDE97E
:100C88000E34A94B1393A94CA94B05EA04069E42BE
:100C980000F0F481099B4BB3B6F1D46F26D8A0A31A
:100CA800D3E90023139C5046214607F0D1FCC0B17C
:100CB8005046214607F028FD002800F0B38307F0CE
:100CC800D5F982461391109B002B40F0A683139B05
:100CD800CDF860A003F100431993DDE91834CDE99C
:100CE8000E340F9B03F1D6639B1B0F93DDE90A01BA
:100CF800DDE90E4502F076F802460B462046294605
:100D080007F02AFADDE90A2307F074F80C46CDE962
:100D18000401099B23B9854B23409E4200F0EA81D8
:100D28001E99384601F064FD4946384601F060FDD9
:100D38004146384601F05CFD5946384601F058FDF9
:100D4800119C3846616801F01FFD8146002800F0BB
:100D58004281DDE90456226904F10C010232920055
:100D68000C30CDE90A5601F095FC20A81FA9CDE961
:100D780000102A463346384602F0B6F81E9000287E
:100D880000F002810121384601F028FE8046002843
:100D980000F021811F9B002BC0F23D810D9A129C0F
:100DA8009D180999209A5B1A13446249013B8B42AA
:100DB800C2F13602FFF604AF0023139301230E930A
:100DC80009E74FF0010A94E5089A1EABCDE9003215
:100DD80002941FAB584A1DA9384601F055F810F087
:100DE800070504463FF492AD062D40F06282079A4B
:100DF80009F10103002A3FF439AD13604FF0000AEE
:100E08004FF0000B36E54FF0000BB31C1D93B37881
:100E1800EFE54FF0010BF8E7BAF1000F7FF422ADD0
:100E2800493B252B3FF61EAD01A252F823F000BF27
:100E3800D10A00086D0800086D0800086D08000850
:100E48006D080008010F00086D0800086D0800080B
:100E58006D0800086D0800086D0800086D08000896
:100E68006D0800086D0800086D0800086D08000886
:100E78006D0800086D0800086D0800086D08000876
:100E88006D0800086D0800086D0800086D08000866
:100E98006D0800086D0800086D0800086D08000856
:100EA8006D0800086D0800086D0800086D08000846
:100EB800D10A00086D0800086D0800086D080008D0
:100EC8006D080008010F000800214FF0010A0A917F
:100ED8000C4688460D460EE5002253460A921546F2
:100EE800924690469646144603E5104B119A059390
:100EF800222304923B60FDE51DA8104901F054FA35
:100F080000283FF4AFAC1D9B1B78282B00F084838E
:100F180000230B4CCDE90434ECE500BFAFF30080AF
:100F28000000C0FFFFFFDF410000F03F0000F07F3E
:100F38000000E07F02FCFFFFE85601081C6801087A
:100F48000000F8FF41461A46384601F0F7FD804692
:100F5800002840D001461E9A384601F049FD002875
:100F680039D010901E99384601F042FC109B002E93
:100F78001E937FF747AE32461E99384601F03AFE77
:100F88001E9000287FF43EAE5C46B34B00220593CA
:100F9800222304923B60DDE904AB0146384601F0A8
:100FA80027FC4946384601F023FC4146384601F003
:100FB8001FFC1199384601F01BFC2146384601F008
:100FC80017FCA7E44946129A384601F0B7FD814656
:100FD80000287FF41BAE5C461E98D6E74946224699
:100FE800384601F007FE814600287FF412AEF2E78A
:100FF8009A4BDDE90E01002207F0AEF8109B8246FD
:101008001391A3B901F1004314901593DDE9143449
:10101800CDE90E3437E6129A0D9DD41AC1E60121A6
:101028008F480E91C31A01FA03F31393D3E50246CE
:10103800139BCDE91423E9E7049B002B40F0EE80D5
:10104800C5F31303002B4CD1DDE90E010022854BBB
:1010580007F0F4FA002840F0F581DDE90E017F4B36
:10106800002207F079F8824601F1004313911A90A3
:101078001B93DDE91A34CDE90E3404E6A5F1547367
:101088000593DDE90423DDE90E01CDE904011046ED
:101098001946CDE90E2301F0A5FE02460B46DDE90F
:1010A800040107F059F8DDE90E2306F0A3FE01EA72
:1010B80004030A46CDE90401DDE90A0104460D46A8
:1010C800DFF8B4C1CDE91645634540F2D780664ADA
:1010D800914200F0AB814FF0FF33634ACDE904320F
:1010E8001EE60023614CCDE90E3400239A465D4B81
:1010F8001393C8E5139D5046294607F09DFE06F058
:10110800FDFF0B4602462946504606F071FE109B2D
:1011180005460E46002B6DD1049B002B6AD1C4F303
:101128001304002C66D146A3D3E9002307F086FAFE
:1011380000283FF4F5AD5C46DDE904AB1E982CE7CA
:101148003FF41AADCAF1000515F00F020AD0DDE927
:101158000401474B03EBC203D3E9002307F026F948
:10116800CDE904012D113FF407AD1F2D3ADC15F030
:101178001003099340F0FA81002D40F3F481DDE972
:10118800040100233B4EEA0704D5D6E9002306F004
:10119800E3FF01236D1006F10806F4D1002B40F09F
:1011A8006C82099B002B00F0DE81DDE90412C2F39A
:1011B8000A53C3F16B03002B11460ADD1F2B40F3C2
:1011C80023820022342B049240F347824FF05C7351
:1011D80005930022DDE90401002307F025FA002821
:1011E8003FF4CCAC22234FF0000A3B604FF0000BD9
:1011F800FFF790BB14A3D3E900232846314607F034
:101208001DFA002897D112A3D3E9002328463146B6
:1012180007F032FA00283FF483AD8CE7049B012BDA
:101228007FF45FAF002D7FF45CAF5C4622231E98ED
:101238003B604FF0000A4FF0000BAEE6AFF30080C2
:101248009535A094FFFFCF3F9535A094FFFFDF3F72
:1012580035E5AF350000E03F0000F07F0000E03FDB
:10126800E2FBFFFF0000F03FFFFFEF7F0000F0BF51
:10127800A858010810570108FFFF9F7C02F1547419
:10128800059446E55C1C082B40F3A580102C00F360
:10129800D780002205EB850501EB45050CF101031C
:1012A8001D939CF80130FFF753BB44F61F61FFF70D
:1012B800D9BB1E9A3AB1352120A801F0B5FE3846AF
:1012C8001E9901F095FA013D042D06D8DFE805F0D6
:1012D800180C03111800A84B0593260742BF059B5D
:1012E80043F00043059305E4209B0493219B059359
:1012F800F3E74FF0FF336FF00047CDE90437ECE731
:101308001F9ADDE9201302F2334223F4801343EAE3
:10131800025304910593E0E74FEA2A15012D40F3A3
:101328001281DDE904010023DFF870A29B465646CE
:1013380015F0010F0BF1010B4FEA650504D0D6E952
:10134800002306F009FF0123012D06F10806EFD15D
:10135800002B40F09581059B0AEBCB01A3F1547358
:101368000593DDE90423D1E9000106F0F5FE824A80
:10137800824E01EA0203B342CDE904015DD8A2F12D
:101388005872934240F2D8807D4B0593002309930D
:101398004FF0FF330493FFF7F1BB0C9B13F11602D8
:1013A800FFF6C6ABDDE90401764FA7EBC307D7E923
:1013B800002306F0FBFF82468B46FFF7ABBA0021FD
:1013C800DDF8749088460D46CC4601240A91A3F1B5
:1013D800300A02F1010E08EB88080AEB48080022DF
:1013E8005CE70C9EC4F12503B342FFF6A1ABDDE92F
:1013F8000423644DC4F10F0405EBC401341BD1E987
:10140800000105EBC40506F0A7FED5E9002306F0A8
:10141800A3FE82468B46FFF77DBA5246139BCDE961
:1014280018235AE4584B824613934CE4DDF828A05D
:10143800BAF1FF3F7FF44FAECDE50592FFF797BBBA
:1014480000222BE70023514CCDE91A34109B9A4611
:101458004F4B13930DE610995C46DDE90AAB4D4AF4
:10146800C5F31303002973D0934200F09980139BAE
:10147800002B73D02B4210D0DDE90401109B099A90
:10148800002B00F0AC8014F0D4F802460B4650460E
:10149800594606F0AFFC82468B46099B8BB13E4B02
:1014A80050461793002316935946DDE9162306F094
:1014B80053FE82468B4621B918B922231E983B60F9
:1014C8006BE51E9869E5109B58465C46DDE90AAB5A
:1014D800002BE2D1DDE904120029DED1C2F31303A7
:1014E800002BDAD122F000431B0D1B05B3F1D66F98
:1014F800D3D9436913B90369012BCEDD21460122F3
:10150800384601F077FB4146044601F0CFFB00283E
:10151800C3DDDDE90401099B0A46002B00F08E803B
:1015280021F000431B0D1B05B3F1D66F00F3868035
:10153800B3F15C7FB3DC79E601F1547305930023C2
:101548000993FFF71BBB4FF0000BDFF850A002E731
:10155800002B8CD1049B002B89D1DAE70E9B049ACF
:1015680013429AD088E70023099332E66A23002DB4
:1015780009933FF704AE18E60000F07F0000A07C56
:10158800FFFFEF7FA85801080000F03F0000E0BF10
:101598000000E03FFFFF0F00000050399859010894
:1015A800099B04996BB3384B2B40B3F1D46F28D8FF
:1015B8004FF0FF321B0DC3F16B0302FA03F399429C
:1015C8007FF455AF314B9D424FD02F4B2B4003F545
:1015D8008013059300230493DDE904AB5DE714F061
:1015E80028F802460B465046594606F001FC0022F0
:1015F800002382468B4607F017F800287FF416AEC2
:101608004BE74FF0FF33DAE74FF0FF3202FA03F30C
:10161800049A1A400492DCE51DA820AA1C4900F08F
:10162800DBFE05287FF474AC219B43F0FF4343F4B1
:10163800E0030593209B0493FFF75CBA124B134019
:10164800A3F580136FEA13536FEA035305934FF022
:10165800FF330493DDE904AB1FE74FF0FF32203B73
:1016680002FA03F30B400593B3E50131ADD1B3E4BE
:101678002346013407E61A4610E6CDE9040190E551
:10168800CDE9040167E600BF0000F07FFFFFEF7FB0
:10169800FC560108054B10B41B68054C1B6A002B4F
:1016A80008BF234610BCFFF763B800BF0000002046
:1016B8006400002010B4044C13460A460146206812
:1016C80010BCFFF755B800BF00000020064B30B42F
:1016D8001C68064D236A0A46002B08BF2B460146A4
:1016E800204630BCFFF744B800000020640000200A
:1016F8002DE9F0411E4E13460A4601463068FFF7B1
:1017080037F805460C462A4628462346214606F061
:10171800BDFF40BB2146284607F016F820F00048D8
:1017280007461449404607F033FBC8B940461149FB
:1017380007F010FBA0B924F00044284621464FF0DA
:10174800FF320D4B06F0A2FF38B9284621464FF06C
:10175800FF32094B06F07CFF10B1222233681A6071
:101768003846BDE8F0810020BDE8F04102F05CBADF
:1017780000000020FFFF7F7FFFFFEF7F2DE9F04192
:10178800214E224D34680A46236A0146002B08BFC1
:101798002B462046FEF7ECFF05460C462A4628460F
:1017A8002346214606F072FF40BB2146284606F034
:1017B800CBFF20F0004807461549404607F0E8FAF5
:1017C800C8B94046124907F0C5FAA0B924F0004448
:1017D800284621464FF0FF320E4B06F057FF38B926
:1017E800284621464FF0FF320A4B06F031FF10B170
:1017F800222233681A603846BDE8F0810020BDE82F
:10180800F04102F011BA00BF00000020640000207F
:10181800FFFF7F7FFFFFEF7F2DE9F84F0E468046E1
:10182800174699460D4600E025462C460A9814F8B6
:1018380001BB00F0CFFE5844417811F00801F3D104
:10184800BBF12D0F57D0BBF12B0F04BF95F801B09A
:10185800AC1CB9F1000F04D0B9F1100F50D0CC4630
:1018680005E0BBF1300F55D04FF00A09CC460029EE
:101878000CBF6FF0004E4FF0004E0025BEFBFCF38E
:1018880028460CFB13EA05E029D001250CFB0020B3
:1018980014F801BBABF13002092A05D9ABF14102BA
:1018A800192A0BD8ABF1370291450FDDB5F1FF3F8F
:1018B800EED08342E8D24FF0FF35E9E7ABF16102A1
:1018C800192A03D8ABF157029145EFDC6B1C0BD0FA
:1018D80001B140420FB14DBB3E60BDE8F88F924563
:1018E800D3DA4FF0FF35D3E72223C8F80030FFB131
:1018F8007046661EF0E7AC1C95F801B00121A8E718
:10190800BBF1300FABD1237803F0DF03582B06D09F
:10191800CC46ACE7237803F0DF03582B0AD14FF00D
:10192800100C94F801B0E1460234A0E78646DFE7E0
:101938007046D2E74FF00809CC4698E730B5064C18
:10194800064D246883B0246A002C08BF2C460094F6
:10195800FFF762FF03B030BD0000002064000020E4
:1019680010B5064C82B00093246813460A46014617
:101978002046FFF751FF02B010BD00BF0000002055
:10198800084B70B51D68084E2C6A82B0002C08BF41
:101998003446134600940A4601462846FFF73CFFA2
:1019A80002B070BD000000206400002008B470B5CB
:1019B800B2F1005F9DB006462DD24FF4027302913A
:1019C80006911446ADF814304FF6FF71C2B102F11A
:1019D8008043013B9A0022AD2B4604920792ADF852
:1019E8001610219A02A9019502F050FB0022029BD1
:1019F800A0421A600FD21DB0BDE8704001B0704718
:101A080022AD04920792ADF816102B46219A02A92E
:101A1800019502F03BFB8B234FF0FF303360EAE780
:101A28000CB470B51D4BB1F1005F9CB01D682FD28E
:101A38004FF40273029006900C46ADF814304FF63E
:101A4800FF70C9B101F18043013B990021AE3346D3
:101A5800209A04910791ADF8160002A9284601962C
:101A680002F014FB0022029BA0421A6010D21CB0A4
:101A7800BDE8704002B0704721AE04910791ADF8FF
:101A880016003346209A02A92846019602F0FEFA6B
:101A98008B234FF0FF302B60E9E700BF00000020E8
:101AA80000220B68026002462BB142F8043B51F851
:101AB800043F002BF9D100231360704703680246E6
:101AC80033B150F8043F002BFBD1801A80107047C7
:101AD800184670470B6870B505460BB9284670BDA7
:101AE8000E46FFF7EBFF04463046FFF7E7FF844258
:101AF80018D32B68B3B131680029EFD02B6899420D
:101B080009D12846324652F8043F002BE6D050F857
:101B1800044F9C42F7D055F8043F002BECD11D46EA
:101B2800284670BD0025D9E7920000F0B3BD00BF7C
:101B380000207047014900F027B900BF9D620008E6
:101B48000020704770B568254A1E05FB02F50E4651
:101B580005F17401FEF750FC044640B100210C3039
:101B6800666005F168022160A060FEF7A7FB2046C9
:101B780070BD00BF1E4B70B51D680646AB6943B308
:101B88004835D5E90134013B05D51EE0013B5A1C17
:101B980004F1680419D0B4F90C20002AF6D1002504
:101BA800144B6566C4E90055A560C4E90455A561F0
:101BB8002946E360082204F15C00FEF77FFBC4E9D4
:101BC8000D55C4E91255204670BD286828B1054650
:101BD800D7E7284600F010F8D2E704213046FFF78F
:101BE800B1FF28600028F2D10C2304463360EAE7ED
:101BF800E05601080100FFFF2DE9F84F0023334AA2
:101C0800C0E9123312680365904208BF01233049C6
:101C180008BF836181620546FFF7ACFF686028460C
:101C2800FFF7A8FFA86028460024FFF7A3FF0423B6
:101C38006E68E8602146F3607466C6E90044B460E3
:101C4800C6E90444B46106F15C000822FEF736FBDD
:101C5800DFF888B0AF68DFF888A0DFF88890DFF891
:101C680088801C4BC6E9086BC6E90AA9C6F830800B
:101C78002146FB6008227C66C7E90044BC60C7E9CE
:101C88000444BC6107F15C00FEF718FBEE68124BD8
:101C9800C7E9087BC7E90AA9C7F830802146F3607D
:101CA8007466C6E90044B460C6E90444B46106F148
:101CB8005C000822FEF702FB0123C6E9086BC6E9AF
:101CC8000AA9C6F83080AB61BDE8F88FE056010874
:101CD8003D1B00080900010012000200393C000801
:101CE800613C00089D3C0008BD3C0008024B0349CC
:101CF800186800F049B800BFE05601089D62000866
:101D0800836903B978E77047704700BF704700BF21
:101D1800704700BF704700BF024B0349186800F0C6
:101D28000FB800BF00000020391B0008024B034910
:101D3800186800F005B800BF00000020491B000823
:101D48002DE9F04110F148071AD088460026D7E956
:101D58000154013D0ED4A389013D012B06D9B4F9E4
:101D68000E30013302D02046C04706436B1C04F1F5
:101D78006804F0D13F68002FE9D13046BDE8F08112
:101D88003E463046BDE8F0812DE9F84310F148069B
:101D98001ED0884607464FF00009D6E90154013D98
:101DA80010D4A389013D012B08D9B4F90E300133B1
:101DB80004D021463846C04749EA00096B1C04F1A3
:101DC8006804EED13668002EE7D14846BDE8F883AE
:101DD800B1464846BDE8F8832DE9F04104694B1146
:101DE8009C422EDD00F1140C11F01F0167460CEB2C
:101DF80084040CEB83052AD05CF823202E1DB44202
:101E080022FA01F2C1F1200813D900F1100E33684B
:101E180003FA08F313434EF8043F56F8042BA6427E
:101E280022FA01F2F3D3631B053B23F003030433C7
:101E38009C44CCF8002012B30CF10403DA1B921076
:101E480018E00023036100234361BDE8F081AC4240
:101E5800F7D92B4600F1100253F8041B9C4242F8B4
:101E6800041FF9D8EA43224422F0030204320CEB9F
:101E780002039210BB420261E5D0BDE8F0816346DF
:101E8800DA1B9210F6E700BF2DE9F04F8DB00790EE
:101E98001898894604920A9300F0B6FB03684FF03D
:101EA800000818461C46059301F0E6FFD9F80030F3
:101EB80021189A7811F8011C302A0390019140F0FA
:101EC800838103331C4613F8012B08F10108302ADB
:101ED800F8D0BC4EB35C002B00F0EF804FF0000A46
:101EE80055462378F35C274623B117F8013FF35C86
:101EF800002BFAD1039A0599384601F0EBFF002828
:101F080000F092803B78002D40F09280502B029593
:101F180000F09480702B00F091803D46C9F8007065
:101F2800BAF1000F40F0B6802B1B013B072B51463E
:101F380004DD5B10072B01F10101FADC079800F0C2
:101F480023FC0346AC4203F114030690089380F087
:101F5800AD814FF000089B46039BC146C3F10103C6
:101F6800099312E0B8F1200F00F09D80424608F175
:101F7800040815F8013C5546F35CA54203F00F032D
:101F880003FA02F349EA030918D915F8013C019A42
:101F980005F1FF3A93420BF10407E3D1099B53443F
:101FA800A342DFD31846039A05990B9301F092FFD9
:101FB8000B9B0028D6D11D46A542E6D8089BCBF836
:101FC8000090FF1A069BBF101F61484600F0B6FC40
:101FD800049B7F011E683F1AB74200F3D480C0F209
:101FE80008810025049B029A9B689342C0F22F81C6
:101FF8000498029A436893426FDD9C1AA64200F344
:10200800A080C268022A00F08881032A00F080813B
:10201800012A00F05B81DDE9061000F0E9FB0023EE
:10202800169A502413603AE0002D00F0D4803B78D3
:10203800ED1BAA00502B02927FF46CAF7B782B2B00
:1020480000F09F802D2B63D000257A1CF35C591E6D
:1020580018293FF662AF5178103B715C0132481E77
:1020680018280AD812F8010F03EB830301EB430386
:10207800315C103B481E1828F4D905B15B423D4637
:1020880017460299C9F8007019440291BAF1000F75
:102098003FF44AAFB8F1000F0CBF062400242046D5
:1020A8000DB0BDE8F08F5B46002243F8089BBB46A5
:1020B80091461F464FF004085BE7039D05992A46A1
:1020C800204601F007FF38B327462278502A7DD0F2
:1020D800702A7BD0C9F80070DCE7012465B1049B45
:1020E800DB68022B00F0BC80032B00F0BD80012BC5
:1020F80000F0058144F01004169B20461A46069B02
:1021080013600A9B1A46029B13600DB0BDE8F08F5E
:102118000125BB78BA1C99E7625D6719B35C002B8F
:10212800D4D0302A3C4604D114F8013F302BFBD0E0
:10213800F35CB3FA83FA3D464FEA5A1A4FF00108A6
:10214800D1E6671E002D40F0B980002F40F0B8801E
:10215800012308997A1151F8222007F01F0703FA82
:1021680007F717422146069818BF45F00205FFF702
:1021780033FE049B361B5B6802240293002DBBD000
:10218800ADE70025C5E7BF1B3946069800F070FF8C
:10219800054678B101257A1E0899531151F8231084
:1021A80002F01F0305FA03F30B4203D0AA4200F31F
:1021B800B8800225029B39463B4406980293FFF7F4
:1021C8000BFE0FE7985701089C1C82E600234FF08E
:1021D800010A029332E7039ABB5CBD18F25C2F46F2
:1021E800002A3FF425AF17F8013FF25C002AFAD124
:1021F8001EE7F71B06993A46079800F0FBFC029B7E
:102208000690DB1B02930346143308930025E9E686
:10221800069B9B689D4280F294802B464FF0010EEE
:10222800069803EB0E02022C00EB83030261C3F84D
:1022380014E07FD0954234DA01210698FFF7CCFDEF
:10224800049B029A9B680132934202922CDADDE9E0
:10225800061000F0CDFA0023169AA32413601EE797
:10226800179BC3F101031793179B002B3FF442AF51
:10227800069ADDF820C015690020AF0063460CEB14
:10228800070103E0994243F8040CC1D99E4653F86C
:10229800042BB2F1FF3FF5D00132022CCEF800201A
:1022A80048D016F01F0668D1212425E7069BDDF8E3
:1022B80020B04FF0000903F118077FE6012547E732
:1022C8003946069800F0D4FE054641E7A6427FF459
:1022D800A2AE012E08DD711E069800F0C9FE002886
:1022E8003FF499AE049B5B6801220A9962240B6053
:1022F800069B08991A610A60169A1360CFE6AA0726
:102308007FF5F8AE089B1B681D43EB07B0D4F1E6D8
:10231800179A002A3FF47FAEE6E7179A002AE3D01F
:1023280079E6B91E069800F0A3FE00283FF441AFF5
:1023380003253FE7049B1B68013BB34227D02224B7
:10234800DAE6069BDDF81C9059684846013100F032
:102358001BFA804606990C300B690C3102339A003F
:1023680000F098F90699484600F042FACDF818802E
:1023780008F1140CD8F8103050E7674457F8040CEB
:1023880000F0DCFAC6F12006B0428DDA54E70123EA
:1023980072115CF8222006F01F06B340134214BFE6
:1023A80021242224A8E600BF30B40468013408E0E0
:1023B80014F8013BA3F14105192D98BF203393422E
:1023C80007D111F8012B002AF2D10460012030BC9A
:1023D8007047002030BC70472DE9F04F0B6885B07E
:1023E800591113F01F0303934FF0000302EB810907
:1023F80018BF09F10409019049F8043C1F469A46A0
:102408001C46019BA9F10406D3F80080CDF808907A
:1024180098F80130B4463146DFF858E1B3469146A2
:1024280008F10100E3B11EF80350002D40D1202B24
:1024380056D854450DDD614501D2072F5ADD49456F
:102448004BD90023A1F1040C41F8043CA246614693
:102458001F46804698F8013008F10100002BE2D1B0
:102468004A465E46DDF80890002C3FD0614501D20F
:10247800072F6CDD914254D9134651F8040B8E4254
:1024880043F8040BF9D2002143F8041B9E42FBD207
:1024980059F8041C21B140E056F8043D002B3CD10A
:1024A800B242F9D101230520136005B0BDE8F08FD1
:1024B8000137082F04F1010407DC0A68120105F04E
:1024C8000F0515430D608046C4E74945C1D9002270
:1024D800012741F8042C0439F1E708278046B9E7B9
:1024E800292B4A465E46DDF8089029D0042005B01D
:1024F800BDE8F08F0D46C7F108039B000A68C3F1D9
:1025080020086F6807FA08F6164327FA03F22E60C8
:1025180045F8042FAC45F4D891E7052005B0BDE88F
:10252800F08F039B59F8041C002BB3D04FF0FF30F9
:10253800C3F1200320FA03F3194049F8041CA9E762
:10254800019808F102030360002C8FD1CEE70846FA
:10255800C7F108039B000D68C3F1200E476807FA0E
:102568000EF42C4327FA03F5046040F8045F844511
:10257800F4D87FE798570108B2B110B50B49104657
:10258800144601F09BFB08B9094810BD08492046CC
:1025980001F094FB0028F7D02046064901F08EFB95
:1025A8000028F1D0002010BD0148704724680108B8
:1025B8002068010854680108044B054A1B681B6A17
:1025C800002B08BF134693F828017047000000202D
:1025D80064000020D0F8EC00704700BF044B054AA7
:1025E8001B681B6A002B08BF1346D3F8EC00704722
:1025F8000000002064000020024B0A4601461868CB
:10260800FFF7BABF00000020F0307047044A054BBE
:102618001268106A002808BF1846F030704700BFDB
:102628000000002064000020044A054B1268106A6C
:10263800002808BF1846F030704700BF000000208F
:102648006400002030B4064C064D2468246A002C2F
:1026580008BF2C46D4F8E440A44630BC604700BF0D
:10266800000000206400002082B049B15AB16BB16B
:1026780013780B601278101C18BF012002B0704745
:1026880001A9002AF3D1104602B070476FF001008B
:10269800F4E700BF844641EA000313F0030349D17D
:1026A800403A23D30B6803604B6843608B688360B0
:1026B800CB68C3600B6903614B6943618B698361B4
:1026C800CB69C3610B6A03624B6A43628B6A83629C
:1026D800CB6AC3620B6B03634B6B43638B6B836384
:1026E800CB6BC36340304031403ADBD230320BD33E
:1026F8000B6803604B6843608B688360CB68C3607A
:1027080010301031103AF3D20C3205D351F8043B93
:1027180040F8043B043AF9D2043208D0D2071CBF6F
:1027280011F8013B00F8013B01D30B880380604698
:10273800704700BF082A13D38B07B1D010F00303EA
:10274800AED0C3F10403D21ADB071CBF11F8013B5A
:1027580000F8013BA4D331F8023B20F8023B9FE785
:10276800043AD9D3013A11F8013B00F8013BF9D2F8
:102778000B7803704B7843708B7883706046704792
:10278800704700BF704700BF70B5446A06460D46E3
:102798005CB1E3689BB153F82500E0B1026843F8E7
:1027A80025200023C0E9033370BD1020FDF776FD16
:1027B80000230446C0E9013370620360C36021222C
:1027C8000421304600F07EFC736AE060DB68002B71
:1027D800E1D1002070BD012101FA05F4621D3046E7
:1027E800920000F06FFC0028F3D0C0E90154D8E74C
:1027F80030B5456A83B0044655B139B1636A4A6851
:10280800DB6853F82200086043F8221003B030BD9B
:1028180010200191FDF742FD01996062C0E9015560
:102828000560C560E9E700BFF0B54FF0000C0C4645
:1028380005460E6983B001F1140738680CF1010CE4
:1028480081B202FB0133010C180C02FB01019BB29F
:1028580003EB0143664547F8043B4FEA1143ECDCC0
:102868003BB1A268B24207DD04EB86020136536130
:102878002661204603B0F0BD616828460131019306
:10288800FFF782FF0746226904F10C010232920029
:102898000C30FFF7FFFE21462846FFF7A9FF3C460C
:1028A800019BE1E72DE9F843234C1E46083384FBDE
:1028B800034CDB17C3EB6C0CBCF1010F07460C464D
:1028C8009046089D35DD012300215B009C4501F100
:1028D8000101FADC3846FFF757FF0123B8F1090F69
:1028E800C0E9043521DD04F109094D46444415F8D1
:1028F800013B0146303B0A223846FFF795FFAC42C0
:10290800F5D109EB0804083C46450CDDA6EB0806A2
:10291800264414F8013B0146303B0A223846FFF7AB
:1029280083FFA642F5D1BDE8F8834FF009080A34C1
:10293800EAE70021CEE700BF398EE338020C120423
:102948000346C2B90304102013F07F4F04BF1B02D3
:10295800083013F0704F04BF1B01043013F0404FD0
:1029680004BF9B000230002B04DB5B0001D5013063
:102978007047202070470020E6E700BF0368014643
:1029880013F0070207D0DA071FD498071FD55B0892
:102998000B600120704798B2A0B1104613F0FF0FEA
:1029A80004BF1B0A08301A0704BF1B0904309A0722
:1029B80004BF9B080230DA0702D45B080BD0013051
:1029C8000B6070471B0C1020E8E7002070479B083D
:1029D8000B60022070472020704700BF10B50C46DE
:1029E8000121FFF7D1FE0122C0E9042410BD00BF78
:1029F8002DE9F04F0D69146985B0A5420E46914640
:102A080004DA2A464E46254689461446B36805EB3D
:102A1800040871684345B8BF0131FFF7B5FE00F1FE
:102A2800140B0BEB880AD345019005D25B460022B4
:102A380043F8042B9A45FBD809F1140303EB8404EB
:102A480006F11402A34202EB850E62D2A4EB09043C
:102A5800153C24F003042344CDE902A809F1100928
:102A680090469A4605E0090C2CD1CA450BF1040B97
:102A78004DD059F8041F1FFA81FCBCF1000FF2D0A9
:102A880047465E46002100E00646304657F8042BCC
:102A9800346893B2A5B2120C0CFB0353240C0CFB44
:102AA80002420B4402EB13419BB243EA0143BE4589
:102AB8004FEA114140F8043BE6D87160D9F800109C
:102AC800090CD2D0DBF8003040461E465D46002295
:102AD80000E025462C460788360C01FB07669BB2AA
:102AE800324443EA024344F8043B50F8043B6E681E
:102AF8001B0CB7B201FB0373864503EB12434FEA85
:102B08001342E6D8CA456B600BF1040BB1D1DDE97D
:102B180002A8B8F1000F0BDD5AF8043CAAF1040A28
:102B28001BB105E05AF8043D13B9B8F10108F9D111
:102B38000198C0F8108005B0BDE8F08F2DE9F0418C
:102B480012F0030382B0144607462DD10E46A41096
:102B58001CD07B6A8BB39D68002D38D0E3074FF0FB
:102B6800000806D4641011D0286898B10546E30718
:102B7800F8D531462A463846FFF73AFF034631462C
:102B880038461E46FFF734FE6410EDD1304602B0D9
:102B9800BDE8F0812A4629463846FFF729FF286014
:102BA800C0F800800546E2E7114A013B52F82320AD
:102BB8000023FFF739FE0646C9E71020FDF76EFB34
:102BC80000220346C0E9012278620260C260012146
:102BD80038460193FFF7D8FD01210546002240F24F
:102BE8007120019BC5E904109D602A60B6E700BF0B
:102BF800985801080B692DE9F0474FEA621A0AEB69
:102C080003088B6808F101049C420D46914607466B
:102C1800496804DD5B009C4201F10101FADC384699
:102C2800FFF7B2FDBAF1000F064600F114033ADDD2
:102C3800002203EB8A0143F8042B8B42FBD128695D
:102C480005F1140319F01F0903EB800C23D0C9F117
:102C580020024FF0000A00E071468E46186800FA1C
:102C680009F040EA0A004EF8040B53F8040B9C459F
:102C780020FA02FAF0D8C1F804A0BAF1000F01D086
:102C880008F10204013C384634612946FFF7B0FDDB
:102C98003046BDE8F087043953F8042B9C4541F8C9
:102CA800042FF9D8EEE71946C9E700BF30B40B691D
:102CB80005460069C01A0FD19B0014351431194418
:102CC8002B4401E09D4207D253F8044D51F8042DDE
:102CD8009442F7D002D3012030BC70474FF0FF3048
:102CE800FAE700BF2DE9F84F0C6913698946E41A21
:102CF800002C924601F1140702F1140B14D19B0029
:102D0800FA185B4401E0BA4262D952F8045D53F8FC
:102D1800041D8D42F7D009D23A464B465F46D1464C
:102D280093469A46012401E0F6DB0024D9F8041002
:102D3800FFF72AFD5E464FF00008D9F810C0DAF810
:102D480010303D46C4600BEB830E07EB8C0700F197
:102D5800140455F8049B56F8042B1FFA89F34344CE
:102D68001FFA82F8120CA3EB0803C2EB194202EB1C
:102D780023429BB243EA0243B64544F8043B4FEA78
:102D88002248E6D8AF4217D9A6462E4656F8043B45
:102D980099B241440A1402EB134289B241EA024350
:102DA800B7424EF8043B4FEA2248EFD8ED432F4490
:102DB80027F0030704373C44043C2BB954F8043D7E
:102DC8000CF1FF3C002BF9D0C0F810C0BDE8F88F1B
:102DD8000021FFF7D9FC01220023C0E90423BDE844
:102DE800F88F00BF0F4B0B40A3F15073002B02DD8F
:102DF8000020194670475B421B15132B0BDD143B53
:102E08001E2BD7BF01220123C3F11F0302FA03F3CC
:102E18000021184670474FF40022002042FA03F1BF
:102E2800704700BF0000F07F2DE9F041076900F10D
:102E3800140606EB870757F8048C4046FFF77EFD1B
:102E4800C0F120030A280B60A7F1040218DC96429F
:102E58002CBF002257F8082CC0F10B0328FA03F105
:102E680038BFDA4000F1150341F07F5508FA03F343
:102E780045F4401543EA020420462946BDE8F0819E
:102E88009642A0F10B031DD257F8080CE3B108FADB
:102E980003F848F07F58C3F12001A7F1080220FA8F
:102EA80001FC48F44018964200FA03F048EA0C0581
:102EB80003D257F80C3CCB40184304462046294619
:102EC800BDE8F08133B9184648F07F5545F4401500
:102ED8000446F3E7002008FA03F343F07F5545F46E
:102EE80040150446EAE700BF2DE9F0411C4682B0D0
:102EF8000121DDE908659046FFF746FC2346C4F347
:102F08000A540746C3F313030CB143F48013B8F112
:102F1800000201931ED002A840F8082DFFF72EFDED
:102F280070BBDDE900237A61002B0CBF012102216F
:102F3800BB613961CCB907EB8103A0F23240306044
:102F48001869FFF7FBFCC0EB41102860384602B057
:102F5800BDE8F08101A8FFF711FD0122019B114690
:102F68002030C7E90423002CE5D0A4F233430344FE
:102F7800C0F1350033602860384602B0BDE8F08102
:102F8800019BC0F12002009903FA02F20A43C340F0
:102F980001937A61C8E700BF2DE9F04383B00F467B
:102FA80069460646FFF740FF04460D46384601A924
:102FB800FFF73AFF36693A698946DDE90013B61A20
:102FC800CB1A03EB4613002B80460BDD05EB0357AA
:102FD8003D4642464B462046294605F0E7F903B0F0
:102FE800BDE8F083C3EB033309EB03518946F0E7EF
:102FF8001728D0B504460ADD002000260749084FE7
:1030080032463B4605F0A8F8013CF9D1D0BD054B46
:1030180003EBC004D4E90401D0BD00BF0000F03FB9
:10302800000024409858010870B414694D1E02F13C
:10303800140303EB84016D1101358B4200EB850409
:103048000CD2051F53F8046B994245F8046FF9D860
:103058008B1A153B23F0030304331844844204D924
:10306800002340F8043B8442FBD870BC704700BF83
:10307800036910B44C11A34200F114020FDA02EBF9
:1030880083039A421CD253F8040C043B18B114E091
:1030980053F8041D89B99A42FAD310BC704702EB61
:1030A8008403EEDD11F01F01EBD052F8244024FA1E
:1030B80001F000FA01F18C42E3D0012010BC704706
:1030C8000020EAE738B502FB01F42146FDF794F940
:1030D800054618B122460021FDF7F0F8284638BD0C
:1030E8002DE9F0478E6880469E420C461D461746DD
:1030F800086828D8B1F80CC01CF4906F31D0D1E919
:10310800041606EB460606EBD676A0EB010901335A
:1031180076104B44B342324684BF1E4632461CF4F6
:10312800806F20D011464046FDF766F9824670B39D
:103138004A462169FFF7AEFAA38923F4906343F066
:103148008003A38114E01E462A46394603F032FB69
:103158000020A2682368961B2B44A6602360BDE864
:10316800F0873546F0E7404603F086FB824650B1CB
:10317800A6EB09030AEB09006661C4F810A02060F9
:10318800A3602E46E0E721694046FDF7E1F80C23ED
:10319800C8F80030A3894FF0FF3043F04003A38103
:1031A800DDE700BF2DE9F04F936883B09046002B10
:1031B8006CD0176882460C46086808378D6842E06C
:1031C800A38913F4906F2DD0D4E9041505EB4505B8
:1031D800A0EB010B05EBD575701C6D105844A84287
:1031E8002A4684BF05462A465B0536D51146504611
:1031F800FDF702F900283AD05A4621690190FFF7F5
:1032080049FAA289019B22F4906242F08002A281CD
:10321800A5EB0B0203EB0B006561B3463546236152
:103228002060A2605A46494603F0C4FAD8F808302C
:10323800A2682068551B58449E1BA5602060C8F8EA
:1032480008601EB3083757E90296AB46002EF9D03E
:10325800AE42B5D23546B346E4E7504603F00CFB20
:1032680003460028D4D121695046FDF771F80C2394
:1032780000224FF0FF30CAF80030A38943F0400322
:10328800A381C8E9012203B0BDE8F08F0020C8F887
:10329800040003B0BDE8F08F2DE9F04F8846898916
:1032A8009FB00D061446029004D5D8F81020002AC5
:1032B80000F0178100202021302205932378012671
:1032C8000B908DF83110914D8DF83220002B00F0C5
:1032D8009680252BA24603D119E0252B00F0C28049
:1032E8001AF8013F002BF8D1BAEB040B00F08780E5
:1032F80022465B4641460298FFF7F2FE01307ED037
:103308000B9B9AF800205B440B93002A77D000238C
:103318004FF0FF320AF1010A0693CDE908338DF820
:103328005B301C93079206E0CA46069B401B06FAD0
:1033380000F018430690D146052219F8011B2846CB
:1033480003F0F2F9CB460028EED1069BD80644BF1D
:1033580020228DF85B20190748BF2B229AF800100D
:1033680048BF8DF85B202A2953D0A1F13003092BDF
:1033780000F2AC80099A02E0CA4609F1010999F8FD
:10338800001002EB820203EB4202A1F13003092B89
:10339800CB46F1D90AF1020909922E2946D05C4C94
:1033A8000322204603F0C0F9002858D04021001B12
:1033B800069A01FA00F00243069209F1010499F80D
:1033C80000300622194653488DF8303003F0ACF926
:1033D800002859D0504B002B49D005AB00934246EA
:1033E8004E4B06A90298AFF3008007467A1C06D018
:1033F8000B9B3B440B932378002B7FF46AAFB8F800
:103408000C305B064CBF4FF0FF300B981FB0BDE887
:10341800F08F059A11680432002905922EDB099174
:103428009AF801100AF102092E29B8D19BF8011067
:103438002A2933D1059B0BF102001A680433002AAC
:10344800079205939BF802100BF1030940DB304CFF
:1034580083460322204603F067F90028A6D14C468C
:10346800D946ACE7BAEB040B3FF451AF40E7059BF4
:10347800073323F0070308330593B9E7494243F0BC
:10348800020309910693CBE705AB00934246234B11
:1034980006A9029800F086FA0746A7E70022A1F1DC
:1034A80030000928079201D917E0D94699F8011088
:1034B80002EB820200EB4202A1F13000092809F177
:1034C800010BF2D909F10209079268E7D34664E7CC
:1034D8004FF0FF328346079261E7CB4609F10109B5
:1034E8005DE740210393FCF787FF039BC8F80000C2
:1034F800C8F8100018B14022C8F81420DAE60C23E6
:10350800029A4FF0FF30136080E700BF306801086F
:10351800386801083C68010800000000E93000082C
:103528009368013B002B936005DB1368581C1060FF
:1035380019700846704710B49469A34208DB0A2939
:1035480006D01368581C10601970084610BC7047E4
:1035580010BC01F0BBBC00BF9BB1F8B5D5180F4635
:103568000646013D541E01E0AC4208D03A4614F824
:10357800011F3046FFF7D4FF431CF5D1F8BD0020EA
:10358800F8BD0020704700BF936810B5144613B902
:103598005360184610BD02F0BFFE0023C4E9013392
:1035A80010BD00BF2DE9F04F9FB0884614461D4658
:1035B800039018B18369002B00F0C580A44B98458F
:1035C80000F0C780A34B984500F0D580A24B9845E2
:1035D80004BF039BD3F80C80B8F80C301E0740F1E9
:1035E800C080D8F81030002B00F0BB8030230021B9
:1035F80020228DF83230237805950B918DF83120F3
:10360800964D0126002B00F09680252BA24603D16B
:1036180019E0252B00F0DC801AF8013F002BF8D1C7
:10362800BAEB040B00F0878022465B4641460398BC
:10363800FFF792FF01307ED00B9B9AF800205B4485
:103648000B93002A77D000234FF0FF320AF1010ACA
:103658000693CDE908338DF85B301C93079206E09A
:10366800CA46069B401B06FA00F018430690D1464E
:10367800052219F8011B284603F056F8CB46002806
:10368800EED1069BD80644BF20228DF85B2019078F
:1036980048BF2B229AF8001048BF8DF85B202A29D2
:1036A8006DD0A1F13003092B00F2C680099A02E01F
:1036B800CA4609F1010999F8001002EB820203EBEE
:1036C8004202A1F13003092BCB46F1D90AF10209D4
:1036D80009922E2960D0624C0322204603F024F878
:1036E800002872D04021001B069A01FA00F002431C
:1036F800069209F1010499F8003006221946594842
:103708008DF8303003F010F8002873D0564B002B9A
:1037180063D005AB00934246544B06A90398AFF318
:10372800008007467A1C06D00B9B3B440B932378FA
:10373800002B7FF46AAFB8F80C305B0618D40B98EE
:103748001FB0BDE8F08FFEF7DBFA414B98457FF4D8
:1037580039AF039BD3F80480B8F80C301E073FF547
:1037680040AF4146039801F05DFC00283FF43EAFAE
:103778004FF0FF30E4E7039BD3F808802CE7059A65
:1037880011680432002905922EDB09919AF801107C
:103798000AF102092E299ED19BF801102A2933D15A
:1037A800059B0BF102001A680433002A079205935F
:1037B8009BF802100BF1030940DB294C83460322D6
:1037C800204602F0B1FF00288CD14C46D94692E73A
:1037D800BAEB040B3FF437AF26E7059B073323F01A
:1037E8000703083305939FE7494243F00203099111
:1037F8000693CBE705AB009342461C4B06A90398FA
:1038080000F0D0F807468DE70022A1F13000092822
:10381800079201D917E0D94699F8011002EB820204
:1038280000EB4202A1F13000092809F1010BF2D99D
:1038380009F1020907924EE7D3464AE74FF0FF32F3
:103848008346079247E7CB4609F1010943E700BFE2
:103858007857010858570108385701083068010897
:10386800386801083C68010800000000613500085C
:1038780010B4044C13460A460146206810BCFFF7F2
:1038880091BE00BF000000202DE9F0470C460969F1
:10389800A56891468D42B8BF0D46156094F843104F
:1038A80006461F46DDF8208011B16A1CC9F80020C1
:1038B800236899065FD5D9F800200232C9F800209C
:1038C800236813F0060F19461DD1E1688A1A002AE9
:1038D800D8BF194617DD002504F1190A05E0E36889
:1038E800D9F800209B1AAB420CDD01235246394619
:1038F8003046C047013005F10105F0D14FF0FF30E7
:10390800BDE8F087216894F84330003318BF0123DD
:103918008A060AD53021E21882F8431094F8451037
:103928005A1C224482F84310023304F143023946F8
:103938003046C0470130E1D0D4E902202368D9F8E5
:10394800005003F00603042B21691AD08A421FDDB8
:103958004FF00009521A914400251A3401E04D45F0
:1039680016D00123224639463046C047013005F1BA
:103978000105F4D1C2E713F0060F0CD1D9F80020E5
:10398800A3E7401B8A4220EAE079E3DC0028E3DC75
:103998000020BDE8F08794F84330003318BF0123B6
:1039A800C3E700BF2DE9F0430C46097E85B06E29B8
:1039B80006461746984604F1430C0C9D4AD00FD88A
:1039C800632900F0FE8000F2BE8000294ED05829FD
:1039D80040F0E08084F845102268DFF844E212E005
:1039E800732900F0C5807AD86F2900F0DA80702931
:1039F80040F0D080206840F0200222607823DFF871
:103A080024E284F845302B68191D1B6829601506C7
:103A180002D4500648BF9BB2D10744BF42F02002EF
:103A28002260002B6CD1D4E9001284F84330002ABC
:103A380021F020032360A2607DDB21F024012160B6
:103A48001021002A78D1654608294ED0ACEB050331
:103A580023610EE02B682268181D6169286015062D
:103A68001B6802D4500600F1C68019600023654621
:103A78002361CDF800803B4603AA21463046FFF774
:103A880003FF013020D02A46236939463046C04713
:103A9800013019D0226803989207E36819D51A1AD9
:103AA800002A16DD002504F1190904E0E3680398EB
:103AB8001A1AAA420DDD01234A4639463046C04744
:103AC800013005F10105F1D14FF0FF3005B0BDE837
:103AD800F0839842B8BF184605B0BDE8F083752951
:103AE8005FD0782956D1226888E72368DB07ADD5EF
:103AF800626823699A42A9DC3023013D2B70A5E74F
:103B08001021002284F843206268002AA2602CDB7E
:103B1800206820F004002060002B92D06546B3FB9B
:103B2800F1F201FB12331EF80300134605F8010DEC
:103B3800002AF4D188E710219EF8003004F14205EC
:103B480084F8423080E7642901D0692922D12068AD
:103B58002B68010603F1040245D51B682A60002B77
:103B68004BDB0A21DFF8B8E0CEE7002BD6D1E3E73C
:103B78002B686268191D29601D680021284602F01B
:103B8800D3FD002845D0401B60602061002384F8E5
:103B980043306EE7012384F84210236104F14205A3
:103BA800F4E720682B6810F0800F03F1040213D0AB
:103BB8001B682A606F290CBF08210A21DFF860E022
:103BC8009FE701222B68191D1B68296004F1420533
:103BD80084F842302261D9E7400653BF1B682A6047
:103BE8001B882A60E6E7410653BF1B682A60B3F9C1
:103BF80000302A60B3E7198038E72D2162685B42FC
:103C0800002A84F84310A26005DB0A21DFF810E0DF
:103C18007FE76068B9E7DFF808E00A217EE700BFC0
:103C28004468010858680108004870470000C07FD0
:103C380010B50C46B1F90E1002F044FE002803DB63
:103C4800636D0344636510BDA38923F48053A38186
:103C580010BD00BF002070472DE9F041B1F90C40BC
:103C68009846E3050D461746B1F90E10064607D5E6
:103C78000223002202F0CAFCB5F90C40B5F90E1077
:103C880024F48054AC8143463A463046BDE8F041BE
:103C980001F0B2B910B50C46B1F90E1002F0B6FC3D
:103CA800A389421C0EBF23F4805343F480536065FC
:103CB800A38110BDB1F90E1001F07EBA80EA010CA3
:103CC8001CF0030F37D110F0030C20F0030021F093
:103CD800030150F8042B08BF51F8043B0ED08CF0B8
:103CE800030C6FF07F434FEACC0C23FA0CFC51F81D
:103CF800043B42EA0C0243EA0C0300BFA2F1013C78
:103D08009A4201BF2CEA020C1CF0803F50F8042BA9
:103D180051F8043BF2D04FEA02604FEA1222012820
:103D280028BFB0EB036F08BF1B0AF4D003F0FF03F2
:103D3800000EC01A704710F0030F0AD010F8012BBC
:103D480011F8013B012A28BF9A42F4D0A2EB0300E4
:103D580070474DF8045D50F8042B01F0030521F07D
:103D6800030151F8043B022D26D04DD822F07F459F
:103D7800B5EB132FA2F1013C2CEA020C0DD11CF07B
:103D8800803C08BF51F8043B0AD185EA0205B5EB2F
:103D9800036F0CD150F8042BE8E74FEA13235BE0DC
:103DA8003CF07F4C54D10B784FEA126554E04FEA4F
:103DB800126503F0FF034FE04FEA0245A2F1013C10
:103DC8004FEA15452CEA020CB5EB134F18D11CF03D
:103DD800803C08BF51F8043B07D185EA0205B5EBE2
:103DE800034F09D150F8042BE6E75FEA0C4C2FD1BA
:103DF8000B884FEA12452FE04FEA03434FEA12457A
:103E08004FEA134328E000BF02F0FF05B5EB136F3C
:103E1800A2F1013C2CEA020C0DD11CF0803C08BF39
:103E280051F8043B0AD185EA0205B5EB032F0AD104
:103E380050F8042BE8E74FEA13630DE012F0FF0F88
:103E480006D051F8043B4FEA122523F07F4303E0E4
:103E58004FF0000020BC704705F0FF0203F0FF00A0
:103E6800012828BF904204BF2D0A1B0AF4D0A2EBF8
:103E7800000020BC704700BF20F0030110F00300D1
:103E8800C0F1000051F8043B00F1040C4FEACC0CDF
:103E98006FF000021CBF22FA0CF213434FF0010C22
:103EA8004CEA0C2C4CEA0C4CA3EB0C0222EA030261
:103EB80012EACC1204BF51F8043B0430F4D0C2F12A
:103EC800000102EA0102B2FA82F2C2F11F0200EB1B
:103ED800D2007047002A3FD040EA010313F00303E1
:103EE800F0B425D1032A23D904680D68AC421FD148
:103EF800043A33D0A4F1013525EA040414F0803FD4
:103F08002FD1071D0D1D0DE057F8043B0E68A3F1D6
:103F18000134B34224EA03040AD1043A1ED014F04F
:103F2800803F1BD1032A2946384605F10405EBD802
:103F380003780C78013A9C420BD17AB114B90DE0A0
:103F480062B173B110F8013F11F8014F013AA34271
:103F5800F6D0181BF0BC7047104670470020F0BC24
:103F680070471846F6E700BF2DE9F04B002B88B0E4
:103F78009846DDE914B59146109F179E61DB002233
:103F8800129B1A60BBF1660F1DD0BBF1460F1AD009
:103F980002212BF02003452B139C08BF0137029404
:103FA800CDE9001707AC06A9CDE903144A464346F4
:103FB80001F0A8F9BBF1670F044661D1119BDB073B
:103FC8003DD5274417E04FF0030C139907ACCDE912
:103FD800017106A94346CDE903144A46CDF800C04D
:103FE80001F090F90446237800EB070B302B3AD008
:103FF800139B1F685F44484641460022002304F093
:1040080013FB28B33B4607971B1B002B2B6012DDC5
:10401800002E10DD169A013E00232644601E043A45
:1040280001E0864207D010F8011F013342F8041F4F
:1040380029689942F5DC169808B0BDE8F08B079B13
:10404800E2E72D2403F100439846129B1C6099E790
:10405800079B9F42D8D930215A1C07921970079B99
:10406800BB42F9D3D0E7484641460022002304F07A
:10407800DBFA0028BCD1139BC7F101071F60B9E721
:10408800BBF1470F9AD02744B5E700BF2DE9F04FA1
:104098000024D5B00E4691460C931B948246FEF739
:1040A800B5FA0268B38912781F06189203D53369E6
:1040B800002B00F0A7830023CB46CDE91233CDE9CE
:1040C80014330993DBF80030002B00F03481252BE2
:1040D8005C4603D11CE0252B00F0398154F8043FDD
:1040E800002BF8D1A4EB0B035C454FEAA30500F0C5
:1040F80022815A4631465046FEF7F2FF013000F061
:104108001A81099A23682A440992002B00F0138126
:1041180000214FF0FF300A460F468846231D1791AD
:104128000B901C680433A4F12000582800F2608327
:10413800DFE810F033015E035E0339015E035E03BE
:104148005E035E035E035E03180130015E03200117
:10415800BE025E03DB0223012301230123012301A5
:1041680023012301230123015E035E035E035E0333
:104178005E035E035E035E035E035E035E03250269
:104188005E0325025E035E035E035E03D8025E03E0
:104198005E035E035E035E035E035E035E035E030F
:1041A8005E035E032C035E035E035E035E035E0331
:1041B8005E035E035E035E035E03A4024C012502F8
:1041C800250225020D024C015E035E0315015E0304
:1041D80010021C036A0215015E03DE025E033C0145
:1041E8005E035E034B034023BC4A31465046FEF74C
:1041F80077FF0130A5F1100500F09780102DF2DC53
:10420800AB00B64A31465046FEF76AFF013000F06F
:104218008C801798002840F02A810F9B002B40F0D3
:104228003381109B802B00F03C810B9B0E9A9D1ACA
:10423800002D00F3628118F4807F00F06D81652CF9
:1042480040F23A83DDE912100022002304F0ECF971
:10425800002840F07F831A9B002B40F355841B9B5A
:1042680043F31D04119B9C42A8BF1C46002C00F37D
:104278000184119B002CA8BF1B1B002B1C4600F3BC
:104288005A81DDE91A2311999A424FEA810502DB26
:1042980018F0010F09D0042318AA31465046FEF73A
:1042A8001FFF013041D0DDE91A23C5EB8304A410B8
:1042B8009B1A9C42A8BF1C46002C00F3FB83002CD1
:1042C800B4BF1C461C1B002C14DD09E04023844AA3
:1042D80031465046FEF704FF0130A4F1100424D003
:1042E800102CF3DC7E4AA30031465046FEF7F8FE58
:1042F80001301AD018F0040F00F0BD820A9BFC1A96
:10430800002C40F3B882102C40F3AC82734D02E0CD
:10431800102C40F3A78240232A4631465046FEF728
:10432800DFFE0130A4F11004F2D10D9B1BB10D99F1
:104338005046FCF70DF8B38913F0400F099B18BFDE
:104348004FF0FF330993099855B0BDE8F08FA4EBFF
:104358000B035C454FEAA3053FF4DAAEC9E648F023
:104368001008DEE60C9807680430002F0C90BFF6A2
:10437800D8AE7F4248F00408D3E6002707EB87074A
:1043880004EB470753F8044B303FA4F130000928E9
:10439800F4D9C8E601222B21C3E600297FF4C1AE77
:1043A80001222021BDE648F00108BAE60C9A9B4696
:1043B80052F8043B18F0100F0C9240F02F8218F0BE
:1043C800400F00F02B829BB201222CE19B46002A71
:1043D80040F06A850C9A18F0100F52F8043B0C92C2
:1043E80003D118F0400F18BF1BB2002BC0F278831E
:1043F80017980B9A54AD013200F09982012228F0E7
:10440800800C002B40F017810B99002940F03C8369
:10441800002A40F0998218F001030E9300F05983A6
:104428003023E0460DF5A87949F8043D0E9A0B991A
:1044380000238A42B8BF0A460D930A92119310B11D
:104448000A9B01330A9318F002030F9302D00A9BC8
:1044580002330A9318F0840310937FF4DBAE0A9BAF
:10446800FD1A002D3FF7CAAE00283FF4D6AE04234C
:1044780017AA31465046FEF733FE01303FF455AFD8
:104488000F9B002B3FF4CDAE08231CAA31465046A3
:10449800FEF726FE01303FF448AF109B802B7FF4D7
:1044A800C4AE0A9BFD1A002D7FF7BFAE0AE0402379
:1044B8000B4A31465046FEF713FE0130A5F11005B0
:1044C8003FF433AF102DF2DCAB00054A31465046BD
:1044D800FEF706FE01307FF4A8AE26E7C0590108B2
:1044E800005A01084023BC4A31465046FEF7F8FD01
:1044F8000130A5F110053FF418AF102DF2DCAB0028
:10450800B54A31465046FEF7EBFD01303FF40DAF9A
:1045180018F4807F7FF493AE0E9B4A469B00E3E637
:104528004023AD4A31465046FEF7DAFD0130A4F18A
:1045380010043FF4FAAE102CF2DCA300A64A314670
:104548005046FEF7CDFD01307FF49BAEEDE648F016
:104558004008E6E59B46002A40F0A9840C9A18F02A
:10456800100F02F1040340F05B8118F0400F0C9A21
:1045780000F0568112680C93099B1380A2E59B46B4
:10458800002A40F08E840C9B4FF0FF32073323F053
:10459800070CDCF800300CF1080C13939946184608
:1045A8005CF8043CCDF830C01D46129525F0004556
:1045B8008A4B29460A9504F069F8002840F00482DD
:1045C80048460A994FF0FF32844B04F041F800281E
:1045D80040F0FA81484612990022002304F02EF890
:1045E800002840F05D831798032500217C4A7D4B05
:1045F8000A950D9128F080080E950B911191472C82
:104608008CBF914699461AE79B46782430230C9A2A
:10461800CDE91C34043252F8043C0C92022272494F
:1046280048F00208149100200B9954AD01311790FD
:104638007FF4E5AEC446012A00F07A81022A00F030
:104648002A8154A900E0494603F007023032DB080A
:1046580041F8042CA1F10409F5D11CF0010F00F078
:104668002581302A00F02281302308396D1AAA10DA
:1046780049F8043C0E92E0468946D7E69B46002A54
:1046880040F00C840C9B18F0100F53F8040B0C939B
:1046980000F04183002301222C9018460A922D93A2
:1046A80017930D900B9011900E920DF1B009CAE678
:1046B8001C6804332A2C00F0DE83A4F1300009289A
:1046C8004FF000000CD800EB800004EB400053F8DA
:1046D800044B3038A4F13005092DF4D940EAE070D4
:1046E8000B9020E548F008081BE548F0800818E51D
:1046F80000259B460C9B1795D3F8009004330C9328
:10470800B9F1000F00F0F08118F01001119140F09C
:104718008C800B9B581C1A4600F0358348460A9338
:1047280002F002F810B1A0EB09030A930A9B272BA9
:1047380000F240830A9B002B00F0918300232CA8F1
:104748000D930A9A09F1FF339D18021F13F8011FF0
:104758009D4242F8041FF9D10A9B81460E9300EB53
:104768008300002505600B95179868E60C9A9B4610
:1047780052F8043B18F010010C9240F0238118F015
:1047880040023FF450AF9BB20A464CE79B46002AD2
:1047980040F09283154B14930C9A18F0100F52F8AE
:1047A800043B0C9203D118F0400F18BF9BB218F0CD
:1047B800010F00F0BA80002B00F0B78030221D9462
:1047C8001C9248F0020802222DE79B46002A40F07E
:1047D8007183054B1493DFE7005A0108FFFFEF7F51
:1047E8007C6801086C680108F0680108AC68010879
:1047F8009B46002C3FF49FAD0023012218460A92E5
:104808002C944DE740215046FBF7F6FD30603061AF
:10481800002800F03B83402373614CE4012202E747
:1048280012680C93099B13604CE40B9A531C00F01C
:104838003B822946484600F0C7FB0D90002800F04F
:1048480086810D9B0B9AA3EB09039B109A42A8BF84
:104858001A460B950E9222EAE2720A920D9511956C
:104868001798ECE5A300BD4A31465046FEF738FCE0
:1048780001303FF45AADDDE909329742ACBFDB198C
:104888009B1809930D9B002B3FF41CAC0D995046C7
:10489800FBF75EFD16E414990DF5A87903F00F02F5
:1048A80051F822201B0949F8042DF7D1A5EB090579
:1048B800AB100E93E046B9E51B9B012B03DC18F007
:1048C800010F00F00A8104234A4631465046FEF79C
:1048D80007FC01303FF429AD042318AA314650469D
:1048E800FEF7FEFB01303FF420ADDDE912101B9C02
:1048F80000220023013C03F097FE002858D0002C2A
:104908000EDC159B1EAA9B00EEE44023944A314618
:104918005046FEF7E5FB0130A4F110043FF405AD65
:10492800102CF2DCA3008E4A45E002227BE6C44646
:10493800092B00F2AD8030330DF5A87949F8043D14
:104948000123E0460E9371E50B9BE0460E930DF5AF
:10495800A8796BE50423834A31465046FEF7C0FB2D
:1049680001303FF4E2ACDDE91A239A4203DB18F088
:10497800010F3FF4BFAC042318AA31465046FEF796
:10498800AFFB01303FF4D1AC1B9C013C002C7FF7FE
:10499800B1AC0AE04023724A31465046FEF7A0FB0C
:1049A8000130A4F110043FF4C0AC102CF2DC99E4FF
:1049B800A30009F1040231465046FEF791FB01308D
:1049C8009FD1B2E400222EE6139D2A462846129D66
:1049D8002B46294603F05AFE002840F0098248F485
:1049E80080730F930B9B013300F0668124F0200342
:1049F800472B0D90139A00F0BB804FF0280E1AA891
:104A08000E900F981BA901900B980DF1640C009063
:104A18000E982CAD05910390129B0494CDE9065E87
:104A2800CDF808C050461091CDF828C0FFF79CFA81
:104A3800A84281460D9900F00C821A9B1193662CAE
:104A480040F0C780119B002B0B9B40F3FA81002B91
:104A580040F0BF8118F0010F40F0BB81119B0A9311
:104A68000E93199D002D40F00581DDF83C800B95D3
:104A78001798E4E4A3004A4631465046FEF730FB57
:104A880001307FF4F6AB50E4012A7FF4D7AD52E74A
:104A9800DFF8D4E00DF5A879AEFB0312D20802EBDB
:104AA8008201A3EB4103303349F8043D1346002A41
:104AB800F2D1FBE609EB0502A30031465046FEF7AA
:104AC8000FFB01303FF431ACDDE91A239B1AFFF7E5
:104AD800F6BBE0460DF5A879A8E44A4604236AE740
:104AE8002D205B42179084E40B9BCDF84490062B55
:104AF80028BF0623CDF82C90CDF8349048460A9369
:104B08000E93DFF868909AE40423164A314650461B
:104B1800FEF7E6FA01303FF408AC1A9B2BB91B9B51
:104B28001BB918F0010F3FF4E5AB042318AA31466E
:104B38005046FEF7D5FA01303FF4F7AB1A9B002B2D
:104B4800C0F226811B9B4A469B00FFF7CDBB0B9BFF
:104B580011900B900A930E93179870E4C0590108AE
:104B6800005A01082C650108CDCCCCCC3469010869
:104B78000B994FF0280E002908BF01211BA810909F
:104B880010980DF1680CCDF838C00B910091059084
:104B98000F990E980DF1640C2CAD01910390129BA6
:104BA8000494CDE9065ECDF808C05046CDF828C07B
:104BB800FFF7DAF9A84281460D9900F0C4801A9BE4
:104BC8000D911193119BDA1C02DB0B9A934259DD6C
:104BD800023C119B1E94013B002BB4BF2D222B22BB
:104BE8001A93B8BF119B1F92B8BFC3F10103092BD9
:104BF80040F3E9802946B14800E01146A0FB032CA8
:104C08004FEADC0C0CEB8C02A3EB42026346303219
:104C1800092B41F8042CA1F10402EEDC08393033E9
:104C28008D4242F8043C40F22F810DF1B300801A06
:104C3800800820AD0021013001E052F8043B013129
:104C4800884245F8043BF8D120AB03EB80001EAB4B
:104C5800C01A1B9B82101592012B1A440E9240F326
:104C6800E7800E9B01330E9323EAE3730A93002334
:104C78001193F6E62D200023DDF83C8017900B9366
:104C8800FFF7DEBB1B9A119B9A424FDC18F0010F0D
:104C980040F0A68023EAE3720A920E936724E0E6C6
:104CA8002D23184617939FE448460B95FCF706FFFB
:104CB8000E9020EAE072D0E50DF1640CCDF828C022
:104CC8004FF0280E4FF0060C0B901AA80E900F9874
:104CD8001BA901900E982CAD03900A98129BCDE960
:104CE80005150290139A0494CDF81CE0CDF800C085
:104CF80050461091FFF738F90623A8420B998146D0
:104D08000B9320D00D9124F020031A9A472B11926F
:104D18007FF495AE56E700F005FA451C7FF4BAAC6F
:104D2800B38943F04003B381FFF706BB119B6724A7
:104D3800002BCCBF0123C3F10203D3180E9323EA3F
:104D4800E3730A938DE61B9B282B62DD990050467E
:104D5800FBF752FB0D900028E2D0DDE912320D98E6
:104D68001B99069010980791CDE904400E9803907E
:104D78000A9802900F9801900B9800905046FFF700
:104D8800F3F88146BFE74846FFF776F80A90CDE486
:104D98005C42103302DB40E0102C3EDD4023484AE1
:104DA80031465046FEF79CF90130A4F11004F3D1C6
:104DB800FFF7BBBA591C89005046FBF71DFB0028BA
:104DC800AED00D90BDE430221344CDE9202322A8B3
:104DD8003DE70B9D119B0135EB180A930E9340E6B6
:104DE800119B672401330E9323EAE3730A9338E691
:104DF800129B0325002BB8BF2D234FF00001BABF2B
:104E08001846179317980A950D912E4A2E4BFFF7BF
:104E1800F1BB0023A9460D9375E7A300284A314644
:104E28005046FEF75DF901307FF48CAEFFF77DBA8E
:104E380018F0010311937FF414AF22EAE2730A9386
:104E48000FE69BB918F0010F10D101230A930E93B6
:104E580007E61B9B282B3FF779AF0D91EDE50A9BE1
:104E68000DF1B009CDE90D3348467AE40B9B0233C6
:104E78000A930E93F5E50C9C206840EAE0700B90CD
:104E8800201D0C90FFF74DB920A8E0E60C234FF049
:104E9800FF32CAF800300992FFF755BA1791FFF7A9
:104EA800F1BB1791FFF76FBB1791FFF793BA1791F3
:104EB800FFF754BB17918CE417916BE4CDCCCCCCA5
:104EC800005A01089C6801088C680108F8B50D466D
:104ED8001446064608B1836943B3254B9C422AD041
:104EE800244B9C4229D0244B9C4208BFF468A269F9
:104EF800A389A2601A0722D5236903B322686169CE
:104F0800D31AEDB299422F4629DD0133A168501C0E
:104F18000139A1602060157062699A4216D0A38990
:104F2800DB0701D50A2D11D03846F8BDFCF7E8FE9D
:104F38000F4B9C42D4D17468D9E7B468D7E72146AF
:104F4800304600F06FF838B92369D7E72146304674
:104F580001F0A0F90028E7D04FF0FF37E4E7214639
:104F6800304601F097F90028F6D101232268CDE7F1
:104F7800785701085857010838570108024B0A4664
:104F880001461868FFF7A2BF0000002030B4064CA5
:104F9800064D2468246A002C08BF2C46D4F8E0404B
:104FA800A44630BC604700BF000000206400002019
:104FB80019B1FF2A03D80A700121084670478A23CD
:104FC8004FF0FF310360F8E79AB1036899420FD0B8
:104FD80030B4031D002402E005688D4206D0013478
:104FE800A242184603F10403F6D1002030BC7047F2
:104FF80070471046704700BFF8B50E460025084CAC
:10500800114607461A463046256004F0C7F8431C87
:1050180000D0F8BD2368002BFBD03B60F8BD00BF73
:105028000C7500203B4B70B51D6806460C460DB14B
:10503800AB69DBB1384B9C421ED0384B9C424AD0FE
:10504800374B9C4208BFEC68B4F90C2093B219079F
:1050580018D5206908B313F001022CD00022636927
:10506800A2605B42A36160B3002070BD2846FCF7D4
:1050780047FE294B9C42E0D16C68B4F90C2093B2EE
:105088001907E6D4DD063CD5580726D4206942F036
:105098000803A3819BB20028DDD103F42072B2F586
:1050A800007FD8D03046214601F0F4FAA389206960
:1050B80013F00102D2D1990758BF6269A260002893
:1050C800D2D1B4F90C301A06CFD543F04003A381EE
:1050D8004FF0FF3070BDAC68B6E7616B51B104F1B9
:1050E8004403994204D03046FBF732F9B4F90C2056
:1050F800002363630023206922F02402C4E900032B
:10510800C5E7092342F0400233604FF0FF30A28127
:1051180070BD00BF000000207857010858570108EB
:1051280038570108431C25D00346F0B587B004AEB4
:105138001F4F3046082200218DF80B30FBF7BEF8D0
:105148003D68AC6DCCB12B6A1A4A0096002B08BF9B
:1051580013462846D3F8E4400DF10B02012303A9B6
:10516800A047012802D8039807B0F0BD4FF0FF30E0
:1051780007B0F0BD4FF0FF3070475020FBF78EF8B6
:10518800A8653D68AB6DC3E90044C3E90244C3E9BF
:1051980004449C61C3E90A44C3E90C44C3E90E44CE
:1051A800C3E91044C3E912441C775C62CBE700BF33
:1051B800000000206400002038B50023064C054696
:1051C8000846236002F0DAFD431C00D038BD23688E
:1051D800002BFBD02B6038BD0C75002000000000B0
:1051E8002DE9F04F03690E6983B0B342C0F286809F
:1051F800013E01F1140800F1140958F8263059F855
:1052080026700133B7FBF3F7B300009308EB030AEA
:105218004B440193002F3BD00023C6461C46CC4686
:105228005EF8042BDCF800501FFA82FB07FB0B33F7
:10523800120C4FEA134B07FB02BB9AB2A21AABB28D
:105248001FFA8BF41A44C4EB154404EB224492B2BF
:1052580042EA0442F2454CF8042B4FEA24444FEA50
:105268001B43DDD2009B59F803308BB9019A131FF9
:1052780099450CD252F8043C4BB9A2F1080302E05C
:105288001A68043B1AB9994506F1FF36F8D3066146
:105298000446FDF70BFD00282CDB4D4600230137A3
:1052A80058F8041B28688AB29A1A0B0C81B20A446F
:1052B800C3EB104303EB224392B242EA0342C245D6
:1052C80045F8042B4FEA2343EAD259F8262009EB84
:1052D80086037AB91A1F91450BD253F8042C42B9A8
:1052E800083B02E01A68043B1AB9994506F1FF36F3
:1052F800F8D32661384603B0BDE8F08F002003B02C
:10530800BDE8F08F2DE9F04F16461F46456A99B063
:105318000446CDE90267002D00F0EF802B6853B1F9
:1053280001226D681946AA40C3E90152FDF760FAE7
:105338000022636A1A603E1EB4BF01230023259A27
:10534800B8BF26F000461360794BB8BF0396B34345
:1053580000F0A680DDE90289002200234046494684
:1053680003F062F9074678B10123249A1360269B5B
:10537800002B00F0CB806F4B269A03F1FF391360A6
:10538800484619B0BDE8F08F16AA17ABCDE9003230
:10539800204642464B46FDF7A7FD350D834640F0B3
:1053A8009F80DDE91685454405F23243202B40F302
:1053B8005184C3F140039E40029B05F2124023FA38
:1053C80000F0304302F052FE0122013D0A92A1F1A1
:1053D800F8710022584B02F00BFD4FA3D3E90023CC
:1053E80002F0BAFE4EA3D3E9002302F003FD0646FD
:1053F80028460F4602F04AFE4BA3D3E9002302F0E9
:10540800ABFE02460B463046394602F0F3FC064630
:105418000F4603F051F90022059000233046394623
:1054280003F00CF9002840F08282059E162E00F247
:105438006C82DDE90223414901EBC601D1E9000193
:1054480003F01AF9002800F00C84731E059300235A
:105458000D93A8EB0505B5F1010A00F1628200235E
:105468000693059B002BC0F253829A440C930023A9
:105478000B93229B092B69D8052BC4BF043B2293AD
:10548800229BC8BF0026A3F10203D8BF0126032B25
:1054980000F2A684DFE813F00804E80313040B0500
:1054A80042F20F73249A1360029B83B9C6F3130662
:1054B8006EB9269BDFF88890002B3FF461AF09F1A5
:1054C80008034846269A136019B0BDE8F08F269B5A
:1054D800DFF87090002B3FF453AF09F10303F0E7B6
:1054E800C9F3130343F07F514046A5F2FF350A97ED
:1054F80041F44011DDF858806BE71020FAF7CEFE32
:105508006062C0E901550560C56014E7DFF83890AE
:10551800484619B0BDE8F08F61436F63A787D23F53
:10552800B3C8608B288AC63FFB799F501344D33F8A
:105538000000F07F616901080000F83FA8580108E1
:10554800506901085C690108606901084FF0FF357E
:1055580001260023CDE908562293239300231946F8
:10556800676A14957B602046FDF70EF9636A0E2D75
:105578003860D3F8009000F2FC80002E00F0F9802B
:10558800DDE9022316461F460599CDE90E67002975
:1055980040F3E6839A4B01F00F020D1103EBC203AF
:1055A800D3E90012CDE90212EA0640F19E84954B38
:1055B8003946D3E90823304602F0F8FE0327CDE93F
:1055C800100105F00F057DB1DDE902018D4EEB07F5
:1055D80004D5D6E9002302F0BFFD01376D1006F1AE
:1055E8000806F4D1CDE90201DDE90223DDE9100165
:1055F80002F0DCFECDE902010D9B43B1DDE90201B9
:105608000022814B03F01AF8002840F0078538463D
:1056180002F03CFDDDE9022302F09EFD7B4B0022F7
:1056280002F0E8FB089B0546A1F15076002B00F03C
:105638001784059B1593089B1093DDE9020103F07D
:105648003BF8109A6E4B00F1300803EBC20353E9A4
:105658000212CDE9121202F019FD0B460246DDE9ED
:105668000201CDE9025602F0C3FB099B5FFA88F8F4
:1056780006460F4609F10105002B00F05784DDE9C5
:1056880012230020624902F091FEDDE9022302F0B4
:10569800AFFB89F8008032463B46CDE9020102F0B3
:1056A800EBFF002840F00C8532463B460020564967
:1056B80002F09EFBDDE9022302F0C0FF002840F063
:1056C8000985109A012A50D04A44CDF848A0CDF84F
:1056D80040B0A046DDE902ABCDF8089091460EE057
:1056E80032463B460020484902F082FB52465B4660
:1056F80002F0A4FF002840F0E6844D452ED0504625
:1057080059460022434B02F027FD0022414B8246B6
:105718008B463046394602F01FFD0F46064602F01A
:10572800CBFF044602F0B2FC02460B46304639462F
:1057380002F05EFB3034E4B205F8014B52465B469A
:1057480006460F4602F07AFF0028C9D0159BDDF8FF
:1057580040B0DDF808904446059339E24446DDF848
:1057680048A0DDF840B0DDF80890DDE90E23CDE96A
:105778000223179B002BC0F2A980059A0E2A00F37A
:10578800A5801F4B03EBC203D3E90023CDE9062311
:10579800239B002BC0F2C082DDE90267DDE9062306
:1057A8003046394602F002FE02F086FF804602F0DB
:1057B8006DFCDDE9062302F0CFFC02460B463046BD
:1057C800394602F015FB089E08F13005012E89F8CC
:1057D800005002460B4609F101054CD000220D4B42
:1057E80002F0BAFC0022002306460F4602F01CFF16
:1057F800002840F0ED81CDF808B0DDE906AB18E0EF
:10580800A8580108985901080000F03F00001C4002
:105818000000E03F000024400022C64B02F09CFC40
:105828000022002306460F4602F0FEFE002840F044
:10583800418352465B463046394602F0B7FD02F0D6
:105848003BFF804602F022FC52465B4602F084FC95
:1058580002460B463046394602F0CAFA08F13006CD
:1058680005F8016B089FA5EB0906B74202460B46EF
:10587800D2D1DDF808B01046194602F0BBFADDE9CE
:10588800062306460F4602F0F7FE60B9DDE9062357
:105898003046394602F0C8FE002800F0998118F019
:1058A800010F00F0958115F8018C05E0994500F08D
:1058B8007D831D4613F8018CB8F1390F05F1FF33CC
:1058C800F4D008F1010883F8008081E1099A002AE0
:1058D8003DD0229A012A40F31182089B03F1FF3838
:1058E8000B9B4345C0F2E982A3EB0808089B002BF9
:1058F800C0F20E83069A9A440A921A44069201212B
:105908002046FDF76BF8064626E001230D93A0E537
:1059180000230C93DDE90532D21A5B4206920B9301
:10592800A7E5C5F1010306934FF0000A99E5DDF8F4
:105938001490484602F0AAFB32463B4602F074FE39
:1059480000287FF472AD09F1FF3305936DE5069BDE
:10595800DDF82C80099E0A930A9900290B460CDD74
:10596800BAF1000F09DD5145A8BF5346069AAAEBC4
:10597800030AD21A0692CA1A0A920B9B7BB1099A99
:10598800002A00F08D82A3EB0807B8F1000F40F061
:10599800998159463A462046FDF7D0F883460121B9
:1059A8002046FDF71BF80C9A0746002A40F025818F
:1059B800229B012B40F3C7830120504410F01F00A5
:1059C80000F01981C0F12003042B40F3B783C0F124
:1059D8001C00069B8244034406930A9B03440A93D3
:1059E800069B002B05DD59461A462046FDF702F9AD
:1059F8008346BAF1000F05DD394652462046FDF7C9
:105A0800F9F807460D9B002B77D1089B002B40F334
:105A18000582099B002B00F089800A9B002B00F36C
:105A280066810C9B002B40F0C481B246C846029B9D
:105A3800089A03F001030A9309F1FF331A44069206
:105A4800CDF82C9039465846FFF7CAFB31468146B7
:105A580009905846FDF72AF95246029039462046E1
:105A6800FDF740F9C268054609F130090146002AE8
:105A780040F0CF815846FDF719F92946089020468D
:105A8800FCF7B6FE089A32B9229B23B90A9B002B71
:105A980000F02483229A029B002BC0F2198205D1C0
:105AA800229B1BB90A9B002B00F01282002A08F1E6
:105AB800010500F32182069B88F80090434500F019
:105AC8002C82594600230A222046FCF7ADFE564593
